{"abi":[{"type":"constructor","inputs":[],"stateMutability":"nonpayable"},{"type":"function","name":"ASSET_ID","inputs":[],"outputs":[{"name":"","type":"uint32","internalType":"uint32"}],"stateMutability":"view"},{"type":"function","name":"BRIDGE_ROLE","inputs":[],"outputs":[{"name":"","type":"bytes32","internalType":"bytes32"}],"stateMutability":"view"},{"type":"function","name":"DEFAULT_ADMIN_ROLE","inputs":[],"outputs":[{"name":"","type":"bytes32","internalType":"bytes32"}],"stateMutability":"view"},{"type":"function","name":"MINTER_ROLE","inputs":[],"outputs":[{"name":"","type":"bytes32","internalType":"bytes32"}],"stateMutability":"view"},{"type":"function","name":"PAUSER_ROLE","inputs":[],"outputs":[{"name":"","type":"bytes32","internalType":"bytes32"}],"stateMutability":"view"},{"type":"function","name":"allowance","inputs":[{"name":"owner","type":"address","internalType":"address"},{"name":"spender","type":"address","internalType":"address"}],"outputs":[{"name":"","type":"uint256","internalType":"uint256"}],"stateMutability":"view"},{"type":"function","name":"approve","inputs":[{"name":"spender","type":"address","internalType":"address"},{"name":"value","type":"uint256","internalType":"uint256"}],"outputs":[{"name":"","type":"bool","internalType":"bool"}],"stateMutability":"nonpayable"},{"type":"function","name":"balanceOf","inputs":[{"name":"account","type":"address","internalType":"address"}],"outputs":[{"name":"","type":"uint256","internalType":"uint256"}],"stateMutability":"view"},{"type":"function","name":"bridgeIn","inputs":[{"name":"substrateAddress","type":"bytes32","internalType":"bytes32"},{"name":"recipient","type":"address","internalType":"address"},{"name":"amount","type":"uint256","internalType":"uint256"},{"name":"sourceParaId","type":"uint32","internalType":"uint32"},{"name":"xcmTxHash","type":"bytes32","internalType":"bytes32"}],"outputs":[],"stateMutability":"nonpayable"},{"type":"function","name":"bridgeOut","inputs":[{"name":"amount","type":"uint256","internalType":"uint256"},{"name":"destinationParaId","type":"uint32","internalType":"uint32"},{"name":"substrateAddress","type":"bytes32","internalType":"bytes32"}],"outputs":[{"name":"xcmTxHash","type":"bytes32","internalType":"bytes32"}],"stateMutability":"nonpayable"},{"type":"function","name":"bridgedBalances","inputs":[{"name":"","type":"address","internalType":"address"}],"outputs":[{"name":"","type":"uint256","internalType":"uint256"}],"stateMutability":"view"},{"type":"function","name":"burn","inputs":[{"name":"value","type":"uint256","internalType":"uint256"}],"outputs":[],"stateMutability":"nonpayable"},{"type":"function","name":"burnFrom","inputs":[{"name":"account","type":"address","internalType":"address"},{"name":"value","type":"uint256","internalType":"uint256"}],"outputs":[],"stateMutability":"nonpayable"},{"type":"function","name":"decimals","inputs":[],"outputs":[{"name":"","type":"uint8","internalType":"uint8"}],"stateMutability":"pure"},{"type":"function","name":"getAssetMetadata","inputs":[],"outputs":[{"name":"assetId","type":"uint32","internalType":"uint32"},{"name":"name_","type":"string","internalType":"string"},{"name":"symbol_","type":"string","internalType":"string"},{"name":"decimals_","type":"uint8","internalType":"uint8"},{"name":"totalSupply_","type":"uint256","internalType":"uint256"},{"name":"contractAddress","type":"address","internalType":"address"}],"stateMutability":"view"},{"type":"function","name":"getBridgeStats","inputs":[{"name":"account","type":"address","internalType":"address"}],"outputs":[{"name":"bridgedBalance","type":"uint256","internalType":"uint256"},{"name":"totalBridged","type":"uint256","internalType":"uint256"}],"stateMutability":"view"},{"type":"function","name":"getRoleAdmin","inputs":[{"name":"role","type":"bytes32","internalType":"bytes32"}],"outputs":[{"name":"","type":"bytes32","internalType":"bytes32"}],"stateMutability":"view"},{"type":"function","name":"grantRole","inputs":[{"name":"role","type":"bytes32","internalType":"bytes32"},{"name":"account","type":"address","internalType":"address"}],"outputs":[],"stateMutability":"nonpayable"},{"type":"function","name":"hasRole","inputs":[{"name":"role","type":"bytes32","internalType":"bytes32"},{"name":"account","type":"address","internalType":"address"}],"outputs":[{"name":"","type":"bool","internalType":"bool"}],"stateMutability":"view"},{"type":"function","name":"isBridgeTransactionProcessed","inputs":[{"name":"xcmTxHash","type":"bytes32","internalType":"bytes32"}],"outputs":[{"name":"","type":"bool","internalType":"bool"}],"stateMutability":"view"},{"type":"function","name":"mint","inputs":[{"name":"to","type":"address","internalType":"address"},{"name":"amount","type":"uint256","internalType":"uint256"}],"outputs":[],"stateMutability":"nonpayable"},{"type":"function","name":"name","inputs":[],"outputs":[{"name":"","type":"string","internalType":"string"}],"stateMutability":"view"},{"type":"function","name":"pause","inputs":[],"outputs":[],"stateMutability":"nonpayable"},{"type":"function","name":"paused","inputs":[],"outputs":[{"name":"","type":"bool","internalType":"bool"}],"stateMutability":"view"},{"type":"function","name":"processedBridgeTransactions","inputs":[{"name":"","type":"bytes32","internalType":"bytes32"}],"outputs":[{"name":"","type":"bool","internalType":"bool"}],"stateMutability":"view"},{"type":"function","name":"renounceRole","inputs":[{"name":"role","type":"bytes32","internalType":"bytes32"},{"name":"callerConfirmation","type":"address","internalType":"address"}],"outputs":[],"stateMutability":"nonpayable"},{"type":"function","name":"revokeRole","inputs":[{"name":"role","type":"bytes32","internalType":"bytes32"},{"name":"account","type":"address","internalType":"address"}],"outputs":[],"stateMutability":"nonpayable"},{"type":"function","name":"supportsInterface","inputs":[{"name":"interfaceId","type":"bytes4","internalType":"bytes4"}],"outputs":[{"name":"","type":"bool","internalType":"bool"}],"stateMutability":"view"},{"type":"function","name":"symbol","inputs":[],"outputs":[{"name":"","type":"string","internalType":"string"}],"stateMutability":"view"},{"type":"function","name":"totalBridgedSupply","inputs":[],"outputs":[{"name":"","type":"uint256","internalType":"uint256"}],"stateMutability":"view"},{"type":"function","name":"totalSupply","inputs":[],"outputs":[{"name":"","type":"uint256","internalType":"uint256"}],"stateMutability":"view"},{"type":"function","name":"transfer","inputs":[{"name":"to","type":"address","internalType":"address"},{"name":"value","type":"uint256","internalType":"uint256"}],"outputs":[{"name":"","type":"bool","internalType":"bool"}],"stateMutability":"nonpayable"},{"type":"function","name":"transferFrom","inputs":[{"name":"from","type":"address","internalType":"address"},{"name":"to","type":"address","internalType":"address"},{"name":"value","type":"uint256","internalType":"uint256"}],"outputs":[{"name":"","type":"bool","internalType":"bool"}],"stateMutability":"nonpayable"},{"type":"function","name":"unpause","inputs":[],"outputs":[],"stateMutability":"nonpayable"},{"type":"event","name":"Approval","inputs":[{"name":"owner","type":"address","indexed":true,"internalType":"address"},{"name":"spender","type":"address","indexed":true,"internalType":"address"},{"name":"value","type":"uint256","indexed":false,"internalType":"uint256"}],"anonymous":false},{"type":"event","name":"AssetRegistered","inputs":[{"name":"assetId","type":"uint32","indexed":true,"internalType":"uint32"},{"name":"contractAddress","type":"address","indexed":false,"internalType":"address"},{"name":"symbol","type":"string","indexed":false,"internalType":"string"}],"anonymous":false},{"type":"event","name":"BridgeIn","inputs":[{"name":"substrateAddress","type":"bytes32","indexed":true,"internalType":"bytes32"},{"name":"to","type":"address","indexed":true,"internalType":"address"},{"name":"amount","type":"uint256","indexed":false,"internalType":"uint256"},{"name":"sourceParaId","type":"uint32","indexed":false,"internalType":"uint32"},{"name":"xcmTransactionHash","type":"bytes32","indexed":false,"internalType":"bytes32"}],"anonymous":false},{"type":"event","name":"BridgeOut","inputs":[{"name":"from","type":"address","indexed":true,"internalType":"address"},{"name":"substrateAddress","type":"bytes32","indexed":true,"internalType":"bytes32"},{"name":"amount","type":"uint256","indexed":false,"internalType":"uint256"},{"name":"destinationParaId","type":"uint32","indexed":false,"internalType":"uint32"},{"name":"xcmTransactionHash","type":"bytes32","indexed":false,"internalType":"bytes32"}],"anonymous":false},{"type":"event","name":"Paused","inputs":[{"name":"account","type":"address","indexed":false,"internalType":"address"}],"anonymous":false},{"type":"event","name":"RoleAdminChanged","inputs":[{"name":"role","type":"bytes32","indexed":true,"internalType":"bytes32"},{"name":"previousAdminRole","type":"bytes32","indexed":true,"internalType":"bytes32"},{"name":"newAdminRole","type":"bytes32","indexed":true,"internalType":"bytes32"}],"anonymous":false},{"type":"event","name":"RoleGranted","inputs":[{"name":"role","type":"bytes32","indexed":true,"internalType":"bytes32"},{"name":"account","type":"address","indexed":true,"internalType":"address"},{"name":"sender","type":"address","indexed":true,"internalType":"address"}],"anonymous":false},{"type":"event","name":"RoleRevoked","inputs":[{"name":"role","type":"bytes32","indexed":true,"internalType":"bytes32"},{"name":"account","type":"address","indexed":true,"internalType":"address"},{"name":"sender","type":"address","indexed":true,"internalType":"address"}],"anonymous":false},{"type":"event","name":"Transfer","inputs":[{"name":"from","type":"address","indexed":true,"internalType":"address"},{"name":"to","type":"address","indexed":true,"internalType":"address"},{"name":"value","type":"uint256","indexed":false,"internalType":"uint256"}],"anonymous":false},{"type":"event","name":"Unpaused","inputs":[{"name":"account","type":"address","indexed":false,"internalType":"address"}],"anonymous":false},{"type":"error","name":"AccessControlBadConfirmation","inputs":[]},{"type":"error","name":"AccessControlUnauthorizedAccount","inputs":[{"name":"account","type":"address","internalType":"address"},{"name":"neededRole","type":"bytes32","internalType":"bytes32"}]},{"type":"error","name":"ERC20InsufficientAllowance","inputs":[{"name":"spender","type":"address","internalType":"address"},{"name":"allowance","type":"uint256","internalType":"uint256"},{"name":"needed","type":"uint256","internalType":"uint256"}]},{"type":"error","name":"ERC20InsufficientBalance","inputs":[{"name":"sender","type":"address","internalType":"address"},{"name":"balance","type":"uint256","internalType":"uint256"},{"name":"needed","type":"uint256","internalType":"uint256"}]},{"type":"error","name":"ERC20InvalidApprover","inputs":[{"name":"approver","type":"address","internalType":"address"}]},{"type":"error","name":"ERC20InvalidReceiver","inputs":[{"name":"receiver","type":"address","internalType":"address"}]},{"type":"error","name":"ERC20InvalidSender","inputs":[{"name":"sender","type":"address","internalType":"address"}]},{"type":"error","name":"ERC20InvalidSpender","inputs":[{"name":"spender","type":"address","internalType":"address"}]},{"type":"error","name":"EnforcedPause","inputs":[]},{"type":"error","name":"ExpectedPause","inputs":[]}],"bytecode":{"object":"0x608060405234801562000010575f80fd5b506040518060400160405280600c81526020016b1554d108141bdb1ad8591bdd60a21b815250604051806040016040528060048152602001630555344560e41b815250816003908162000064919062000287565b50600462000073828262000287565b506200008491505f90503362000137565b50620000b17f9f2df0fed2c77648de5860a4cc508cd0818c85b8b8a1ab4ceeef8d981c8956a63362000137565b50620000de7f65d7a28e3265b37a6474929f336521b332c1681b933f6cb9f3376673440d862a3362000137565b506040805130815260208101829052600481830152630555344560e41b6060820152905161a455917f4538f8b678a33b97c91b2566a4e2ae949a1b4b219d3b304366f5c89e4e57be89919081900360800190a26200034f565b5f8281526005602090815260408083206001600160a01b038516845290915281205460ff16620001de575f8381526005602090815260408083206001600160a01b03861684529091529020805460ff19166001179055620001953390565b6001600160a01b0316826001600160a01b0316847f2f8788117e7eff1d82e926ec794901d17c78024a50270940304540a733656f0d60405160405180910390a4506001620001e1565b505f5b92915050565b634e487b7160e01b5f52604160045260245ffd5b600181811c908216806200021057607f821691505b6020821081036200022f57634e487b7160e01b5f52602260045260245ffd5b50919050565b601f82111562000282575f81815260208120601f850160051c810160208610156200025d5750805b601f850160051c820191505b818110156200027e5782815560010162000269565b5050505b505050565b81516001600160401b03811115620002a357620002a3620001e7565b620002bb81620002b48454620001fb565b8462000235565b602080601f831160018114620002f1575f8415620002d95750858301515b5f19600386901b1c1916600185901b1785556200027e565b5f85815260208120601f198616915b82811015620003215788860151825594840194600190910190840162000300565b50858210156200033f57878501515f19600388901b60f8161c191681555b5050505050600190811b01905550565b61142f806200035d5f395ff3fe608060405234801561000f575f80fd5b50600436106101fd575f3560e01c806379cc679011610114578063b0b6f720116100a9578063d547741f11610079578063d547741f1461049d578063dd62ed3e146104b0578063ddd71ede146104e8578063e63ab1e914610502578063ee36e11b14610529575f80fd5b8063b0b6f72014610433578063b5bfddea1461043c578063cff3f08214610463578063d539139314610476575f80fd5b806395d89b41116100e457806395d89b41146103f35780639ceb21ae146103fb578063a217fddf14610419578063a9059cbb14610420575f80fd5b806379cc6790146103845780638456cb591461039757806391d148541461039f5780639572c6b1146103b2575f80fd5b8063313ce567116101955780633f8bbca2116101655780633f8bbca21461030c57806340c10f191461032b57806342966c681461033e5780635c975abb1461035157806370a082311461035c575f80fd5b8063313ce567146102cf57806336568abe146102de5780633f4ba83a146102f15780633f6fa06d146102f9575f80fd5b806323b872dd116101d057806323b872dd14610263578063248a9ca31461027657806327621f09146102985780632f2ff15d146102ba575f80fd5b806301ffc9a71461020157806306fdde0314610229578063095ea7b31461023e57806318160ddd14610251575b5f80fd5b61021461020f36600461112c565b61054b565b60405190151581526020015b60405180910390f35b610231610581565b604051610220919061119d565b61021461024c3660046111ca565b610611565b6002545b604051908152602001610220565b6102146102713660046111f2565b610628565b61025561028436600461122b565b5f9081526005602052604090206001015490565b6102146102a636600461122b565b5f9081526007602052604090205460ff1690565b6102cd6102c8366004611242565b61064b565b005b60405160068152602001610220565b6102cd6102ec366004611242565b610675565b6102cd6106ad565b6102cd61030736600461127f565b6106e2565b61025561031a3660046112c9565b60086020525f908152604090205481565b6102cd6103393660046111ca565b6108ba565b6102cd61034c36600461122b565b6108ee565b60065460ff16610214565b61025561036a3660046112c9565b6001600160a01b03165f9081526020819052604090205490565b6102cd6103923660046111ca565b6108f8565b6102cd610911565b6102146103ad366004611242565b610943565b6103de6103c03660046112c9565b6001600160a01b03165f908152600860205260409020546009549091565b60408051928352602083019190915201610220565b61023161096d565b61040461a45581565b60405163ffffffff9091168152602001610220565b6102555f81565b61021461042e3660046111ca565b61097c565b61025560095481565b6102557f52ba824bfabc2bcfcdf7f0edbb486ebb05e1836c90e78047efeb949990f72e5f81565b6102556104713660046112e2565b610989565b6102557f9f2df0fed2c77648de5860a4cc508cd0818c85b8b8a1ab4ceeef8d981c8956a681565b6102cd6104ab366004611242565b610b6c565b6102556104be366004611304565b6001600160a01b039182165f90815260016020908152604080832093909416825291909152205490565b6104f0610b90565b6040516102209695949392919061132c565b6102557f65d7a28e3265b37a6474929f336521b332c1681b933f6cb9f3376673440d862a81565b61021461053736600461122b565b60076020525f908152604090205460ff1681565b5f6001600160e01b03198216637965db0b60e01b148061057b57506301ffc9a760e01b6001600160e01b03198316145b92915050565b60606003805461059090611387565b80601f01602080910402602001604051908101604052809291908181526020018280546105bc90611387565b80156106075780601f106105de57610100808354040283529160200191610607565b820191905f5260205f20905b8154815290600101906020018083116105ea57829003601f168201915b5050505050905090565b5f3361061e818585610bc2565b5060019392505050565b5f33610635858285610bcf565b610640858585610c45565b506001949350505050565b5f8281526005602052604090206001015461066581610ca2565b61066f8383610cac565b50505050565b6001600160a01b038116331461069e5760405163334bd91960e11b815260040160405180910390fd5b6106a88282610d3d565b505050565b7f65d7a28e3265b37a6474929f336521b332c1681b933f6cb9f3376673440d862a6106d781610ca2565b6106df610da8565b50565b7f52ba824bfabc2bcfcdf7f0edbb486ebb05e1836c90e78047efeb949990f72e5f61070c81610ca2565b610714610dfa565b5f8281526007602052604090205460ff161561076b5760405162461bcd60e51b8152602060048201526011602482015270105b1c9958591e481c1c9bd8d95cdcd959607a1b60448201526064015b60405180910390fd5b6001600160a01b0385166107b55760405162461bcd60e51b8152602060048201526011602482015270125b9d985b1a59081c9958da5c1a595b9d607a1b6044820152606401610762565b5f84116107f95760405162461bcd60e51b81526020600482015260126024820152710416d6f756e74206d757374206265203e20360741b6044820152606401610762565b5f828152600760205260409020805460ff1916600117905561081b8585610e20565b6001600160a01b0385165f90815260086020526040812080548692906108429084906113d3565b925050819055508360095f82825461085a91906113d3565b90915550506040805185815263ffffffff851660208201529081018390526001600160a01b0386169087907f63daf5225487a59acc3ac7fda73d1ee883b6c0a177ff34cde4e774e0c225ee419060600160405180910390a3505050505050565b7f9f2df0fed2c77648de5860a4cc508cd0818c85b8b8a1ab4ceeef8d981c8956a66108e481610ca2565b6106a88383610e20565b6106df3382610e54565b610903823383610bcf565b61090d8282610e54565b5050565b7f65d7a28e3265b37a6474929f336521b332c1681b933f6cb9f3376673440d862a61093b81610ca2565b6106df610e88565b5f9182526005602090815260408084206001600160a01b0393909316845291905290205460ff1690565b60606004805461059090611387565b5f3361061e818585610c45565b5f610992610dfa565b5f84116109d65760405162461bcd60e51b81526020600482015260126024820152710416d6f756e74206d757374206265203e20360741b6044820152606401610762565b5f8363ffffffff1611610a225760405162461bcd60e51b8152602060048201526014602482015273125b9d985b1a59081c185c9858da185a5b88125160621b6044820152606401610762565b81610a6f5760405162461bcd60e51b815260206004820152601960248201527f496e76616c6964207375627374726174652061646472657373000000000000006044820152606401610762565b610a793385610e54565b6040516bffffffffffffffffffffffff193360601b16602082015260348101839052605481018590526001600160e01b031960e085901b16607482015242607882015243609882015260b80160408051601f198184030181529181528151602092830120335f9081526008909352908220805491935086929091610afe9084906113e6565b925050819055508360095f828254610b1691906113e6565b90915550506040805185815263ffffffff85166020820152908101829052829033907f9b71cf277e8f3043a0b88813bc4c71d743ec41a86cf9bbc6ea2af6c7e091f3b09060600160405180910390a39392505050565b5f82815260056020526040902060010154610b8681610ca2565b61066f8383610d3d565b5f6060805f805f61a455610ba2610581565b610baa61096d565b60025492999198509650600695509093503092509050565b6106a88383836001610ec5565b6001600160a01b038381165f908152600160209081526040808320938616835292905220545f1981101561066f5781811015610c3757604051637dc7a0d960e11b81526001600160a01b03841660048201526024810182905260448101839052606401610762565b61066f84848484035f610ec5565b6001600160a01b038316610c6e57604051634b637e8f60e11b81525f6004820152602401610762565b6001600160a01b038216610c975760405163ec442f0560e01b81525f6004820152602401610762565b6106a8838383610f97565b6106df8133610faa565b5f610cb78383610943565b610d36575f8381526005602090815260408083206001600160a01b03861684529091529020805460ff19166001179055610cee3390565b6001600160a01b0316826001600160a01b0316847f2f8788117e7eff1d82e926ec794901d17c78024a50270940304540a733656f0d60405160405180910390a450600161057b565b505f61057b565b5f610d488383610943565b15610d36575f8381526005602090815260408083206001600160a01b0386168085529252808320805460ff1916905551339286917ff6391f5c32d9c69d2a47ea670b442974b53935d1edc7fd64eb21e047a839171b9190a450600161057b565b610db0610fe3565b6006805460ff191690557f5db9ee0a495bf2e6ff9c91a7834c1ba4fdd244a5e8aa4e537bd38aeae4b073aa335b6040516001600160a01b03909116815260200160405180910390a1565b60065460ff1615610e1e5760405163d93c066560e01b815260040160405180910390fd5b565b6001600160a01b038216610e495760405163ec442f0560e01b81525f6004820152602401610762565b61090d5f8383610f97565b6001600160a01b038216610e7d57604051634b637e8f60e11b81525f6004820152602401610762565b61090d825f83610f97565b610e90610dfa565b6006805460ff191660011790557f62e78cea01bee320cd4e420270b5ea74000d11b0c9f74754ebdbfc544b05a258610ddd3390565b6001600160a01b038416610eee5760405163e602df0560e01b81525f6004820152602401610762565b6001600160a01b038316610f1757604051634a1406b160e11b81525f6004820152602401610762565b6001600160a01b038085165f908152600160209081526040808320938716835292905220829055801561066f57826001600160a01b0316846001600160a01b03167f8c5be1e5ebec7d5bd14f71427d1e84f3dd0314c0f7b2291e5b200ac8c7c3b92584604051610f8991815260200190565b60405180910390a350505050565b610f9f610dfa565b6106a8838383611006565b610fb48282610943565b61090d5760405163e2517d3f60e01b81526001600160a01b038216600482015260248101839052604401610762565b60065460ff16610e1e57604051638dfc202b60e01b815260040160405180910390fd5b6001600160a01b038316611030578060025f82825461102591906113d3565b909155506110a09050565b6001600160a01b0383165f90815260208190526040902054818110156110825760405163391434e360e21b81526001600160a01b03851660048201526024810182905260448101839052606401610762565b6001600160a01b0384165f9081526020819052604090209082900390555b6001600160a01b0382166110bc576002805482900390556110da565b6001600160a01b0382165f9081526020819052604090208054820190555b816001600160a01b0316836001600160a01b03167fddf252ad1be2c89b69c2b068fc378daa952ba7f163c4a11628f55a4df523b3ef8360405161111f91815260200190565b60405180910390a3505050565b5f6020828403121561113c575f80fd5b81356001600160e01b031981168114611153575f80fd5b9392505050565b5f81518084525f5b8181101561117e57602081850181015186830182015201611162565b505f602082860101526020601f19601f83011685010191505092915050565b602081525f611153602083018461115a565b80356001600160a01b03811681146111c5575f80fd5b919050565b5f80604083850312156111db575f80fd5b6111e4836111af565b946020939093013593505050565b5f805f60608486031215611204575f80fd5b61120d846111af565b925061121b602085016111af565b9150604084013590509250925092565b5f6020828403121561123b575f80fd5b5035919050565b5f8060408385031215611253575f80fd5b82359150611263602084016111af565b90509250929050565b803563ffffffff811681146111c5575f80fd5b5f805f805f60a08688031215611293575f80fd5b853594506112a3602087016111af565b9350604086013592506112b86060870161126c565b949793965091946080013592915050565b5f602082840312156112d9575f80fd5b611153826111af565b5f805f606084860312156112f4575f80fd5b8335925061121b6020850161126c565b5f8060408385031215611315575f80fd5b61131e836111af565b9150611263602084016111af565b63ffffffff8716815260c060208201525f61134a60c083018861115a565b828103604084015261135c818861115a565b60ff969096166060840152505060808101929092526001600160a01b031660a0909101529392505050565b600181811c9082168061139b57607f821691505b6020821081036113b957634e487b7160e01b5f52602260045260245ffd5b50919050565b634e487b7160e01b5f52601160045260245ffd5b8082018082111561057b5761057b6113bf565b8181038181111561057b5761057b6113bf56fea2646970667358221220c803929bad4386791d5b39b262878eb27877aeef86bbc1d5f2ab399696a11ce164736f6c63430008140033","linkReferences":{}},"methodIdentifiers":{"ASSET_ID()":"9ceb21ae","BRIDGE_ROLE()":"b5bfddea","DEFAULT_ADMIN_ROLE()":"a217fddf","MINTER_ROLE()":"d5391393","PAUSER_ROLE()":"e63ab1e9","allowance(address,address)":"dd62ed3e","approve(address,uint256)":"095ea7b3","balanceOf(address)":"70a08231","bridgeIn(bytes32,address,uint256,uint32,bytes32)":"3f6fa06d","bridgeOut(uint256,uint32,bytes32)":"cff3f082","bridgedBalances(address)":"3f8bbca2","burn(uint256)":"42966c68","burnFrom(address,uint256)":"79cc6790","decimals()":"313ce567","getAssetMetadata()":"ddd71ede","getBridgeStats(address)":"9572c6b1","getRoleAdmin(bytes32)":"248a9ca3","grantRole(bytes32,address)":"2f2ff15d","hasRole(bytes32,address)":"91d14854","isBridgeTransactionProcessed(bytes32)":"27621f09","mint(address,uint256)":"40c10f19","name()":"06fdde03","pause()":"8456cb59","paused()":"5c975abb","processedBridgeTransactions(bytes32)":"ee36e11b","renounceRole(bytes32,address)":"36568abe","revokeRole(bytes32,address)":"d547741f","supportsInterface(bytes4)":"01ffc9a7","symbol()":"95d89b41","totalBridgedSupply()":"b0b6f720","totalSupply()":"18160ddd","transfer(address,uint256)":"a9059cbb","transferFrom(address,address,uint256)":"23b872dd","unpause()":"3f4ba83a"},"id":1}