{
  "_format": "hh3-artifact-1",
  "contractName": "TipsyDotV3",
  "sourceName": "contracts/TipsyDotV3.sol",
  "abi": [
    {
      "inputs": [
        {
          "internalType": "address",
          "name": "_treasury",
          "type": "address"
        }
      ],
      "stateMutability": "nonpayable",
      "type": "constructor"
    },
    {
      "anonymous": false,
      "inputs": [
        {
          "indexed": true,
          "internalType": "uint256",
          "name": "campaignId",
          "type": "uint256"
        },
        {
          "indexed": false,
          "internalType": "string",
          "name": "name",
          "type": "string"
        },
        {
          "indexed": false,
          "internalType": "uint32",
          "name": "destParaId",
          "type": "uint32"
        },
        {
          "indexed": false,
          "internalType": "bytes32",
          "name": "sovereignAccount",
          "type": "bytes32"
        }
      ],
      "name": "CampaignCreated",
      "type": "event"
    },
    {
      "anonymous": false,
      "inputs": [
        {
          "indexed": false,
          "internalType": "uint256",
          "name": "amount",
          "type": "uint256"
        },
        {
          "indexed": false,
          "internalType": "uint256",
          "name": "estimatedDays",
          "type": "uint256"
        },
        {
          "indexed": false,
          "internalType": "string",
          "name": "message",
          "type": "string"
        }
      ],
      "name": "CoretimeFunded",
      "type": "event"
    },
    {
      "anonymous": false,
      "inputs": [
        {
          "indexed": true,
          "internalType": "uint256",
          "name": "campaignId",
          "type": "uint256"
        },
        {
          "indexed": false,
          "internalType": "bytes32",
          "name": "sovereignAccount",
          "type": "bytes32"
        },
        {
          "indexed": false,
          "internalType": "uint256",
          "name": "amount",
          "type": "uint256"
        },
        {
          "indexed": false,
          "internalType": "uint32",
          "name": "destParaId",
          "type": "uint32"
        }
      ],
      "name": "ForwardedToSovereign",
      "type": "event"
    },
    {
      "anonymous": false,
      "inputs": [
        {
          "indexed": true,
          "internalType": "address",
          "name": "to",
          "type": "address"
        },
        {
          "indexed": false,
          "internalType": "uint256",
          "name": "amount",
          "type": "uint256"
        },
        {
          "indexed": false,
          "internalType": "string",
          "name": "purpose",
          "type": "string"
        }
      ],
      "name": "ProtocolFeesWithdrawn",
      "type": "event"
    },
    {
      "anonymous": false,
      "inputs": [
        {
          "indexed": true,
          "internalType": "uint256",
          "name": "campaignId",
          "type": "uint256"
        },
        {
          "indexed": true,
          "internalType": "address",
          "name": "tipper",
          "type": "address"
        },
        {
          "indexed": false,
          "internalType": "uint256",
          "name": "grossAmount",
          "type": "uint256"
        },
        {
          "indexed": false,
          "internalType": "uint256",
          "name": "netAmount",
          "type": "uint256"
        },
        {
          "indexed": false,
          "internalType": "uint256",
          "name": "protocolFee",
          "type": "uint256"
        },
        {
          "indexed": false,
          "internalType": "string",
          "name": "memo",
          "type": "string"
        }
      ],
      "name": "Tipped",
      "type": "event"
    },
    {
      "inputs": [],
      "name": "ASSET_HUB_PARAID",
      "outputs": [
        {
          "internalType": "uint32",
          "name": "",
          "type": "uint32"
        }
      ],
      "stateMutability": "view",
      "type": "function"
    },
    {
      "inputs": [],
      "name": "BPS_DENOMINATOR",
      "outputs": [
        {
          "internalType": "uint256",
          "name": "",
          "type": "uint256"
        }
      ],
      "stateMutability": "view",
      "type": "function"
    },
    {
      "inputs": [],
      "name": "PROTOCOL_FEE_BPS",
      "outputs": [
        {
          "internalType": "uint256",
          "name": "",
          "type": "uint256"
        }
      ],
      "stateMutability": "view",
      "type": "function"
    },
    {
      "inputs": [],
      "name": "TIPSYDOT_PARAID",
      "outputs": [
        {
          "internalType": "uint32",
          "name": "",
          "type": "uint32"
        }
      ],
      "stateMutability": "view",
      "type": "function"
    },
    {
      "inputs": [],
      "name": "TIPSYDOT_SOVEREIGN",
      "outputs": [
        {
          "internalType": "bytes32",
          "name": "",
          "type": "bytes32"
        }
      ],
      "stateMutability": "view",
      "type": "function"
    },
    {
      "inputs": [],
      "name": "USDC_PRECOMPILE",
      "outputs": [
        {
          "internalType": "address",
          "name": "",
          "type": "address"
        }
      ],
      "stateMutability": "view",
      "type": "function"
    },
    {
      "inputs": [
        {
          "internalType": "uint256",
          "name": "_tipAmount",
          "type": "uint256"
        }
      ],
      "name": "calculateProtocolFee",
      "outputs": [
        {
          "internalType": "uint256",
          "name": "grossAmount",
          "type": "uint256"
        },
        {
          "internalType": "uint256",
          "name": "protocolFee",
          "type": "uint256"
        },
        {
          "internalType": "uint256",
          "name": "netAmount",
          "type": "uint256"
        }
      ],
      "stateMutability": "pure",
      "type": "function"
    },
    {
      "inputs": [
        {
          "internalType": "uint256",
          "name": "",
          "type": "uint256"
        },
        {
          "internalType": "uint256",
          "name": "",
          "type": "uint256"
        }
      ],
      "name": "campaignMemos",
      "outputs": [
        {
          "internalType": "string",
          "name": "",
          "type": "string"
        }
      ],
      "stateMutability": "view",
      "type": "function"
    },
    {
      "inputs": [
        {
          "internalType": "uint256",
          "name": "",
          "type": "uint256"
        }
      ],
      "name": "campaigns",
      "outputs": [
        {
          "internalType": "string",
          "name": "name",
          "type": "string"
        },
        {
          "internalType": "string",
          "name": "description",
          "type": "string"
        },
        {
          "internalType": "address",
          "name": "creator",
          "type": "address"
        },
        {
          "internalType": "uint32",
          "name": "destParaId",
          "type": "uint32"
        },
        {
          "internalType": "bytes32",
          "name": "sovereignAccount",
          "type": "bytes32"
        },
        {
          "internalType": "uint256",
          "name": "totalRaised",
          "type": "uint256"
        },
        {
          "internalType": "uint256",
          "name": "protocolFeesCollected",
          "type": "uint256"
        },
        {
          "internalType": "bool",
          "name": "forwarded",
          "type": "bool"
        },
        {
          "internalType": "uint256",
          "name": "createdAt",
          "type": "uint256"
        }
      ],
      "stateMutability": "view",
      "type": "function"
    },
    {
      "inputs": [
        {
          "internalType": "string",
          "name": "_name",
          "type": "string"
        },
        {
          "internalType": "string",
          "name": "_description",
          "type": "string"
        },
        {
          "internalType": "uint32",
          "name": "_destParaId",
          "type": "uint32"
        }
      ],
      "name": "createCampaign",
      "outputs": [
        {
          "internalType": "uint256",
          "name": "",
          "type": "uint256"
        }
      ],
      "stateMutability": "nonpayable",
      "type": "function"
    },
    {
      "inputs": [
        {
          "internalType": "uint256",
          "name": "_campaignId",
          "type": "uint256"
        }
      ],
      "name": "forwardToParachain",
      "outputs": [],
      "stateMutability": "nonpayable",
      "type": "function"
    },
    {
      "inputs": [
        {
          "internalType": "uint256",
          "name": "_amount",
          "type": "uint256"
        }
      ],
      "name": "fundCoretime",
      "outputs": [],
      "stateMutability": "nonpayable",
      "type": "function"
    },
    {
      "inputs": [
        {
          "internalType": "uint256",
          "name": "_campaignId",
          "type": "uint256"
        }
      ],
      "name": "getCampaignDetails",
      "outputs": [
        {
          "internalType": "string",
          "name": "name",
          "type": "string"
        },
        {
          "internalType": "string",
          "name": "description",
          "type": "string"
        },
        {
          "internalType": "address",
          "name": "creator",
          "type": "address"
        },
        {
          "internalType": "uint32",
          "name": "destParaId",
          "type": "uint32"
        },
        {
          "internalType": "bytes32",
          "name": "sovereignAccount",
          "type": "bytes32"
        },
        {
          "internalType": "uint256",
          "name": "totalRaised",
          "type": "uint256"
        },
        {
          "internalType": "uint256",
          "name": "protocolFeesCollected",
          "type": "uint256"
        },
        {
          "internalType": "bool",
          "name": "forwarded",
          "type": "bool"
        },
        {
          "internalType": "uint256",
          "name": "createdAt",
          "type": "uint256"
        }
      ],
      "stateMutability": "view",
      "type": "function"
    },
    {
      "inputs": [],
      "name": "getProtocolFeeStats",
      "outputs": [
        {
          "internalType": "uint256",
          "name": "totalCollected",
          "type": "uint256"
        },
        {
          "internalType": "uint256",
          "name": "currentBalance",
          "type": "uint256"
        },
        {
          "internalType": "uint256",
          "name": "feePercentage",
          "type": "uint256"
        },
        {
          "internalType": "uint256",
          "name": "estimatedCoretimeDays",
          "type": "uint256"
        }
      ],
      "stateMutability": "view",
      "type": "function"
    },
    {
      "inputs": [],
      "name": "nextCampaignId",
      "outputs": [
        {
          "internalType": "uint256",
          "name": "",
          "type": "uint256"
        }
      ],
      "stateMutability": "view",
      "type": "function"
    },
    {
      "inputs": [],
      "name": "owner",
      "outputs": [
        {
          "internalType": "address",
          "name": "",
          "type": "address"
        }
      ],
      "stateMutability": "view",
      "type": "function"
    },
    {
      "inputs": [],
      "name": "protocolFeesBalance",
      "outputs": [
        {
          "internalType": "uint256",
          "name": "",
          "type": "uint256"
        }
      ],
      "stateMutability": "view",
      "type": "function"
    },
    {
      "inputs": [
        {
          "internalType": "address",
          "name": "_treasury",
          "type": "address"
        }
      ],
      "name": "setTreasury",
      "outputs": [],
      "stateMutability": "nonpayable",
      "type": "function"
    },
    {
      "inputs": [
        {
          "internalType": "uint256",
          "name": "_campaignId",
          "type": "uint256"
        },
        {
          "internalType": "uint256",
          "name": "_amount",
          "type": "uint256"
        },
        {
          "internalType": "string",
          "name": "_memo",
          "type": "string"
        }
      ],
      "name": "tip",
      "outputs": [],
      "stateMutability": "nonpayable",
      "type": "function"
    },
    {
      "inputs": [
        {
          "internalType": "uint256",
          "name": "_campaignId",
          "type": "uint256"
        },
        {
          "internalType": "uint256",
          "name": "_amount",
          "type": "uint256"
        },
        {
          "internalType": "string",
          "name": "_memo",
          "type": "string"
        }
      ],
      "name": "tipAndForward",
      "outputs": [],
      "stateMutability": "nonpayable",
      "type": "function"
    },
    {
      "inputs": [],
      "name": "totalProtocolFeesCollected",
      "outputs": [
        {
          "internalType": "uint256",
          "name": "",
          "type": "uint256"
        }
      ],
      "stateMutability": "view",
      "type": "function"
    },
    {
      "inputs": [],
      "name": "treasury",
      "outputs": [
        {
          "internalType": "address",
          "name": "",
          "type": "address"
        }
      ],
      "stateMutability": "view",
      "type": "function"
    },
    {
      "inputs": [
        {
          "internalType": "uint256",
          "name": "_amount",
          "type": "uint256"
        }
      ],
      "name": "withdrawProtocolFees",
      "outputs": [],
      "stateMutability": "nonpayable",
      "type": "function"
    }
  ],
  "bytecode": "0x608060405234801562000010575f80fd5b50604051620029ae380380620029ae833981810160405281019062000036919062000122565b3360055f6101000a81548173ffffffffffffffffffffffffffffffffffffffff021916908373ffffffffffffffffffffffffffffffffffffffff1602179055508060065f6101000a81548173ffffffffffffffffffffffffffffffffffffffff021916908373ffffffffffffffffffffffffffffffffffffffff1602179055505062000152565b5f80fd5b5f73ffffffffffffffffffffffffffffffffffffffff82169050919050565b5f620000ec82620000c1565b9050919050565b620000fe81620000e0565b811462000109575f80fd5b50565b5f815190506200011c81620000f3565b92915050565b5f602082840312156200013a5762000139620000bd565b5b5f62000149848285016200010c565b91505092915050565b61284e80620001605f395ff3fe608060405234801561000f575f80fd5b506004361061014b575f3560e01c80637903a756116100c15780639c7c270c1161007a5780639c7c270c14610384578063bc935cf8146103b6578063be378228146103d4578063d993de62146103f2578063e1a452181461042a578063f0f44260146104485761014b565b80637903a756146102c25780637f22de67146102e05780638da5cb5b146102fc578063943fac3b1461031a578063998692ed1461034a5780639aa0a565146103665761014b565b80634ec2d5ff116101135780634ec2d5ff146102125780634f4491381461023057806361d027b31461024c57806362f432db1461026a5780636853fa9e146102865780637394e627146102a45761014b565b806305ad18d41461014f578063141961bc1461016b578063201f1fb8146101a3578063296a7017146101c1578063365a906c146101f1575b5f80fd5b61016960048036038101906101649190611805565b610464565b005b61018560048036038101906101809190611871565b61047d565b60405161019a999897969594939291906119b4565b60405180910390f35b6101ab61060d565b6040516101b89190611a4d565b60405180910390f35b6101db60048036038101906101d69190611a90565b610631565b6040516101e89190611b18565b60405180910390f35b6101f9610898565b6040516102099493929190611b31565b60405180910390f35b61021a6108c9565b6040516102279190611b74565b60405180910390f35b61024a60048036038101906102459190611871565b6108cf565b005b610254610ad1565b6040516102619190611b8d565b60405180910390f35b610284600480360381019061027f9190611871565b610af6565b005b61028e610cf0565b60405161029b9190611b18565b60405180910390f35b6102ac610cf6565b6040516102b99190611b18565b60405180910390f35b6102ca610cfc565b6040516102d79190611b18565b60405180910390f35b6102fa60048036038101906102f59190611871565b610d02565b005b610304610ee8565b6040516103119190611b8d565b60405180910390f35b610334600480360381019061032f9190611ba6565b610f0d565b6040516103419190611be4565b60405180910390f35b610364600480360381019061035f9190611805565b610fbe565b005b61036e6112a5565b60405161037b9190611b8d565b60405180910390f35b61039e60048036038101906103999190611871565b6112ab565b6040516103ad93929190611c04565b60405180910390f35b6103be6112e2565b6040516103cb9190611b74565b60405180910390f35b6103dc6112e8565b6040516103e99190611b18565b60405180910390f35b61040c60048036038101906104079190611871565b6112ed565b604051610421999897969594939291906119b4565b60405180910390f35b61043261153f565b60405161043f9190611b18565b60405180910390f35b610462600480360381019061045d9190611c63565b611545565b005b61046f838383610fbe565b61047883610af6565b505050565b5f602052805f5260405f205f91509050805f01805461049b90611cbb565b80601f01602080910402602001604051908101604052809291908181526020018280546104c790611cbb565b80156105125780601f106104e957610100808354040283529160200191610512565b820191905f5260205f20905b8154815290600101906020018083116104f557829003601f168201915b50505050509080600101805461052790611cbb565b80601f016020809104026020016040519081016040528092919081815260200182805461055390611cbb565b801561059e5780601f106105755761010080835404028352916020019161059e565b820191905f5260205f20905b81548152906001019060200180831161058157829003601f168201915b505050505090806002015f9054906101000a900473ffffffffffffffffffffffffffffffffffffffff16908060020160149054906101000a900463ffffffff1690806003015490806004015490806005015490806006015f9054906101000a900460ff16908060070154905089565b7f316d8e35c597a15d5416d00e9a5000d2b65bf217645fe9fae43d5ca4029887e481565b5f80845111610675576040517f08c379a000000000000000000000000000000000000000000000000000000000815260040161066c90611d35565b60405180910390fd5b5f8263ffffffff16116106bd576040517f08c379a00000000000000000000000000000000000000000000000000000000081526004016106b490611d9d565b60405180910390fd5b5f60025f8154809291906106d090611de8565b9190505590505f836040516020016106e89190611eb7565b6040516020818303038152906040528051906020012090506040518061012001604052808781526020018681526020013373ffffffffffffffffffffffffffffffffffffffff1681526020018563ffffffff1681526020018281526020015f81526020015f81526020015f15158152602001428152505f808481526020019081526020015f205f820151815f0190816107819190612079565b5060208201518160010190816107979190612079565b506040820151816002015f6101000a81548173ffffffffffffffffffffffffffffffffffffffff021916908373ffffffffffffffffffffffffffffffffffffffff16021790555060608201518160020160146101000a81548163ffffffff021916908363ffffffff1602179055506080820151816003015560a0820151816004015560c0820151816005015560e0820151816006015f6101000a81548160ff0219169083151502179055506101008201518160070155905050817f015160b988e6276f60217d1285acce63ffe2880e7e5baa7cca96fd2aeb62032b87868460405161088493929190612148565b60405180910390a281925050509392505050565b5f805f805f6305f5e1006004546108af91906121b1565b9050600354600454600a8394509450945094505090919293565b610bb881565b60055f9054906101000a900473ffffffffffffffffffffffffffffffffffffffff1673ffffffffffffffffffffffffffffffffffffffff163373ffffffffffffffffffffffffffffffffffffffff161461095e576040517f08c379a00000000000000000000000000000000000000000000000000000000081526004016109559061222b565b60405180910390fd5b6004548111156109a3576040517f08c379a000000000000000000000000000000000000000000000000000000000815260040161099a90612293565b60405180910390fd5b8060045f8282546109b491906122b1565b925050819055505f61080390508073ffffffffffffffffffffffffffffffffffffffff1663a9059cbb60065f9054906101000a900473ffffffffffffffffffffffffffffffffffffffff16846040518363ffffffff1660e01b8152600401610a1d9291906122e4565b6020604051808303815f875af1158015610a39573d5f803e3d5ffd5b505050506040513d601f19601f82011682018060405250810190610a5d9190612335565b5060065f9054906101000a900473ffffffffffffffffffffffffffffffffffffffff1673ffffffffffffffffffffffffffffffffffffffff167f35dcb90150202780190676130d078bba448b2590690a9f8656691da31e669df083604051610ac591906123aa565b60405180910390a25050565b60065f9054906101000a900473ffffffffffffffffffffffffffffffffffffffff1681565b5f805f8381526020019081526020015f2090505f816007015411610b4f576040517f08c379a0000000000000000000000000000000000000000000000000000000008152600401610b4690612420565b60405180910390fd5b806006015f9054906101000a900460ff1615610ba0576040517f08c379a0000000000000000000000000000000000000000000000000000000008152600401610b9790612488565b60405180910390fd5b5f816004015411610be6576040517f08c379a0000000000000000000000000000000000000000000000000000000008152600401610bdd906124f0565b60405180910390fd5b6001816006015f6101000a81548160ff0219169083151502179055505f61080390505f82600301545f1c90508173ffffffffffffffffffffffffffffffffffffffff1663a9059cbb8285600401546040518363ffffffff1660e01b8152600401610c519291906122e4565b6020604051808303815f875af1158015610c6d573d5f803e3d5ffd5b505050506040513d601f19601f82011682018060405250810190610c919190612335565b50837f62a546bef8623424f17ea8250afdad9de96db6012047171c949929499692a5b4846003015485600401548660020160149054906101000a900463ffffffff16604051610ce29392919061250e565b60405180910390a250505050565b60045481565b60035481565b60025481565b60055f9054906101000a900473ffffffffffffffffffffffffffffffffffffffff1673ffffffffffffffffffffffffffffffffffffffff163373ffffffffffffffffffffffffffffffffffffffff1614610d91576040517f08c379a0000000000000000000000000000000000000000000000000000000008152600401610d889061222b565b60405180910390fd5b600454811115610dd6576040517f08c379a0000000000000000000000000000000000000000000000000000000008152600401610dcd90612293565b60405180910390fd5b8060045f828254610de791906122b1565b925050819055505f61080390505f7f316d8e35c597a15d5416d00e9a5000d2b65bf217645fe9fae43d5ca4029887e45f1c90508173ffffffffffffffffffffffffffffffffffffffff1663a9059cbb82856040518363ffffffff1660e01b8152600401610e559291906122e4565b6020604051808303815f875af1158015610e71573d5f803e3d5ffd5b505050506040513d601f19601f82011682018060405250810190610e959190612335565b505f6305f5e10084610ea791906121b1565b90507f5ccfbabfc35e2b06fa8b5ae83116bbca084c56cc10ff12bbc6212a5746d012cf8482604051610eda9291906125b3565b60405180910390a150505050565b60055f9054906101000a900473ffffffffffffffffffffffffffffffffffffffff1681565b6001602052815f5260405f208181548110610f26575f80fd5b905f5260205f20015f91509150508054610f3f90611cbb565b80601f0160208091040260200160405190810160405280929190818152602001828054610f6b90611cbb565b8015610fb65780601f10610f8d57610100808354040283529160200191610fb6565b820191905f5260205f20905b815481529060010190602001808311610f9957829003601f168201915b505050505081565b5f805f8581526020019081526020015f2090505f816007015411611017576040517f08c379a000000000000000000000000000000000000000000000000000000000815260040161100e90612420565b60405180910390fd5b806006015f9054906101000a900460ff1615611068576040517f08c379a000000000000000000000000000000000000000000000000000000000815260040161105f90612488565b60405180910390fd5b5f83116110aa576040517f08c379a00000000000000000000000000000000000000000000000000000000081526004016110a190612637565b60405180910390fd5b5f612710600a856110bb9190612655565b6110c591906121b1565b90505f81856110d491906122b1565b90505f61080390508073ffffffffffffffffffffffffffffffffffffffff166323b872dd3330896040518463ffffffff1660e01b815260040161111993929190612696565b6020604051808303815f875af1158015611135573d5f803e3d5ffd5b505050506040513d601f19601f820116820180604052508101906111599190612335565b611198576040517f08c379a000000000000000000000000000000000000000000000000000000000815260040161118f90612715565b60405180910390fd5b81846004015f8282546111ab9190612733565b9250508190555082846005015f8282546111c59190612733565b925050819055508260045f8282546111dd9190612733565b925050819055508260035f8282546111f59190612733565b925050819055505f855111156112475760015f8881526020019081526020015f2085908060018154018082558091505060019003905f5260205f20015f9091909190915090816112459190612079565b505b3373ffffffffffffffffffffffffffffffffffffffff16877f7f6739fc162ffe37cd782de6719ba7a3149f9c2f890f6807a4c0a113ab03ee658885878a6040516112949493929190612766565b60405180910390a350505050505050565b61080381565b5f805f612710600a856112be9190612655565b6112c891906121b1565b915081846112d691906122b1565b90508392509193909250565b6103e881565b600a81565b6060805f805f805f805f805f808c81526020019081526020015f20604051806101200160405290815f8201805461132390611cbb565b80601f016020809104026020016040519081016040528092919081815260200182805461134f90611cbb565b801561139a5780601f106113715761010080835404028352916020019161139a565b820191905f5260205f20905b81548152906001019060200180831161137d57829003601f168201915b505050505081526020016001820180546113b390611cbb565b80601f01602080910402602001604051908101604052809291908181526020018280546113df90611cbb565b801561142a5780601f106114015761010080835404028352916020019161142a565b820191905f5260205f20905b81548152906001019060200180831161140d57829003601f168201915b50505050508152602001600282015f9054906101000a900473ffffffffffffffffffffffffffffffffffffffff1673ffffffffffffffffffffffffffffffffffffffff1673ffffffffffffffffffffffffffffffffffffffff1681526020016002820160149054906101000a900463ffffffff1663ffffffff1663ffffffff168152602001600382015481526020016004820154815260200160058201548152602001600682015f9054906101000a900460ff161515151581526020016007820154815250509050805f015181602001518260400151836060015184608001518560a001518660c001518760e00151886101000151995099509950995099509950995099509950509193959799909294969850565b61271081565b60055f9054906101000a900473ffffffffffffffffffffffffffffffffffffffff1673ffffffffffffffffffffffffffffffffffffffff163373ffffffffffffffffffffffffffffffffffffffff16146115d4576040517f08c379a00000000000000000000000000000000000000000000000000000000081526004016115cb9061222b565b60405180910390fd5b5f73ffffffffffffffffffffffffffffffffffffffff168173ffffffffffffffffffffffffffffffffffffffff1603611642576040517f08c379a0000000000000000000000000000000000000000000000000000000008152600401611639906127fa565b60405180910390fd5b8060065f6101000a81548173ffffffffffffffffffffffffffffffffffffffff021916908373ffffffffffffffffffffffffffffffffffffffff16021790555050565b5f604051905090565b5f80fd5b5f80fd5b5f819050919050565b6116a881611696565b81146116b2575f80fd5b50565b5f813590506116c38161169f565b92915050565b5f80fd5b5f80fd5b5f601f19601f8301169050919050565b7f4e487b71000000000000000000000000000000000000000000000000000000005f52604160045260245ffd5b611717826116d1565b810181811067ffffffffffffffff82111715611736576117356116e1565b5b80604052505050565b5f611748611685565b9050611754828261170e565b919050565b5f67ffffffffffffffff821115611773576117726116e1565b5b61177c826116d1565b9050602081019050919050565b828183375f83830152505050565b5f6117a96117a484611759565b61173f565b9050828152602081018484840111156117c5576117c46116cd565b5b6117d0848285611789565b509392505050565b5f82601f8301126117ec576117eb6116c9565b5b81356117fc848260208601611797565b91505092915050565b5f805f6060848603121561181c5761181b61168e565b5b5f611829868287016116b5565b935050602061183a868287016116b5565b925050604084013567ffffffffffffffff81111561185b5761185a611692565b5b611867868287016117d8565b9150509250925092565b5f602082840312156118865761188561168e565b5b5f611893848285016116b5565b91505092915050565b5f81519050919050565b5f82825260208201905092915050565b5f5b838110156118d35780820151818401526020810190506118b8565b5f8484015250505050565b5f6118e88261189c565b6118f281856118a6565b93506119028185602086016118b6565b61190b816116d1565b840191505092915050565b5f73ffffffffffffffffffffffffffffffffffffffff82169050919050565b5f61193f82611916565b9050919050565b61194f81611935565b82525050565b5f63ffffffff82169050919050565b61196d81611955565b82525050565b5f819050919050565b61198581611973565b82525050565b61199481611696565b82525050565b5f8115159050919050565b6119ae8161199a565b82525050565b5f610120820190508181035f8301526119cd818c6118de565b905081810360208301526119e1818b6118de565b90506119f0604083018a611946565b6119fd6060830189611964565b611a0a608083018861197c565b611a1760a083018761198b565b611a2460c083018661198b565b611a3160e08301856119a5565b611a3f61010083018461198b565b9a9950505050505050505050565b5f602082019050611a605f83018461197c565b92915050565b611a6f81611955565b8114611a79575f80fd5b50565b5f81359050611a8a81611a66565b92915050565b5f805f60608486031215611aa757611aa661168e565b5b5f84013567ffffffffffffffff811115611ac457611ac3611692565b5b611ad0868287016117d8565b935050602084013567ffffffffffffffff811115611af157611af0611692565b5b611afd868287016117d8565b9250506040611b0e86828701611a7c565b9150509250925092565b5f602082019050611b2b5f83018461198b565b92915050565b5f608082019050611b445f83018761198b565b611b51602083018661198b565b611b5e604083018561198b565b611b6b606083018461198b565b95945050505050565b5f602082019050611b875f830184611964565b92915050565b5f602082019050611ba05f830184611946565b92915050565b5f8060408385031215611bbc57611bbb61168e565b5b5f611bc9858286016116b5565b9250506020611bda858286016116b5565b9150509250929050565b5f6020820190508181035f830152611bfc81846118de565b905092915050565b5f606082019050611c175f83018661198b565b611c24602083018561198b565b611c31604083018461198b565b949350505050565b611c4281611935565b8114611c4c575f80fd5b50565b5f81359050611c5d81611c39565b92915050565b5f60208284031215611c7857611c7761168e565b5b5f611c8584828501611c4f565b91505092915050565b7f4e487b71000000000000000000000000000000000000000000000000000000005f52602260045260245ffd5b5f6002820490506001821680611cd257607f821691505b602082108103611ce557611ce4611c8e565b5b50919050565b7f4e616d65207265717569726564000000000000000000000000000000000000005f82015250565b5f611d1f600d836118a6565b9150611d2a82611ceb565b602082019050919050565b5f6020820190508181035f830152611d4c81611d13565b9050919050565b7f496e76616c69642070617261636861696e2049440000000000000000000000005f82015250565b5f611d876014836118a6565b9150611d9282611d53565b602082019050919050565b5f6020820190508181035f830152611db481611d7b565b9050919050565b7f4e487b71000000000000000000000000000000000000000000000000000000005f52601160045260245ffd5b5f611df282611696565b91507fffffffffffffffffffffffffffffffffffffffffffffffffffffffffffffffff8203611e2457611e23611dbb565b5b600182019050919050565b5f81905092915050565b7f70617261000000000000000000000000000000000000000000000000000000005f82015250565b5f611e6d600483611e2f565b9150611e7882611e39565b600482019050919050565b5f8160e01b9050919050565b5f611e9982611e83565b9050919050565b611eb1611eac82611955565b611e8f565b82525050565b5f611ec182611e61565b9150611ecd8284611ea0565b60048201915081905092915050565b5f819050815f5260205f209050919050565b5f6020601f8301049050919050565b5f82821b905092915050565b5f60088302611f387fffffffffffffffffffffffffffffffffffffffffffffffffffffffffffffffff82611efd565b611f428683611efd565b95508019841693508086168417925050509392505050565b5f819050919050565b5f611f7d611f78611f7384611696565b611f5a565b611696565b9050919050565b5f819050919050565b611f9683611f63565b611faa611fa282611f84565b848454611f09565b825550505050565b5f90565b611fbe611fb2565b611fc9818484611f8d565b505050565b5b81811015611fec57611fe15f82611fb6565b600181019050611fcf565b5050565b601f8211156120315761200281611edc565b61200b84611eee565b8101602085101561201a578190505b61202e61202685611eee565b830182611fce565b50505b505050565b5f82821c905092915050565b5f6120515f1984600802612036565b1980831691505092915050565b5f6120698383612042565b9150826002028217905092915050565b6120828261189c565b67ffffffffffffffff81111561209b5761209a6116e1565b5b6120a58254611cbb565b6120b0828285611ff0565b5f60209050601f8311600181146120e1575f84156120cf578287015190505b6120d9858261205e565b865550612140565b601f1984166120ef86611edc565b5f5b82811015612116578489015182556001820191506020850194506020810190506120f1565b86831015612133578489015161212f601f891682612042565b8355505b6001600288020188555050505b505050505050565b5f6060820190508181035f83015261216081866118de565b905061216f6020830185611964565b61217c604083018461197c565b949350505050565b7f4e487b71000000000000000000000000000000000000000000000000000000005f52601260045260245ffd5b5f6121bb82611696565b91506121c683611696565b9250826121d6576121d5612184565b5b828204905092915050565b7f4f6e6c79206f776e6572000000000000000000000000000000000000000000005f82015250565b5f612215600a836118a6565b9150612220826121e1565b602082019050919050565b5f6020820190508181035f83015261224281612209565b9050919050565b7f496e73756666696369656e742070726f746f636f6c20666565730000000000005f82015250565b5f61227d601a836118a6565b915061228882612249565b602082019050919050565b5f6020820190508181035f8301526122aa81612271565b9050919050565b5f6122bb82611696565b91506122c683611696565b92508282039050818111156122de576122dd611dbb565b5b92915050565b5f6040820190506122f75f830185611946565b612304602083018461198b565b9392505050565b6123148161199a565b811461231e575f80fd5b50565b5f8151905061232f8161230b565b92915050565b5f6020828403121561234a5761234961168e565b5b5f61235784828501612321565b91505092915050565b7f436f726574696d652066756e64696e67000000000000000000000000000000005f82015250565b5f6123946010836118a6565b915061239f82612360565b602082019050919050565b5f6040820190506123bd5f83018461198b565b81810360208301526123ce81612388565b905092915050565b7f43616d706169676e206e6f7420666f756e6400000000000000000000000000005f82015250565b5f61240a6012836118a6565b9150612415826123d6565b602082019050919050565b5f6020820190508181035f830152612437816123fe565b9050919050565b7f416c726561647920666f727761726465640000000000000000000000000000005f82015250565b5f6124726011836118a6565b915061247d8261243e565b602082019050919050565b5f6020820190508181035f83015261249f81612466565b9050919050565b7f4e6f7468696e6720746f20666f727761726400000000000000000000000000005f82015250565b5f6124da6012836118a6565b91506124e5826124a6565b602082019050919050565b5f6020820190508181035f830152612507816124ce565b9050919050565b5f6060820190506125215f83018661197c565b61252e602083018561198b565b61253b6040830184611964565b949350505050565b7f50726f746f636f6c20666565732066756e64696e672070617261636861696e205f8201527f636f726574696d65000000000000000000000000000000000000000000000000602082015250565b5f61259d6028836118a6565b91506125a882612543565b604082019050919050565b5f6060820190506125c65f83018561198b565b6125d3602083018461198b565b81810360408301526125e481612591565b90509392505050565b7f416d6f756e74206d757374206265203e203000000000000000000000000000005f82015250565b5f6126216012836118a6565b915061262c826125ed565b602082019050919050565b5f6020820190508181035f83015261264e81612615565b9050919050565b5f61265f82611696565b915061266a83611696565b925082820261267881611696565b9150828204841483151761268f5761268e611dbb565b5b5092915050565b5f6060820190506126a95f830186611946565b6126b66020830185611946565b6126c3604083018461198b565b949350505050565b7f55534443207472616e73666572206661696c65640000000000000000000000005f82015250565b5f6126ff6014836118a6565b915061270a826126cb565b602082019050919050565b5f6020820190508181035f83015261272c816126f3565b9050919050565b5f61273d82611696565b915061274883611696565b92508282019050808211156127605761275f611dbb565b5b92915050565b5f6080820190506127795f83018761198b565b612786602083018661198b565b612793604083018561198b565b81810360608301526127a581846118de565b905095945050505050565b7f496e76616c6964207472656173757279000000000000000000000000000000005f82015250565b5f6127e46010836118a6565b91506127ef826127b0565b602082019050919050565b5f6020820190508181035f830152612811816127d8565b905091905056fea2646970667358221220edbf39a11f12b4f0849e6f32d495798e42782e727dab92b8381e73e2ffb2ddbe64736f6c63430008140033",
  "linkReferences": {},
  "deployedLinkReferences": {},
  "immutableReferences": {},
  "inputSourceName": "project/contracts/TipsyDotV3.sol",
  "buildInfoId": "solc-0_8_20-5a719b65af19adfec083144feb8c66601762d613"
}