{"abi":[{"type":"constructor","inputs":[{"name":"_usdp","type":"address","internalType":"address"}],"stateMutability":"nonpayable"},{"type":"function","name":"ASSETHUB_PARAID","inputs":[],"outputs":[{"name":"","type":"uint32","internalType":"uint32"}],"stateMutability":"view"},{"type":"function","name":"BPS_DENOMINATOR","inputs":[],"outputs":[{"name":"","type":"uint256","internalType":"uint256"}],"stateMutability":"view"},{"type":"function","name":"PASSETHUB_PARAID","inputs":[],"outputs":[{"name":"","type":"uint32","internalType":"uint32"}],"stateMutability":"view"},{"type":"function","name":"bridgeFeesBps","inputs":[],"outputs":[{"name":"","type":"uint256","internalType":"uint256"}],"stateMutability":"view"},{"type":"function","name":"bridgeToParachain","inputs":[{"name":"amount","type":"uint256","internalType":"uint256"},{"name":"destParaId","type":"uint32","internalType":"uint32"},{"name":"recipientSubstrate","type":"bytes32","internalType":"bytes32"}],"outputs":[{"name":"messageHash","type":"bytes32","internalType":"bytes32"}],"stateMutability":"nonpayable"},{"type":"function","name":"calculateBridgeFee","inputs":[{"name":"amount","type":"uint256","internalType":"uint256"}],"outputs":[{"name":"fee","type":"uint256","internalType":"uint256"},{"name":"netAmount","type":"uint256","internalType":"uint256"}],"stateMutability":"view"},{"type":"function","name":"collectedFees","inputs":[],"outputs":[{"name":"","type":"uint256","internalType":"uint256"}],"stateMutability":"view"},{"type":"function","name":"getParachainStats","inputs":[{"name":"paraId","type":"uint32","internalType":"uint32"}],"outputs":[{"name":"isActive","type":"bool","internalType":"bool"},{"name":"reserveBalance","type":"uint256","internalType":"uint256"},{"name":"totalBridged","type":"uint256","internalType":"uint256"},{"name":"totalReceived","type":"uint256","internalType":"uint256"}],"stateMutability":"view"},{"type":"function","name":"getSupportedParachains","inputs":[],"outputs":[{"name":"","type":"uint32[]","internalType":"uint32[]"}],"stateMutability":"view"},{"type":"function","name":"mapAddress","inputs":[{"name":"substrateAddress","type":"bytes32","internalType":"bytes32"}],"outputs":[],"stateMutability":"nonpayable"},{"type":"function","name":"owner","inputs":[],"outputs":[{"name":"","type":"address","internalType":"address"}],"stateMutability":"view"},{"type":"function","name":"parachainConfigs","inputs":[{"name":"","type":"uint32","internalType":"uint32"}],"outputs":[{"name":"isActive","type":"bool","internalType":"bool"},{"name":"sovereignAccount","type":"bytes32","internalType":"bytes32"},{"name":"reserveBalance","type":"uint256","internalType":"uint256"},{"name":"totalBridged","type":"uint256","internalType":"uint256"},{"name":"totalReceived","type":"uint256","internalType":"uint256"}],"stateMutability":"view"},{"type":"function","name":"processIncomingXCM","inputs":[{"name":"sourceParaId","type":"uint32","internalType":"uint32"},{"name":"senderSubstrate","type":"bytes32","internalType":"bytes32"},{"name":"recipientEvm","type":"address","internalType":"address"},{"name":"amount","type":"uint256","internalType":"uint256"},{"name":"xcmProof","type":"bytes32","internalType":"bytes32"}],"outputs":[],"stateMutability":"nonpayable"},{"type":"function","name":"registerParachain","inputs":[{"name":"paraId","type":"uint32","internalType":"uint32"},{"name":"sovereignAccount","type":"bytes32","internalType":"bytes32"}],"outputs":[],"stateMutability":"nonpayable"},{"type":"function","name":"renounceOwnership","inputs":[],"outputs":[],"stateMutability":"nonpayable"},{"type":"function","name":"setBridgeFee","inputs":[{"name":"_feesBps","type":"uint256","internalType":"uint256"}],"outputs":[],"stateMutability":"nonpayable"},{"type":"function","name":"substrateToEvm","inputs":[{"name":"","type":"bytes32","internalType":"bytes32"}],"outputs":[{"name":"","type":"address","internalType":"address"}],"stateMutability":"view"},{"type":"function","name":"supportedParachains","inputs":[{"name":"","type":"uint256","internalType":"uint256"}],"outputs":[{"name":"","type":"uint32","internalType":"uint32"}],"stateMutability":"view"},{"type":"function","name":"totalReservedBalance","inputs":[],"outputs":[{"name":"","type":"uint256","internalType":"uint256"}],"stateMutability":"view"},{"type":"function","name":"transferOwnership","inputs":[{"name":"newOwner","type":"address","internalType":"address"}],"outputs":[],"stateMutability":"nonpayable"},{"type":"function","name":"usdp","inputs":[],"outputs":[{"name":"","type":"address","internalType":"contract USDP"}],"stateMutability":"view"},{"type":"function","name":"withdrawFees","inputs":[],"outputs":[],"stateMutability":"nonpayable"},{"type":"function","name":"xcmMessages","inputs":[{"name":"","type":"bytes32","internalType":"bytes32"}],"outputs":[{"name":"sourceParaId","type":"uint32","internalType":"uint32"},{"name":"destParaId","type":"uint32","internalType":"uint32"},{"name":"sender","type":"bytes32","internalType":"bytes32"},{"name":"recipient","type":"bytes32","internalType":"bytes32"},{"name":"amount","type":"uint256","internalType":"uint256"},{"name":"fee","type":"uint256","internalType":"uint256"},{"name":"messageHash","type":"bytes32","internalType":"bytes32"},{"name":"timestamp","type":"uint256","internalType":"uint256"},{"name":"processed","type":"bool","internalType":"bool"}],"stateMutability":"view"},{"type":"event","name":"AddressMapped","inputs":[{"name":"substrateAddress","type":"bytes32","indexed":true,"internalType":"bytes32"},{"name":"evmAddress","type":"address","indexed":false,"internalType":"address"}],"anonymous":false},{"type":"event","name":"OwnershipTransferred","inputs":[{"name":"previousOwner","type":"address","indexed":true,"internalType":"address"},{"name":"newOwner","type":"address","indexed":true,"internalType":"address"}],"anonymous":false},{"type":"event","name":"ParachainRegistered","inputs":[{"name":"paraId","type":"uint32","indexed":true,"internalType":"uint32"},{"name":"sovereignAccount","type":"bytes32","indexed":false,"internalType":"bytes32"}],"anonymous":false},{"type":"event","name":"ReserveDeposited","inputs":[{"name":"paraId","type":"uint32","indexed":true,"internalType":"uint32"},{"name":"amount","type":"uint256","indexed":false,"internalType":"uint256"}],"anonymous":false},{"type":"event","name":"ReserveWithdrawn","inputs":[{"name":"paraId","type":"uint32","indexed":true,"internalType":"uint32"},{"name":"amount","type":"uint256","indexed":false,"internalType":"uint256"}],"anonymous":false},{"type":"event","name":"XCMReceived","inputs":[{"name":"messageHash","type":"bytes32","indexed":true,"internalType":"bytes32"},{"name":"sourceParaId","type":"uint32","indexed":false,"internalType":"uint32"},{"name":"amount","type":"uint256","indexed":false,"internalType":"uint256"}],"anonymous":false},{"type":"event","name":"XCMSent","inputs":[{"name":"messageHash","type":"bytes32","indexed":true,"internalType":"bytes32"},{"name":"destParaId","type":"uint32","indexed":false,"internalType":"uint32"},{"name":"amount","type":"uint256","indexed":false,"internalType":"uint256"}],"anonymous":false},{"type":"error","name":"OwnableInvalidOwner","inputs":[{"name":"owner","type":"address","internalType":"address"}]},{"type":"error","name":"OwnableUnauthorizedAccount","inputs":[{"name":"account","type":"address","internalType":"address"}]},{"type":"error","name":"ReentrancyGuardReentrantCall","inputs":[]}],"bytecode":{"object":"0x60a0604052600a600755348015610014575f80fd5b506040516115313803806115318339810160408190526100339161011d565b338061005957604051631e4fbdf760e01b81525f60048201526024015b60405180910390fd5b610062816100ce565b50600180556001600160a01b0381166100bd5760405162461bcd60e51b815260206004820152601460248201527f496e76616c6964205553445020616464726573730000000000000000000000006044820152606401610050565b6001600160a01b031660805261014a565b5f80546001600160a01b038381166001600160a01b0319831681178455604051919092169283917f8be0079c531659141344cd1fd0a4f28419497f9722a3daafe3b4186f6b6457e09190a35050565b5f6020828403121561012d575f80fd5b81516001600160a01b0381168114610143575f80fd5b9392505050565b6080516113ba6101775f395f818161021601528181610612015281816107f40152610d1401526113ba5ff3fe608060405234801561000f575f80fd5b5060043610610148575f3560e01c80639c871b8a116100bf578063ca2387c111610079578063ca2387c114610433578063e1a452181461043c578063ef3ae42114610445578063f2fde38b1461045a578063f58dfce91461046d578063f88dcecc14610476575f80fd5b80639c871b8a1461029d5780639e61f2a31461032d578063a89a73e014610340578063ade1af12146103ef578063b618036314610417578063c34f1d3f1461042a575f80fd5b8063715018a611610110578063715018a61461020957806374e6076c146102115780638da5cb5b146102505780639003adfe1461026057806391a77fd214610277578063998cdf831461028a575f80fd5b8063103084cc1461014c57806346daedf414610161578063476343ee1461018457806366f83e511461018c57806369f26cca1461019f575b5f80fd5b61015f61015a3660046111b9565b61049e565b005b61016a61045781565b60405163ffffffff90911681526020015b60405180910390f35b61015f6107da565b61015f61019a366004611203565b6108d9565b6101df6101ad36600461121a565b600260208190525f91825260409091208054600182015492820154600383015460049093015460ff9092169392909185565b6040805195151586526020860194909452928401919091526060830152608082015260a00161017b565b61015f6109d4565b6102387f000000000000000000000000000000000000000000000000000000000000000081565b6040516001600160a01b03909116815260200161017b565b5f546001600160a01b0316610238565b61026960085481565b60405190815260200161017b565b61015f610285366004611233565b6109e7565b61015f610298366004611203565b610bce565b61030b6102ab36600461121a565b63ffffffff165f90815260026020818152604092839020835160a081018552815460ff1615158082526001830154938201939093529281015493830184905260038101546060840181905260049091015460809093018390529093909190565b604080519415158552602085019390935291830152606082015260800161017b565b61026961033b36600461125b565b610c1b565b6103a161034e366004611203565b600360208190525f91825260409091208054600182015460028301549383015460048401546005850154600686015460079096015463ffffffff8087169864010000000090970416969495949060ff1689565b6040805163ffffffff9a8b1681529990981660208a0152968801959095526060870193909352608086019190915260a085015260c084015260e083015215156101008201526101200161017b565b6104026103fd366004611203565b610fc4565b6040805192835260208301919091520161017b565b61016a610425366004611203565b610ff4565b61026960065481565b61026960075481565b61026961271081565b61044d61102b565b60405161017b919061128d565b61015f6104683660046112d6565b6110ac565b61016a6103e881565b610238610484366004611203565b60046020525f90815260409020546001600160a01b031681565b6104a66110e6565b6104ae611112565b63ffffffff85165f9081526002602052604090205460ff166105115760405162461bcd60e51b815260206004820152601760248201527614185c9858da185a5b881b9bdd081cdd5c1c1bdc9d1959604a1b60448201526064015b60405180910390fd5b5f8181526003602052604090206007015460ff16156105665760405162461bcd60e51b8152602060048201526011602482015270105b1c9958591e481c1c9bd8d95cdcd959607a1b6044820152606401610508565b5f82116105a65760405162461bcd60e51b815260206004820152600e60248201526d125b9d985b1a5908185b5bdd5b9d60921b6044820152606401610508565b5f818152600360209081526040808320600701805460ff1916600117905563ffffffff881683526002909152812060040180548492906105e7908490611303565b90915550506040516340c10f1960e01b81526001600160a01b038481166004830152602482018490527f000000000000000000000000000000000000000000000000000000000000000016906340c10f19906044015f604051808303815f87803b158015610653575f80fd5b505af1158015610665573d5f803e3d5ffd5b505050506040518061012001604052808663ffffffff16815260200161045763ffffffff168152602001858152602001846001600160a01b03165f1b81526020018381526020015f81526020018281526020014281526020016001151581525060035f8381526020019081526020015f205f820151815f015f6101000a81548163ffffffff021916908363ffffffff1602179055506020820151815f0160046101000a81548163ffffffff021916908363ffffffff16021790555060408201518160010155606082015181600201556080820151816003015560a0820151816004015560c0820151816005015560e08201518160060155610100820151816007015f6101000a81548160ff021916908315150217905550905050807ff47088589a57c5314233a89d9feb8e8d0fe035ef31378c36a809428b1b2f743886846040516107c292919063ffffffff929092168252602082015260400190565b60405180910390a26107d360018055565b5050505050565b6107e26110e6565b600880545f9091556001600160a01b037f00000000000000000000000000000000000000000000000000000000000000001663a9059cbb61082a5f546001600160a01b031690565b6040516001600160e01b031960e084901b1681526001600160a01b039091166004820152602481018490526044016020604051808303815f875af1158015610874573d5f803e3d5ffd5b505050506040513d601f19601f82011682018060405250810190610898919061131c565b6108d65760405162461bcd60e51b815260206004820152600f60248201526e151c985b9cd9995c8819985a5b1959608a1b6044820152606401610508565b50565b806109265760405162461bcd60e51b815260206004820152601960248201527f496e76616c6964207375627374726174652061646472657373000000000000006044820152606401610508565b5f818152600460205260409020546001600160a01b03161561097b5760405162461bcd60e51b815260206004820152600e60248201526d105b1c9958591e481b585c1c195960921b6044820152606401610508565b5f8181526004602090815260409182902080546001600160a01b03191633908117909155915191825282917fcc724f27ab24b39f33b018cd5afb5cccbfa911d55983cef5e8ceffb7f6d5224c910160405180910390a250565b6109dc6110e6565b6109e55f61113c565b565b6109ef6110e6565b5f8263ffffffff1611610a3b5760405162461bcd60e51b8152602060048201526014602482015273125b9d985b1a59081c185c9858da185a5b88125160621b6044820152606401610508565b80610a885760405162461bcd60e51b815260206004820152601960248201527f496e76616c696420736f7665726569676e206163636f756e74000000000000006044820152606401610508565b63ffffffff82165f9081526002602052604090205460ff1615610ae25760405162461bcd60e51b8152602060048201526012602482015271105b1c9958591e481c9959da5cdd195c995960721b6044820152606401610508565b6040805160a081018252600180825260208083018581525f848601818152606086018281526080870183815263ffffffff8b811680865260028089528b87209a518b5460ff1916901515178b5596518a8a015593519589019590955590516003880155516004968701556005805495860181559091527f036b6384b5eca791c62761152d0c79bb0604c104a5fb6f4eb0703f3154bb3db06008850401805460079095169095026101000a918202199093169083021790925591518381527fb91d05955e628424475a157ee2899f8ffac4cce8028a85abb627089ada61f948910160405180910390a25050565b610bd66110e6565b6064811115610c165760405162461bcd60e51b815260206004820152600c60248201526b08ccaca40e8dede40d0d2ced60a31b6044820152606401610508565b600755565b5f610c24611112565b63ffffffff83165f9081526002602052604090205460ff16610c825760405162461bcd60e51b815260206004820152601760248201527614185c9858da185a5b881b9bdd081cdd5c1c1bdc9d1959604a1b6044820152606401610508565b5f8411610cc65760405162461bcd60e51b81526020600482015260126024820152710416d6f756e74206d757374206265203e20360741b6044820152606401610508565b5f61271060075486610cd8919061133b565b610ce29190611352565b90505f610cef8287611371565b6040516323b872dd60e01b8152336004820152306024820152604481018890529091507f00000000000000000000000000000000000000000000000000000000000000006001600160a01b0316906323b872dd906064016020604051808303815f875af1158015610d62573d5f803e3d5ffd5b505050506040513d601f19601f82011682018060405250810190610d86919061131c565b610dc45760405162461bcd60e51b815260206004820152600f60248201526e151c985b9cd9995c8819985a5b1959608a1b6044820152606401610508565b8160085f828254610dd59190611303565b909155505063ffffffff85165f9081526002602081905260408220018054839290610e01908490611303565b909155505063ffffffff85165f9081526002602052604081206003018054839290610e2d908490611303565b925050819055508060065f828254610e459190611303565b9091555050604080514660208201526001600160e01b031960e088901b16918101919091526bffffffffffffffffffffffff193360601b166044820152605881018590526078810182905242609882015260b80160408051601f19818403018152828252805160209182012061012084018352610457845263ffffffff89811683860181815233878701908152606088018c8152608089018a815260a08a018c815260c08b018881524260e08d019081525f6101008e018181528b82526003808e52918e90209e518f5499518c166401000000000267ffffffffffffffff19909a169b169a909a17979097178d55945160018d0155925160028c01559051938a0193909355915160048901559051600588015551600687015590516007909501805495151560ff1996909616959095179094558251938452908301849052945084917f8f43b844c3a5f871242c5b94167890a1f6adfcd431e90264fa1f438f7127cb66910160405180910390a25050610fbd60018055565b9392505050565b5f8061271060075484610fd7919061133b565b610fe19190611352565b9150610fed8284611371565b9050915091565b60058181548110611003575f80fd5b905f5260205f209060089182820401919006600402915054906101000a900463ffffffff1681565b606060058054806020026020016040519081016040528092919081815260200182805480156110a257602002820191905f5260205f20905f905b82829054906101000a900463ffffffff1663ffffffff16815260200190600401906020826003010492830192600103820291508084116110655790505b5050505050905090565b6110b46110e6565b6001600160a01b0381166110dd57604051631e4fbdf760e01b81525f6004820152602401610508565b6108d68161113c565b5f546001600160a01b031633146109e55760405163118cdaa760e01b8152336004820152602401610508565b60026001540361113557604051633ee5aeb560e01b815260040160405180910390fd5b6002600155565b5f80546001600160a01b038381166001600160a01b0319831681178455604051919092169283917f8be0079c531659141344cd1fd0a4f28419497f9722a3daafe3b4186f6b6457e09190a35050565b803563ffffffff8116811461119e575f80fd5b919050565b80356001600160a01b038116811461119e575f80fd5b5f805f805f60a086880312156111cd575f80fd5b6111d68661118b565b9450602086013593506111eb604087016111a3565b94979396509394606081013594506080013592915050565b5f60208284031215611213575f80fd5b5035919050565b5f6020828403121561122a575f80fd5b610fbd8261118b565b5f8060408385031215611244575f80fd5b61124d8361118b565b946020939093013593505050565b5f805f6060848603121561126d575f80fd5b8335925061127d6020850161118b565b9150604084013590509250925092565b602080825282518282018190525f9190848201906040850190845b818110156112ca57835163ffffffff16835292840192918401916001016112a8565b50909695505050505050565b5f602082840312156112e6575f80fd5b610fbd826111a3565b634e487b7160e01b5f52601160045260245ffd5b80820180821115611316576113166112ef565b92915050565b5f6020828403121561132c575f80fd5b81518015158114610fbd575f80fd5b8082028115828204841417611316576113166112ef565b5f8261136c57634e487b7160e01b5f52601260045260245ffd5b500490565b81810381811115611316576113166112ef56fea2646970667358221220d5c8c7a3542a9d5381cfdd9931c6b9ee5a95022fa9956b587850e0be385a5ba664736f6c63430008140033","linkReferences":{}},"methodIdentifiers":{"ASSETHUB_PARAID()":"f58dfce9","BPS_DENOMINATOR()":"e1a45218","PASSETHUB_PARAID()":"46daedf4","bridgeFeesBps()":"ca2387c1","bridgeToParachain(uint256,uint32,bytes32)":"9e61f2a3","calculateBridgeFee(uint256)":"ade1af12","collectedFees()":"9003adfe","getParachainStats(uint32)":"9c871b8a","getSupportedParachains()":"ef3ae421","mapAddress(bytes32)":"66f83e51","owner()":"8da5cb5b","parachainConfigs(uint32)":"69f26cca","processIncomingXCM(uint32,bytes32,address,uint256,bytes32)":"103084cc","registerParachain(uint32,bytes32)":"91a77fd2","renounceOwnership()":"715018a6","setBridgeFee(uint256)":"998cdf83","substrateToEvm(bytes32)":"f88dcecc","supportedParachains(uint256)":"b6180363","totalReservedBalance()":"c34f1d3f","transferOwnership(address)":"f2fde38b","usdp()":"74e6076c","withdrawFees()":"476343ee","xcmMessages(bytes32)":"a89a73e0"},"id":2}