{"abi":[{"type":"constructor","inputs":[{"name":"_usdp","type":"address","internalType":"address"}],"stateMutability":"nonpayable"},{"type":"function","name":"ASSETHUB_PARAID","inputs":[],"outputs":[{"name":"","type":"uint32","internalType":"uint32"}],"stateMutability":"view"},{"type":"function","name":"BPS_DENOMINATOR","inputs":[],"outputs":[{"name":"","type":"uint256","internalType":"uint256"}],"stateMutability":"view"},{"type":"function","name":"MIN_LIQUIDITY","inputs":[],"outputs":[{"name":"","type":"uint256","internalType":"uint256"}],"stateMutability":"view"},{"type":"function","name":"addLiquidity","inputs":[{"name":"token","type":"address","internalType":"address"},{"name":"amountToken","type":"uint256","internalType":"uint256"},{"name":"amountUSDPE","type":"uint256","internalType":"uint256"}],"outputs":[{"name":"liquidity","type":"uint256","internalType":"uint256"}],"stateMutability":"nonpayable"},{"type":"function","name":"createPool","inputs":[{"name":"token","type":"address","internalType":"address"},{"name":"assetId","type":"uint32","internalType":"uint32"}],"outputs":[],"stateMutability":"nonpayable"},{"type":"function","name":"defaultSwapFee","inputs":[],"outputs":[{"name":"","type":"uint256","internalType":"uint256"}],"stateMutability":"view"},{"type":"function","name":"getAmountOut","inputs":[{"name":"tokenIn","type":"address","internalType":"address"},{"name":"tokenOut","type":"address","internalType":"address"},{"name":"amountIn","type":"uint256","internalType":"uint256"}],"outputs":[{"name":"amountOut","type":"uint256","internalType":"uint256"}],"stateMutability":"view"},{"type":"function","name":"getPoolInfo","inputs":[{"name":"token","type":"address","internalType":"address"}],"outputs":[{"name":"reserveToken","type":"uint256","internalType":"uint256"},{"name":"reserveUSDPE","type":"uint256","internalType":"uint256"},{"name":"totalLiquidity","type":"uint256","internalType":"uint256"},{"name":"swapFee","type":"uint256","internalType":"uint256"}],"stateMutability":"view"},{"type":"function","name":"lpPositions","inputs":[{"name":"","type":"address","internalType":"address"},{"name":"","type":"address","internalType":"address"}],"outputs":[{"name":"liquidity","type":"uint256","internalType":"uint256"},{"name":"tokenADeposited","type":"uint256","internalType":"uint256"},{"name":"tokenBDeposited","type":"uint256","internalType":"uint256"},{"name":"feesEarned","type":"uint256","internalType":"uint256"}],"stateMutability":"view"},{"type":"function","name":"owner","inputs":[],"outputs":[{"name":"","type":"address","internalType":"address"}],"stateMutability":"view"},{"type":"function","name":"pause","inputs":[],"outputs":[],"stateMutability":"nonpayable"},{"type":"function","name":"paused","inputs":[],"outputs":[{"name":"","type":"bool","internalType":"bool"}],"stateMutability":"view"},{"type":"function","name":"poolTokens","inputs":[{"name":"","type":"uint256","internalType":"uint256"}],"outputs":[{"name":"","type":"address","internalType":"address"}],"stateMutability":"view"},{"type":"function","name":"pools","inputs":[{"name":"","type":"address","internalType":"address"}],"outputs":[{"name":"tokenA","type":"address","internalType":"address"},{"name":"tokenB","type":"address","internalType":"address"},{"name":"reserveA","type":"uint256","internalType":"uint256"},{"name":"reserveB","type":"uint256","internalType":"uint256"},{"name":"totalLiquidity","type":"uint256","internalType":"uint256"},{"name":"swapFeesBps","type":"uint256","internalType":"uint256"},{"name":"isActive","type":"bool","internalType":"bool"}],"stateMutability":"view"},{"type":"function","name":"renounceOwnership","inputs":[],"outputs":[],"stateMutability":"nonpayable"},{"type":"function","name":"supportedTokens","inputs":[{"name":"","type":"address","internalType":"address"}],"outputs":[{"name":"","type":"bool","internalType":"bool"}],"stateMutability":"view"},{"type":"function","name":"swapForUSDPE","inputs":[{"name":"tokenIn","type":"address","internalType":"address"},{"name":"amountIn","type":"uint256","internalType":"uint256"},{"name":"minAmountOut","type":"uint256","internalType":"uint256"}],"outputs":[{"name":"amountOut","type":"uint256","internalType":"uint256"}],"stateMutability":"nonpayable"},{"type":"function","name":"swapFromUSDPE","inputs":[{"name":"tokenOut","type":"address","internalType":"address"},{"name":"amountIn","type":"uint256","internalType":"uint256"},{"name":"minAmountOut","type":"uint256","internalType":"uint256"}],"outputs":[{"name":"amountOut","type":"uint256","internalType":"uint256"}],"stateMutability":"nonpayable"},{"type":"function","name":"tokenToAssetId","inputs":[{"name":"","type":"address","internalType":"address"}],"outputs":[{"name":"","type":"uint32","internalType":"uint32"}],"stateMutability":"view"},{"type":"function","name":"transferOwnership","inputs":[{"name":"newOwner","type":"address","internalType":"address"}],"outputs":[],"stateMutability":"nonpayable"},{"type":"function","name":"unpause","inputs":[],"outputs":[],"stateMutability":"nonpayable"},{"type":"function","name":"usdp","inputs":[],"outputs":[{"name":"","type":"address","internalType":"contract USDP"}],"stateMutability":"view"},{"type":"event","name":"AssetHubSyncInitiated","inputs":[{"name":"assetId","type":"uint32","indexed":false,"internalType":"uint32"},{"name":"amount","type":"uint256","indexed":false,"internalType":"uint256"},{"name":"xcmHash","type":"bytes32","indexed":false,"internalType":"bytes32"}],"anonymous":false},{"type":"event","name":"LiquidityAdded","inputs":[{"name":"provider","type":"address","indexed":true,"internalType":"address"},{"name":"token","type":"address","indexed":true,"internalType":"address"},{"name":"amountA","type":"uint256","indexed":false,"internalType":"uint256"},{"name":"amountB","type":"uint256","indexed":false,"internalType":"uint256"}],"anonymous":false},{"type":"event","name":"LiquidityRemoved","inputs":[{"name":"provider","type":"address","indexed":true,"internalType":"address"},{"name":"token","type":"address","indexed":true,"internalType":"address"},{"name":"amountA","type":"uint256","indexed":false,"internalType":"uint256"},{"name":"amountB","type":"uint256","indexed":false,"internalType":"uint256"}],"anonymous":false},{"type":"event","name":"OwnershipTransferred","inputs":[{"name":"previousOwner","type":"address","indexed":true,"internalType":"address"},{"name":"newOwner","type":"address","indexed":true,"internalType":"address"}],"anonymous":false},{"type":"event","name":"Paused","inputs":[{"name":"account","type":"address","indexed":false,"internalType":"address"}],"anonymous":false},{"type":"event","name":"PoolCreated","inputs":[{"name":"tokenA","type":"address","indexed":true,"internalType":"address"},{"name":"tokenB","type":"address","indexed":true,"internalType":"address"},{"name":"swapFee","type":"uint256","indexed":false,"internalType":"uint256"}],"anonymous":false},{"type":"event","name":"Swapped","inputs":[{"name":"user","type":"address","indexed":true,"internalType":"address"},{"name":"tokenIn","type":"address","indexed":true,"internalType":"address"},{"name":"tokenOut","type":"address","indexed":true,"internalType":"address"},{"name":"amountIn","type":"uint256","indexed":false,"internalType":"uint256"},{"name":"amountOut","type":"uint256","indexed":false,"internalType":"uint256"}],"anonymous":false},{"type":"event","name":"Unpaused","inputs":[{"name":"account","type":"address","indexed":false,"internalType":"address"}],"anonymous":false},{"type":"error","name":"EnforcedPause","inputs":[]},{"type":"error","name":"ExpectedPause","inputs":[]},{"type":"error","name":"OwnableInvalidOwner","inputs":[{"name":"owner","type":"address","internalType":"address"}]},{"type":"error","name":"OwnableUnauthorizedAccount","inputs":[{"name":"account","type":"address","internalType":"address"}]},{"type":"error","name":"ReentrancyGuardReentrantCall","inputs":[]}],"bytecode":{"object":"0x60a0604052601e60075534801562000015575f80fd5b5060405162001c7c38038062001c7c833981016040819052620000389162000128565b33806200005f57604051631e4fbdf760e01b81525f60048201526024015b60405180910390fd5b6200006a81620000d9565b50600180556001600160a01b038116620000c75760405162461bcd60e51b815260206004820152601460248201527f496e76616c696420555344502061646472657373000000000000000000000000604482015260640162000056565b6001600160a01b031660805262000157565b5f80546001600160a01b038381166001600160a01b0319831681178455604051919092169283917f8be0079c531659141344cd1fd0a4f28419497f9722a3daafe3b4186f6b6457e09190a35050565b5f6020828403121562000139575f80fd5b81516001600160a01b038116811462000150575f80fd5b9392505050565b608051611acd620001af5f395f81816102de015281816106a10152818161077901528181610825015281816109e001528181610bf901528181610f9a0152818161116f0152818161137101526114de0152611acd5ff3fe608060405234801561000f575f80fd5b506004361061013d575f3560e01c806374e6076c116100b4578063d777f9ed11610079578063d777f9ed146103df578063dced1a5a146103f2578063e1a4521814610405578063eb3b8a521461040e578063f2fde38b14610448578063f58dfce91461045b575f80fd5b806374e6076c146102d95780638456cb59146103185780638da5cb5b14610320578063a13171bd14610330578063a4063dbc14610343575f80fd5b80633fe7a960116101055780633fe7a9601461025f5780634aa066521461027257806355776b77146102855780635c975abb1461029857806368c4ac26146102af578063715018a6146102d1575f80fd5b806301a64da61461014157806303df7396146101a557806306bfa938146101bc57806321b77d631461024c5780633f4ba83a14610255575b5f80fd5b61018061014f366004611851565b600460209081525f928352604080842090915290825290208054600182015460028301546003909301549192909184565b6040805194855260208501939093529183015260608201526080015b60405180910390f35b6101ae60075481565b60405190815260200161019c565b6101806101ca366004611882565b6001600160a01b039081165f90815260036020818152604092839020835160e08101855281548616815260018201549095169185019190915260028101549284018390529081015460608401819052600482015460808501819052600583015460a0860181905260069093015460ff16151560c0909501949094529193919291565b6101ae6103e881565b61025d610464565b005b6101ae61026d36600461189b565b610476565b6101ae6102803660046118cb565b6107ec565b6101ae61029336600461189b565b610abe565b60025460ff165b604051901515815260200161019c565b61029f6102bd366004611882565b60056020525f908152604090205460ff1681565b61025d610e66565b6103007f000000000000000000000000000000000000000000000000000000000000000081565b6040516001600160a01b03909116815260200161019c565b61025d610e77565b5f546001600160a01b0316610300565b61025d61033e366004611904565b610e87565b61039d610351366004611882565b600360208190525f918252604090912080546001820154600283015493830154600484015460058501546006909501546001600160a01b03948516969490931694919290919060ff1687565b604080516001600160a01b039889168152979096166020880152948601939093526060850191909152608084015260a0830152151560c082015260e00161019c565b6101ae6103ed36600461189b565b6111e0565b610300610400366004611941565b61153b565b6101ae61271081565b61043361041c366004611882565b60086020525f908152604090205463ffffffff1681565b60405163ffffffff909116815260200161019c565b61025d610456366004611882565b611563565b6104336103e881565b61046c6115a0565b6104746115cc565b565b5f61047f61161e565b610487611648565b6001600160a01b0384165f908152600360205260409020600681015460ff166104cb5760405162461bcd60e51b81526004016104c290611958565b60405180910390fd5b5f841161050b5760405162461bcd60e51b815260206004820152600e60248201526d125b9d985b1a5908185b5bdd5b9d60921b60448201526064016104c2565b5f816005015461271061051e9190611995565b61052890866119ae565b90505f82600301548261053b91906119ae565b90505f82612710856002015461055191906119ae565b61055b91906119c5565b905061056781836119d8565b9450858510156105ad5760405162461bcd60e51b815260206004820152601160248201527014db1a5c1c1859d948195e18d959591959607a1b60448201526064016104c2565b836003015485106105f95760405162461bcd60e51b8152602060048201526016602482015275496e73756666696369656e74206c697175696469747960501b60448201526064016104c2565b6040516323b872dd60e01b81526001600160a01b038916906323b872dd9061062990339030908c906004016119f7565b6020604051808303815f875af1158015610645573d5f803e3d5ffd5b505050506040513d601f19601f820116820180604052508101906106699190611a1b565b6106855760405162461bcd60e51b81526004016104c290611a3a565b60405163a9059cbb60e01b8152336004820152602481018690527f00000000000000000000000000000000000000000000000000000000000000006001600160a01b03169063a9059cbb906044016020604051808303815f875af11580156106ef573d5f803e3d5ffd5b505050506040513d601f19601f820116820180604052508101906107139190611a1b565b61072f5760405162461bcd60e51b81526004016104c290611a69565b86846002015f82825461074291906119c5565b9250508190555084846003015f82825461075c9190611995565b909155505060408051888152602081018790526001600160a01b037f0000000000000000000000000000000000000000000000000000000000000000811692908b169133917f6782190c91d4a7e8ad2a867deed6ec0a970cab8ff137ae2bd4abd92b3810f4d3910160405180910390a46107d88888600161166c565b505050506107e560018055565b9392505050565b6040805160e0810182525f80825260208201819052918101829052606081018290526080810182905260a0810182905260c081018290527f00000000000000000000000000000000000000000000000000000000000000006001600160a01b0316856001600160a01b03160361095057506001600160a01b038084165f90815260036020818152604092839020835160e081018552815486168152600182015490951691850191909152600281015492840192909252810154606083015260048101546080830152600581015460a08301526006015460ff16151560c082018190526108ea5760405162461bcd60e51b81526004016104c290611958565b5f8160a001516127106108fd9190611995565b61090790856119ae565b90505f82604001518261091a91906119ae565b90505f82612710856060015161093091906119ae565b61093a91906119c5565b905061094681836119d8565b9450505050610ab6565b506001600160a01b038085165f90815260036020818152604092839020835160e081018552815486168152600182015490951691850191909152600281015492840192909252810154606083015260048101546080830152600581015460a08301526006015460ff16151560c082018190526109de5760405162461bcd60e51b81526004016104c290611958565b7f00000000000000000000000000000000000000000000000000000000000000006001600160a01b0316846001600160a01b031614610a545760405162461bcd60e51b815260206004820152601260248201527124b73b30b634b2103a37b5b2b7103830b4b960711b60448201526064016104c2565b5f8160a00151612710610a679190611995565b610a7190856119ae565b90505f826060015182610a8491906119ae565b90505f826127108560400151610a9a91906119ae565b610aa491906119c5565b9050610ab081836119d8565b94505050505b509392505050565b5f610ac761161e565b610acf611648565b6001600160a01b0384165f908152600360205260409020600681015460ff16610b0a5760405162461bcd60e51b81526004016104c290611958565b5f84118015610b1857505f83115b610b565760405162461bcd60e51b815260206004820152600f60248201526e496e76616c696420616d6f756e747360881b60448201526064016104c2565b6040516323b872dd60e01b81526001600160a01b038616906323b872dd90610b86903390309089906004016119f7565b6020604051808303815f875af1158015610ba2573d5f803e3d5ffd5b505050506040513d601f19601f82011682018060405250810190610bc69190611a1b565b610be25760405162461bcd60e51b81526004016104c290611a3a565b6040516323b872dd60e01b81526001600160a01b037f000000000000000000000000000000000000000000000000000000000000000016906323b872dd90610c32903390309088906004016119f7565b6020604051808303815f875af1158015610c4e573d5f803e3d5ffd5b505050506040513d601f19601f82011682018060405250810190610c729190611a1b565b610c8e5760405162461bcd60e51b81526004016104c290611a69565b80600401545f03610cf8576103e8610cae610ca985876119ae565b61172f565b610cb89190611995565b9150610cc66103e8836119c5565b6004808301919091556001600160a01b0386165f90815260209182526040808220828052909252206103e89055610d68565b5f8160020154826004015486610d0e91906119ae565b610d1891906119d8565b90505f8260030154836004015486610d3091906119ae565b610d3a91906119d8565b9050808210610d495780610d4b565b815b935083836004015f828254610d6091906119c5565b909155505050505b83816002015f828254610d7b91906119c5565b9250508190555082816003015f828254610d9591906119c5565b90915550506001600160a01b0385165f9081526004602090815260408083203384529091528120805490918491839190610dd09084906119c5565b9250508190555084816001015f828254610dea91906119c5565b9250508190555083816002015f828254610e0491906119c5565b909155505060408051868152602081018690526001600160a01b0388169133917f36f3b2e1a21c19137dd82ec243b0708a1d26b3d1fa1dc49c44c4c366a5878138910160405180910390a3610e5b8686600161166c565b50506107e560018055565b610e6e6115a0565b6104745f611787565b610e7f6115a0565b6104746117d6565b610e8f6115a0565b6001600160a01b038216610ed55760405162461bcd60e51b815260206004820152600d60248201526c24b73b30b634b2103a37b5b2b760991b60448201526064016104c2565b6001600160a01b0382165f9081526003602052604090206006015460ff1615610f365760405162461bcd60e51b8152602060048201526013602482015272506f6f6c20616c72656164792065786973747360681b60448201526064016104c2565b5f8163ffffffff1611610f7e5760405162461bcd60e51b815260206004820152601060248201526f125b9d985b1a5908185cdcd95d08125160821b60448201526064016104c2565b6040518060e00160405280836001600160a01b031681526020017f00000000000000000000000000000000000000000000000000000000000000006001600160a01b031681526020015f81526020015f81526020015f815260200160075481526020016001151581525060035f846001600160a01b03166001600160a01b031681526020019081526020015f205f820151815f015f6101000a8154816001600160a01b0302191690836001600160a01b031602179055506020820151816001015f6101000a8154816001600160a01b0302191690836001600160a01b0316021790555060408201518160020155606082015181600301556080820151816004015560a0820151816005015560c0820151816006015f6101000a81548160ff021916908315150217905550905050600160055f846001600160a01b03166001600160a01b031681526020019081526020015f205f6101000a81548160ff021916908315150217905550600682908060018154018082558091505060019003905f5260205f20015f9091909190916101000a8154816001600160a01b0302191690836001600160a01b031602179055508060085f846001600160a01b03166001600160a01b031681526020019081526020015f205f6101000a81548163ffffffff021916908363ffffffff1602179055507f00000000000000000000000000000000000000000000000000000000000000006001600160a01b0316826001600160a01b03167ff8a0462f666b427ea753848be7e91f9ce413975906f6f39950be296ca9a4d5246007546040516111d491815260200190565b60405180910390a35050565b5f6111e961161e565b6111f1611648565b6001600160a01b0384165f908152600360205260409020600681015460ff1661122c5760405162461bcd60e51b81526004016104c290611958565b5f841161126c5760405162461bcd60e51b815260206004820152600e60248201526d125b9d985b1a5908185b5bdd5b9d60921b60448201526064016104c2565b5f816005015461271061127f9190611995565b61128990866119ae565b90505f82600201548261129c91906119ae565b90505f8261271085600301546112b291906119ae565b6112bc91906119c5565b90506112c881836119d8565b94508585101561130e5760405162461bcd60e51b815260206004820152601160248201527014db1a5c1c1859d948195e18d959591959607a1b60448201526064016104c2565b8360020154851061135a5760405162461bcd60e51b8152602060048201526016602482015275496e73756666696369656e74206c697175696469747960501b60448201526064016104c2565b6040516323b872dd60e01b81526001600160a01b037f000000000000000000000000000000000000000000000000000000000000000016906323b872dd906113aa90339030908c906004016119f7565b6020604051808303815f875af11580156113c6573d5f803e3d5ffd5b505050506040513d601f19601f820116820180604052508101906113ea9190611a1b565b6114065760405162461bcd60e51b81526004016104c290611a69565b60405163a9059cbb60e01b8152336004820152602481018690526001600160a01b0389169063a9059cbb906044016020604051808303815f875af1158015611450573d5f803e3d5ffd5b505050506040513d601f19601f820116820180604052508101906114749190611a1b565b6114905760405162461bcd60e51b81526004016104c290611a3a565b84846002015f8282546114a39190611995565b9250508190555086846003015f8282546114bd91906119c5565b909155505060408051888152602081018790526001600160a01b03808b16927f00000000000000000000000000000000000000000000000000000000000000009091169133917f6782190c91d4a7e8ad2a867deed6ec0a970cab8ff137ae2bd4abd92b3810f4d3910160405180910390a4505050506107e560018055565b6006818154811061154a575f80fd5b5f918252602090912001546001600160a01b0316905081565b61156b6115a0565b6001600160a01b03811661159457604051631e4fbdf760e01b81525f60048201526024016104c2565b61159d81611787565b50565b5f546001600160a01b031633146104745760405163118cdaa760e01b81523360048201526024016104c2565b6115d4611813565b6002805460ff191690557f5db9ee0a495bf2e6ff9c91a7834c1ba4fdd244a5e8aa4e537bd38aeae4b073aa335b6040516001600160a01b03909116815260200160405180910390a1565b60026001540361164157604051633ee5aeb560e01b815260040160405180910390fd5b6002600155565b60025460ff16156104745760405163d93c066560e01b815260040160405180910390fd5b6001600160a01b0383165f908152600860209081526040808320549051607d60e31b9281019290925260e081901b6001600160e01b03191660248301526028820185905283151560f81b604883015242604983015263ffffffff16919060690160408051601f19818403018152828252805160209182012063ffffffff8616845290830187905290820181905291507f6b8aefed29e5677eb0482e1f975c6b191bd5fcf3860c9d7367618123d0252bdd9060600160405180910390a15050505050565b5f80600261173e8460016119c5565b61174891906119d8565b90508291505b818110156117815790508060028161176681866119d8565b61177091906119c5565b61177a91906119d8565b905061174e565b50919050565b5f80546001600160a01b038381166001600160a01b0319831681178455604051919092169283917f8be0079c531659141344cd1fd0a4f28419497f9722a3daafe3b4186f6b6457e09190a35050565b6117de611648565b6002805460ff191660011790557f62e78cea01bee320cd4e420270b5ea74000d11b0c9f74754ebdbfc544b05a2586116013390565b60025460ff1661047457604051638dfc202b60e01b815260040160405180910390fd5b80356001600160a01b038116811461184c575f80fd5b919050565b5f8060408385031215611862575f80fd5b61186b83611836565b915061187960208401611836565b90509250929050565b5f60208284031215611892575f80fd5b6107e582611836565b5f805f606084860312156118ad575f80fd5b6118b684611836565b95602085013595506040909401359392505050565b5f805f606084860312156118dd575f80fd5b6118e684611836565b92506118f460208501611836565b9150604084013590509250925092565b5f8060408385031215611915575f80fd5b61191e83611836565b9150602083013563ffffffff81168114611936575f80fd5b809150509250929050565b5f60208284031215611951575f80fd5b5035919050565b6020808252600f908201526e506f6f6c206e6f742061637469766560881b604082015260600190565b634e487b7160e01b5f52601160045260245ffd5b818103818111156119a8576119a8611981565b92915050565b80820281158282048414176119a8576119a8611981565b808201808211156119a8576119a8611981565b5f826119f257634e487b7160e01b5f52601260045260245ffd5b500490565b6001600160a01b039384168152919092166020820152604081019190915260600190565b5f60208284031215611a2b575f80fd5b815180151581146107e5575f80fd5b602080825260159082015274151bdad95b881d1c985b9cd9995c8819985a5b1959605a1b604082015260600190565b6020808252601490820152731554d114081d1c985b9cd9995c8819985a5b195960621b60408201526060019056fea26469706673582212204bdc11aa1e3edf5dfdfee79f3d29f2c8820ae0d1c00e67d8c23ec89c912b488e64736f6c63430008140033","linkReferences":{}},"methodIdentifiers":{"ASSETHUB_PARAID()":"f58dfce9","BPS_DENOMINATOR()":"e1a45218","MIN_LIQUIDITY()":"21b77d63","addLiquidity(address,uint256,uint256)":"55776b77","createPool(address,uint32)":"a13171bd","defaultSwapFee()":"03df7396","getAmountOut(address,address,uint256)":"4aa06652","getPoolInfo(address)":"06bfa938","lpPositions(address,address)":"01a64da6","owner()":"8da5cb5b","pause()":"8456cb59","paused()":"5c975abb","poolTokens(uint256)":"dced1a5a","pools(address)":"a4063dbc","renounceOwnership()":"715018a6","supportedTokens(address)":"68c4ac26","swapForUSDPE(address,uint256,uint256)":"3fe7a960","swapFromUSDPE(address,uint256,uint256)":"d777f9ed","tokenToAssetId(address)":"eb3b8a52","transferOwnership(address)":"f2fde38b","unpause()":"3f4ba83a","usdp()":"74e6076c"},"id":3}