{
  "_format": "hh3-artifact-1",
  "contractName": "TipsyDot",
  "sourceName": "contracts/TipsyDot.sol",
  "abi": [
    {
      "inputs": [],
      "stateMutability": "nonpayable",
      "type": "constructor"
    },
    {
      "anonymous": false,
      "inputs": [
        {
          "indexed": true,
          "internalType": "uint256",
          "name": "campaignId",
          "type": "uint256"
        },
        {
          "indexed": false,
          "internalType": "string",
          "name": "name",
          "type": "string"
        },
        {
          "indexed": true,
          "internalType": "address",
          "name": "creator",
          "type": "address"
        },
        {
          "indexed": false,
          "internalType": "address",
          "name": "asset",
          "type": "address"
        },
        {
          "indexed": false,
          "internalType": "uint32",
          "name": "destParaId",
          "type": "uint32"
        }
      ],
      "name": "CampaignCreated",
      "type": "event"
    },
    {
      "anonymous": false,
      "inputs": [
        {
          "indexed": true,
          "internalType": "uint256",
          "name": "campaignId",
          "type": "uint256"
        },
        {
          "indexed": false,
          "internalType": "uint256",
          "name": "amount",
          "type": "uint256"
        },
        {
          "indexed": false,
          "internalType": "uint32",
          "name": "destParaId",
          "type": "uint32"
        }
      ],
      "name": "Forwarded",
      "type": "event"
    },
    {
      "anonymous": false,
      "inputs": [
        {
          "indexed": true,
          "internalType": "uint256",
          "name": "campaignId",
          "type": "uint256"
        },
        {
          "indexed": true,
          "internalType": "address",
          "name": "tipper",
          "type": "address"
        },
        {
          "indexed": false,
          "internalType": "uint256",
          "name": "amount",
          "type": "uint256"
        },
        {
          "indexed": false,
          "internalType": "string",
          "name": "memo",
          "type": "string"
        }
      ],
      "name": "Tipped",
      "type": "event"
    },
    {
      "anonymous": false,
      "inputs": [
        {
          "indexed": true,
          "internalType": "address",
          "name": "newRouter",
          "type": "address"
        }
      ],
      "name": "XcmRouterSet",
      "type": "event"
    },
    {
      "inputs": [
        {
          "internalType": "uint256",
          "name": "",
          "type": "uint256"
        },
        {
          "internalType": "uint256",
          "name": "",
          "type": "uint256"
        }
      ],
      "name": "campaignMemos",
      "outputs": [
        {
          "internalType": "string",
          "name": "",
          "type": "string"
        }
      ],
      "stateMutability": "view",
      "type": "function"
    },
    {
      "inputs": [
        {
          "internalType": "uint256",
          "name": "",
          "type": "uint256"
        }
      ],
      "name": "campaigns",
      "outputs": [
        {
          "internalType": "string",
          "name": "name",
          "type": "string"
        },
        {
          "internalType": "string",
          "name": "description",
          "type": "string"
        },
        {
          "internalType": "address",
          "name": "creator",
          "type": "address"
        },
        {
          "internalType": "address",
          "name": "asset",
          "type": "address"
        },
        {
          "internalType": "bytes",
          "name": "beneficiary",
          "type": "bytes"
        },
        {
          "internalType": "uint32",
          "name": "destParaId",
          "type": "uint32"
        },
        {
          "internalType": "uint256",
          "name": "totalRaised",
          "type": "uint256"
        },
        {
          "internalType": "bool",
          "name": "forwarded",
          "type": "bool"
        },
        {
          "internalType": "uint256",
          "name": "createdAt",
          "type": "uint256"
        }
      ],
      "stateMutability": "view",
      "type": "function"
    },
    {
      "inputs": [
        {
          "internalType": "string",
          "name": "_name",
          "type": "string"
        },
        {
          "internalType": "string",
          "name": "_description",
          "type": "string"
        },
        {
          "internalType": "address",
          "name": "_asset",
          "type": "address"
        },
        {
          "internalType": "bytes",
          "name": "_beneficiary",
          "type": "bytes"
        },
        {
          "internalType": "uint32",
          "name": "_destParaId",
          "type": "uint32"
        }
      ],
      "name": "createCampaign",
      "outputs": [
        {
          "internalType": "uint256",
          "name": "",
          "type": "uint256"
        }
      ],
      "stateMutability": "nonpayable",
      "type": "function"
    },
    {
      "inputs": [
        {
          "internalType": "uint256",
          "name": "_campaignId",
          "type": "uint256"
        }
      ],
      "name": "forward",
      "outputs": [],
      "stateMutability": "nonpayable",
      "type": "function"
    },
    {
      "inputs": [
        {
          "internalType": "uint256",
          "name": "_campaignId",
          "type": "uint256"
        }
      ],
      "name": "getCampaignDetails",
      "outputs": [
        {
          "internalType": "string",
          "name": "name",
          "type": "string"
        },
        {
          "internalType": "string",
          "name": "description",
          "type": "string"
        },
        {
          "internalType": "address",
          "name": "creator",
          "type": "address"
        },
        {
          "internalType": "address",
          "name": "asset",
          "type": "address"
        },
        {
          "internalType": "bytes",
          "name": "beneficiary",
          "type": "bytes"
        },
        {
          "internalType": "uint32",
          "name": "destParaId",
          "type": "uint32"
        },
        {
          "internalType": "uint256",
          "name": "totalRaised",
          "type": "uint256"
        },
        {
          "internalType": "bool",
          "name": "forwarded",
          "type": "bool"
        },
        {
          "internalType": "uint256",
          "name": "createdAt",
          "type": "uint256"
        }
      ],
      "stateMutability": "view",
      "type": "function"
    },
    {
      "inputs": [
        {
          "internalType": "uint256",
          "name": "_campaignId",
          "type": "uint256"
        }
      ],
      "name": "getCampaignMemos",
      "outputs": [
        {
          "internalType": "string[]",
          "name": "",
          "type": "string[]"
        }
      ],
      "stateMutability": "view",
      "type": "function"
    },
    {
      "inputs": [],
      "name": "nextCampaignId",
      "outputs": [
        {
          "internalType": "uint256",
          "name": "",
          "type": "uint256"
        }
      ],
      "stateMutability": "view",
      "type": "function"
    },
    {
      "inputs": [],
      "name": "owner",
      "outputs": [
        {
          "internalType": "address",
          "name": "",
          "type": "address"
        }
      ],
      "stateMutability": "view",
      "type": "function"
    },
    {
      "inputs": [
        {
          "internalType": "address",
          "name": "_xcmRouter",
          "type": "address"
        }
      ],
      "name": "setXcmRouter",
      "outputs": [],
      "stateMutability": "nonpayable",
      "type": "function"
    },
    {
      "inputs": [
        {
          "internalType": "uint256",
          "name": "_campaignId",
          "type": "uint256"
        },
        {
          "internalType": "uint256",
          "name": "_amount",
          "type": "uint256"
        },
        {
          "internalType": "string",
          "name": "_memo",
          "type": "string"
        }
      ],
      "name": "tip",
      "outputs": [],
      "stateMutability": "nonpayable",
      "type": "function"
    },
    {
      "inputs": [
        {
          "internalType": "uint256",
          "name": "_campaignId",
          "type": "uint256"
        },
        {
          "internalType": "uint256",
          "name": "_amount",
          "type": "uint256"
        },
        {
          "internalType": "string",
          "name": "_memo",
          "type": "string"
        }
      ],
      "name": "tipAndForward",
      "outputs": [],
      "stateMutability": "nonpayable",
      "type": "function"
    },
    {
      "inputs": [],
      "name": "xcmRouter",
      "outputs": [
        {
          "internalType": "address",
          "name": "",
          "type": "address"
        }
      ],
      "stateMutability": "view",
      "type": "function"
    }
  ],
  "bytecode": "0x608060405234801561000f575f80fd5b503360045f6101000a81548173ffffffffffffffffffffffffffffffffffffffff021916908373ffffffffffffffffffffffffffffffffffffffff16021790555061288a8061005d5f395ff3fe608060405234801561000f575f80fd5b50600436106100b2575f3560e01c8063943fac3b1161006f578063943fac3b1461017e578063998692ed146101ae578063c230a7da146101ca578063d993de62146101fa578063dc74e95414610232578063e1d2060014610262576100b2565b806305ad18d4146100b6578063141961bc146100d2578063146adacb1461010a5780634fa679d8146101265780637903a756146101425780638da5cb5b14610160575b5f80fd5b6100d060048036038101906100cb9190611652565b610280565b005b6100ec60048036038101906100e791906116be565b610299565b6040516101019998979695949392919061183b565b60405180910390f35b610124600480360381019061011f9190611905565b6104cd565b005b610140600480360381019061013b91906116be565b610650565b005b61014a6109da565b6040516101579190611930565b60405180910390f35b6101686109e0565b6040516101759190611949565b60405180910390f35b61019860048036038101906101939190611962565b610a05565b6040516101a591906119a0565b60405180910390f35b6101c860048036038101906101c39190611652565b610ab6565b005b6101e460048036038101906101df9190611a88565b610d42565b6040516101f19190611930565b60405180910390f35b610214600480360381019061020f91906116be565b6110a5565b6040516102299998979695949392919061183b565b60405180910390f35b61024c600480360381019061024791906116be565b6113c8565b6040516102599190611c56565b60405180910390f35b61026a6114ad565b6040516102779190611949565b60405180910390f35b61028b838383610ab6565b61029483610650565b505050565b5f602052805f5260405f205f91509050805f0180546102b790611ca3565b80601f01602080910402602001604051908101604052809291908181526020018280546102e390611ca3565b801561032e5780601f106103055761010080835404028352916020019161032e565b820191905f5260205f20905b81548152906001019060200180831161031157829003601f168201915b50505050509080600101805461034390611ca3565b80601f016020809104026020016040519081016040528092919081815260200182805461036f90611ca3565b80156103ba5780601f10610391576101008083540402835291602001916103ba565b820191905f5260205f20905b81548152906001019060200180831161039d57829003601f168201915b505050505090806002015f9054906101000a900473ffffffffffffffffffffffffffffffffffffffff1690806003015f9054906101000a900473ffffffffffffffffffffffffffffffffffffffff169080600401805461041990611ca3565b80601f016020809104026020016040519081016040528092919081815260200182805461044590611ca3565b80156104905780601f1061046757610100808354040283529160200191610490565b820191905f5260205f20905b81548152906001019060200180831161047357829003601f168201915b505050505090806005015f9054906101000a900463ffffffff1690806006015490806007015f9054906101000a900460ff16908060080154905089565b60045f9054906101000a900473ffffffffffffffffffffffffffffffffffffffff1673ffffffffffffffffffffffffffffffffffffffff163373ffffffffffffffffffffffffffffffffffffffff161461055c576040517f08c379a000000000000000000000000000000000000000000000000000000000815260040161055390611d1d565b60405180910390fd5b5f73ffffffffffffffffffffffffffffffffffffffff168173ffffffffffffffffffffffffffffffffffffffff16036105ca576040517f08c379a00000000000000000000000000000000000000000000000000000000081526004016105c190611d85565b60405180910390fd5b8060035f6101000a81548173ffffffffffffffffffffffffffffffffffffffff021916908373ffffffffffffffffffffffffffffffffffffffff1602179055508073ffffffffffffffffffffffffffffffffffffffff167f5bbfa11f3d51bf8d6af0e146f6430ff948689ea9fc5c9ff159bf82bf2df2ad2560405160405180910390a250565b5f805f8381526020019081526020015f2090505f8160080154116106a9576040517f08c379a00000000000000000000000000000000000000000000000000000000081526004016106a090611ded565b60405180910390fd5b806007015f9054906101000a900460ff16156106fa576040517f08c379a00000000000000000000000000000000000000000000000000000000081526004016106f190611e55565b60405180910390fd5b5f816006015411610740576040517f08c379a000000000000000000000000000000000000000000000000000000000815260040161073790611ebd565b60405180910390fd5b5f73ffffffffffffffffffffffffffffffffffffffff1660035f9054906101000a900473ffffffffffffffffffffffffffffffffffffffff1673ffffffffffffffffffffffffffffffffffffffff16036107cf576040517f08c379a00000000000000000000000000000000000000000000000000000000081526004016107c690611f25565b60405180910390fd5b6001816007015f6101000a81548160ff0219169083151502179055505f816003015f9054906101000a900473ffffffffffffffffffffffffffffffffffffffff1690508073ffffffffffffffffffffffffffffffffffffffff1663095ea7b360035f9054906101000a900473ffffffffffffffffffffffffffffffffffffffff1684600601546040518363ffffffff1660e01b8152600401610872929190611f43565b6020604051808303815f875af115801561088e573d5f803e3d5ffd5b505050506040513d601f19601f820116820180604052508101906108b29190611f94565b5060035f9054906101000a900473ffffffffffffffffffffffffffffffffffffffff1673ffffffffffffffffffffffffffffffffffffffff1663bd84a17e836003015f9054906101000a900473ffffffffffffffffffffffffffffffffffffffff16846006015485600401866005015f9054906101000a900463ffffffff1664012a05f2006040518663ffffffff1660e01b81526004016109579594939291906120a7565b5f604051808303815f87803b15801561096e575f80fd5b505af1158015610980573d5f803e3d5ffd5b50505050827fe30742726600fb94d2c5396c013041076f0137e27eedccf1e509e975f46a02288360060154846005015f9054906101000a900463ffffffff166040516109cd9291906120ff565b60405180910390a2505050565b60025481565b60045f9054906101000a900473ffffffffffffffffffffffffffffffffffffffff1681565b6001602052815f5260405f208181548110610a1e575f80fd5b905f5260205f20015f91509150508054610a3790611ca3565b80601f0160208091040260200160405190810160405280929190818152602001828054610a6390611ca3565b8015610aae5780601f10610a8557610100808354040283529160200191610aae565b820191905f5260205f20905b815481529060010190602001808311610a9157829003601f168201915b505050505081565b5f805f8581526020019081526020015f2090505f816008015411610b0f576040517f08c379a0000000000000000000000000000000000000000000000000000000008152600401610b0690611ded565b60405180910390fd5b806007015f9054906101000a900460ff1615610b60576040517f08c379a0000000000000000000000000000000000000000000000000000000008152600401610b5790611e55565b60405180910390fd5b5f8311610ba2576040517f08c379a0000000000000000000000000000000000000000000000000000000008152600401610b9990612170565b60405180910390fd5b5f816003015f9054906101000a900473ffffffffffffffffffffffffffffffffffffffff1690508073ffffffffffffffffffffffffffffffffffffffff166323b872dd3330876040518463ffffffff1660e01b8152600401610c069392919061218e565b6020604051808303815f875af1158015610c22573d5f803e3d5ffd5b505050506040513d601f19601f82011682018060405250810190610c469190611f94565b610c85576040517f08c379a0000000000000000000000000000000000000000000000000000000008152600401610c7c9061220d565b60405180910390fd5b83826006015f828254610c989190612258565b925050819055505f83511115610cea5760015f8681526020019081526020015f2083908060018154018082558091505060019003905f5260205f20015f909190919091509081610ce8919061241f565b505b3373ffffffffffffffffffffffffffffffffffffffff16857f605f3d7187c6c38a822e7fc6e06c4359a134d7699c77cc1dec21e3c597d922188686604051610d339291906124ee565b60405180910390a35050505050565b5f80865111610d86576040517f08c379a0000000000000000000000000000000000000000000000000000000008152600401610d7d90612566565b60405180910390fd5b5f73ffffffffffffffffffffffffffffffffffffffff168473ffffffffffffffffffffffffffffffffffffffff1603610df4576040517f08c379a0000000000000000000000000000000000000000000000000000000008152600401610deb906125ce565b60405180910390fd5b5f8263ffffffff1611610e3c576040517f08c379a0000000000000000000000000000000000000000000000000000000008152600401610e3390612636565b60405180910390fd5b5f835111610e7f576040517f08c379a0000000000000000000000000000000000000000000000000000000008152600401610e769061269e565b60405180910390fd5b5f60025f815480929190610e92906126bc565b9190505590506040518061012001604052808881526020018781526020013373ffffffffffffffffffffffffffffffffffffffff1681526020018673ffffffffffffffffffffffffffffffffffffffff1681526020018581526020018463ffffffff1681526020015f81526020015f15158152602001428152505f808381526020019081526020015f205f820151815f019081610f2f919061241f565b506020820151816001019081610f45919061241f565b506040820151816002015f6101000a81548173ffffffffffffffffffffffffffffffffffffffff021916908373ffffffffffffffffffffffffffffffffffffffff1602179055506060820151816003015f6101000a81548173ffffffffffffffffffffffffffffffffffffffff021916908373ffffffffffffffffffffffffffffffffffffffff1602179055506080820151816004019081610fe79190612749565b5060a0820151816005015f6101000a81548163ffffffff021916908363ffffffff16021790555060c0820151816006015560e0820151816007015f6101000a81548160ff02191690831515021790555061010082015181600801559050503373ffffffffffffffffffffffffffffffffffffffff16817f87113c682f3ff0f884995ab703d7a183ad6ece59f3368c69879f8f29ec835d6989888760405161109093929190612818565b60405180910390a38091505095945050505050565b6060805f8060605f805f805f805f8c81526020019081526020015f20604051806101200160405290815f820180546110dc90611ca3565b80601f016020809104026020016040519081016040528092919081815260200182805461110890611ca3565b80156111535780601f1061112a57610100808354040283529160200191611153565b820191905f5260205f20905b81548152906001019060200180831161113657829003601f168201915b5050505050815260200160018201805461116c90611ca3565b80601f016020809104026020016040519081016040528092919081815260200182805461119890611ca3565b80156111e35780601f106111ba576101008083540402835291602001916111e3565b820191905f5260205f20905b8154815290600101906020018083116111c657829003601f168201915b50505050508152602001600282015f9054906101000a900473ffffffffffffffffffffffffffffffffffffffff1673ffffffffffffffffffffffffffffffffffffffff1673ffffffffffffffffffffffffffffffffffffffff168152602001600382015f9054906101000a900473ffffffffffffffffffffffffffffffffffffffff1673ffffffffffffffffffffffffffffffffffffffff1673ffffffffffffffffffffffffffffffffffffffff1681526020016004820180546112a690611ca3565b80601f01602080910402602001604051908101604052809291908181526020018280546112d290611ca3565b801561131d5780601f106112f45761010080835404028352916020019161131d565b820191905f5260205f20905b81548152906001019060200180831161130057829003601f168201915b50505050508152602001600582015f9054906101000a900463ffffffff1663ffffffff1663ffffffff16815260200160068201548152602001600782015f9054906101000a900460ff161515151581526020016008820154815250509050805f015181602001518260400151836060015184608001518560a001518660c001518760e00151886101000151995099509950995099509950995099509950509193959799909294969850565b606060015f8381526020019081526020015f20805480602002602001604051908101604052809291908181526020015f905b828210156114a2578382905f5260205f2001805461141790611ca3565b80601f016020809104026020016040519081016040528092919081815260200182805461144390611ca3565b801561148e5780601f106114655761010080835404028352916020019161148e565b820191905f5260205f20905b81548152906001019060200180831161147157829003601f168201915b5050505050815260200190600101906113fa565b505050509050919050565b60035f9054906101000a900473ffffffffffffffffffffffffffffffffffffffff1681565b5f604051905090565b5f80fd5b5f80fd5b5f819050919050565b6114f5816114e3565b81146114ff575f80fd5b50565b5f81359050611510816114ec565b92915050565b5f80fd5b5f80fd5b5f601f19601f8301169050919050565b7f4e487b71000000000000000000000000000000000000000000000000000000005f52604160045260245ffd5b6115648261151e565b810181811067ffffffffffffffff821117156115835761158261152e565b5b80604052505050565b5f6115956114d2565b90506115a1828261155b565b919050565b5f67ffffffffffffffff8211156115c0576115bf61152e565b5b6115c98261151e565b9050602081019050919050565b828183375f83830152505050565b5f6115f66115f1846115a6565b61158c565b9050828152602081018484840111156116125761161161151a565b5b61161d8482856115d6565b509392505050565b5f82601f83011261163957611638611516565b5b81356116498482602086016115e4565b91505092915050565b5f805f60608486031215611669576116686114db565b5b5f61167686828701611502565b935050602061168786828701611502565b925050604084013567ffffffffffffffff8111156116a8576116a76114df565b5b6116b486828701611625565b9150509250925092565b5f602082840312156116d3576116d26114db565b5b5f6116e084828501611502565b91505092915050565b5f81519050919050565b5f82825260208201905092915050565b5f5b83811015611720578082015181840152602081019050611705565b5f8484015250505050565b5f611735826116e9565b61173f81856116f3565b935061174f818560208601611703565b6117588161151e565b840191505092915050565b5f73ffffffffffffffffffffffffffffffffffffffff82169050919050565b5f61178c82611763565b9050919050565b61179c81611782565b82525050565b5f81519050919050565b5f82825260208201905092915050565b5f6117c6826117a2565b6117d081856117ac565b93506117e0818560208601611703565b6117e98161151e565b840191505092915050565b5f63ffffffff82169050919050565b61180c816117f4565b82525050565b61181b816114e3565b82525050565b5f8115159050919050565b61183581611821565b82525050565b5f610120820190508181035f830152611854818c61172b565b90508181036020830152611868818b61172b565b9050611877604083018a611793565b6118846060830189611793565b818103608083015261189681886117bc565b90506118a560a0830187611803565b6118b260c0830186611812565b6118bf60e083018561182c565b6118cd610100830184611812565b9a9950505050505050505050565b6118e481611782565b81146118ee575f80fd5b50565b5f813590506118ff816118db565b92915050565b5f6020828403121561191a576119196114db565b5b5f611927848285016118f1565b91505092915050565b5f6020820190506119435f830184611812565b92915050565b5f60208201905061195c5f830184611793565b92915050565b5f8060408385031215611978576119776114db565b5b5f61198585828601611502565b925050602061199685828601611502565b9150509250929050565b5f6020820190508181035f8301526119b8818461172b565b905092915050565b5f67ffffffffffffffff8211156119da576119d961152e565b5b6119e38261151e565b9050602081019050919050565b5f611a026119fd846119c0565b61158c565b905082815260208101848484011115611a1e57611a1d61151a565b5b611a298482856115d6565b509392505050565b5f82601f830112611a4557611a44611516565b5b8135611a558482602086016119f0565b91505092915050565b611a67816117f4565b8114611a71575f80fd5b50565b5f81359050611a8281611a5e565b92915050565b5f805f805f60a08688031215611aa157611aa06114db565b5b5f86013567ffffffffffffffff811115611abe57611abd6114df565b5b611aca88828901611625565b955050602086013567ffffffffffffffff811115611aeb57611aea6114df565b5b611af788828901611625565b9450506040611b08888289016118f1565b935050606086013567ffffffffffffffff811115611b2957611b286114df565b5b611b3588828901611a31565b9250506080611b4688828901611a74565b9150509295509295909350565b5f81519050919050565b5f82825260208201905092915050565b5f819050602082019050919050565b5f82825260208201905092915050565b5f611b96826116e9565b611ba08185611b7c565b9350611bb0818560208601611703565b611bb98161151e565b840191505092915050565b5f611bcf8383611b8c565b905092915050565b5f602082019050919050565b5f611bed82611b53565b611bf78185611b5d565b935083602082028501611c0985611b6d565b805f5b85811015611c445784840389528151611c258582611bc4565b9450611c3083611bd7565b925060208a01995050600181019050611c0c565b50829750879550505050505092915050565b5f6020820190508181035f830152611c6e8184611be3565b905092915050565b7f4e487b71000000000000000000000000000000000000000000000000000000005f52602260045260245ffd5b5f6002820490506001821680611cba57607f821691505b602082108103611ccd57611ccc611c76565b5b50919050565b7f4f6e6c79206f776e6572000000000000000000000000000000000000000000005f82015250565b5f611d07600a836116f3565b9150611d1282611cd3565b602082019050919050565b5f6020820190508181035f830152611d3481611cfb565b9050919050565b7f496e76616c696420726f757465720000000000000000000000000000000000005f82015250565b5f611d6f600e836116f3565b9150611d7a82611d3b565b602082019050919050565b5f6020820190508181035f830152611d9c81611d63565b9050919050565b7f43616d706169676e206e6f7420666f756e6400000000000000000000000000005f82015250565b5f611dd76012836116f3565b9150611de282611da3565b602082019050919050565b5f6020820190508181035f830152611e0481611dcb565b9050919050565b7f416c726561647920666f727761726465640000000000000000000000000000005f82015250565b5f611e3f6011836116f3565b9150611e4a82611e0b565b602082019050919050565b5f6020820190508181035f830152611e6c81611e33565b9050919050565b7f4e6f7468696e6720746f20666f727761726400000000000000000000000000005f82015250565b5f611ea76012836116f3565b9150611eb282611e73565b602082019050919050565b5f6020820190508181035f830152611ed481611e9b565b9050919050565b7f58434d20726f75746572206e6f742073657400000000000000000000000000005f82015250565b5f611f0f6012836116f3565b9150611f1a82611edb565b602082019050919050565b5f6020820190508181035f830152611f3c81611f03565b9050919050565b5f604082019050611f565f830185611793565b611f636020830184611812565b9392505050565b611f7381611821565b8114611f7d575f80fd5b50565b5f81519050611f8e81611f6a565b92915050565b5f60208284031215611fa957611fa86114db565b5b5f611fb684828501611f80565b91505092915050565b5f819050815f5260205f209050919050565b5f8154611fdd81611ca3565b611fe781866117ac565b9450600182165f8114612001576001811461201757612049565b60ff198316865281151560200286019350612049565b61202085611fbf565b5f5b8381101561204157815481890152600182019150602081019050612022565b808801955050505b50505092915050565b5f819050919050565b5f67ffffffffffffffff82169050919050565b5f819050919050565b5f61209161208c61208784612052565b61206e565b61205b565b9050919050565b6120a181612077565b82525050565b5f60a0820190506120ba5f830188611793565b6120c76020830187611812565b81810360408301526120d98186611fd1565b90506120e86060830185611803565b6120f56080830184612098565b9695505050505050565b5f6040820190506121125f830185611812565b61211f6020830184611803565b9392505050565b7f416d6f756e74206d757374206265203e203000000000000000000000000000005f82015250565b5f61215a6012836116f3565b915061216582612126565b602082019050919050565b5f6020820190508181035f8301526121878161214e565b9050919050565b5f6060820190506121a15f830186611793565b6121ae6020830185611793565b6121bb6040830184611812565b949350505050565b7f5472616e73666572206661696c656400000000000000000000000000000000005f82015250565b5f6121f7600f836116f3565b9150612202826121c3565b602082019050919050565b5f6020820190508181035f830152612224816121eb565b9050919050565b7f4e487b71000000000000000000000000000000000000000000000000000000005f52601160045260245ffd5b5f612262826114e3565b915061226d836114e3565b92508282019050808211156122855761228461222b565b5b92915050565b5f819050815f5260205f209050919050565b5f6020601f8301049050919050565b5f82821b905092915050565b5f600883026122e77fffffffffffffffffffffffffffffffffffffffffffffffffffffffffffffffff826122ac565b6122f186836122ac565b95508019841693508086168417925050509392505050565b5f61232361231e612319846114e3565b61206e565b6114e3565b9050919050565b5f819050919050565b61233c83612309565b6123506123488261232a565b8484546122b8565b825550505050565b5f90565b612364612358565b61236f818484612333565b505050565b5b81811015612392576123875f8261235c565b600181019050612375565b5050565b601f8211156123d7576123a88161228b565b6123b18461229d565b810160208510156123c0578190505b6123d46123cc8561229d565b830182612374565b50505b505050565b5f82821c905092915050565b5f6123f75f19846008026123dc565b1980831691505092915050565b5f61240f83836123e8565b9150826002028217905092915050565b612428826116e9565b67ffffffffffffffff8111156124415761244061152e565b5b61244b8254611ca3565b612456828285612396565b5f60209050601f831160018114612487575f8415612475578287015190505b61247f8582612404565b8655506124e6565b601f1984166124958661228b565b5f5b828110156124bc57848901518255600182019150602085019450602081019050612497565b868310156124d957848901516124d5601f8916826123e8565b8355505b6001600288020188555050505b505050505050565b5f6040820190506125015f830185611812565b8181036020830152612513818461172b565b90509392505050565b7f4e616d65207265717569726564000000000000000000000000000000000000005f82015250565b5f612550600d836116f3565b915061255b8261251c565b602082019050919050565b5f6020820190508181035f83015261257d81612544565b9050919050565b7f496e76616c6964206173736574000000000000000000000000000000000000005f82015250565b5f6125b8600d836116f3565b91506125c382612584565b602082019050919050565b5f6020820190508181035f8301526125e5816125ac565b9050919050565b7f496e76616c69642070617261636861696e2049440000000000000000000000005f82015250565b5f6126206014836116f3565b915061262b826125ec565b602082019050919050565b5f6020820190508181035f83015261264d81612614565b9050919050565b7f42656e65666963696172792072657175697265640000000000000000000000005f82015250565b5f6126886014836116f3565b915061269382612654565b602082019050919050565b5f6020820190508181035f8301526126b58161267c565b9050919050565b5f6126c6826114e3565b91507fffffffffffffffffffffffffffffffffffffffffffffffffffffffffffffffff82036126f8576126f761222b565b5b600182019050919050565b601f8211156127445761271581611fbf565b61271e8461229d565b8101602085101561272d578190505b6127416127398561229d565b830182612374565b50505b505050565b612752826117a2565b67ffffffffffffffff81111561276b5761276a61152e565b5b6127758254611ca3565b612780828285612703565b5f60209050601f8311600181146127b1575f841561279f578287015190505b6127a98582612404565b865550612810565b601f1984166127bf86611fbf565b5f5b828110156127e6578489015182556001820191506020850194506020810190506127c1565b8683101561280357848901516127ff601f8916826123e8565b8355505b6001600288020188555050505b505050505050565b5f6060820190508181035f830152612830818661172b565b905061283f6020830185611793565b61284c6040830184611803565b94935050505056fea2646970667358221220f371c399ec891bd65650c15705628591db5e2c8c1b7dfccfb303cc787bd55d4f64736f6c63430008140033",
  "linkReferences": {},
  "deployedLinkReferences": {},
  "immutableReferences": {},
  "inputSourceName": "project/contracts/TipsyDot.sol",
  "buildInfoId": "solc-0_8_20-4450347bc3500c408bf7d63b23f6763560f88769"
}