{"abi":[{"type":"function","name":"ASSET_ID","inputs":[],"outputs":[{"name":"","type":"uint32","internalType":"uint32"}],"stateMutability":"view"},{"type":"function","name":"DECIMALS","inputs":[],"outputs":[{"name":"","type":"uint8","internalType":"uint8"}],"stateMutability":"view"},{"type":"function","name":"USDC_PRECOMPILE","inputs":[],"outputs":[{"name":"","type":"address","internalType":"address"}],"stateMutability":"view"}],"bytecode":{"object":"0x60d9610034600b8282823980515f1a60731461002857634e487b7160e01b5f525f60045260245ffd5b305f52607381538281f3fe73000000000000000000000000000000000000000030146080604052600436106046575f3560e01c80632e0f262514604a5780639aa0a5651460685780639ceb21ae146087575b5f80fd5b6051600681565b60405160ff90911681526020015b60405180910390f35b607061080081565b6040516001600160a01b039091168152602001605f565b608f617a6981565b60405163ffffffff9091168152602001605f56fea264697066735822122060014c09c2429a3e5b41fae3c9aac4378a4a9e6391dd55634f88ad6af62bba1464736f6c63430008140033","linkReferences":{}},"methodIdentifiers":{"ASSET_ID()":"9ceb21ae","DECIMALS()":"2e0f2625","USDC_PRECOMPILE()":"9aa0a565"},"id":4}