{"abi":[{"type":"constructor","inputs":[{"name":"_treasury","type":"address","internalType":"address"},{"name":"_bridgedUSDC","type":"address","internalType":"address"}],"stateMutability":"nonpayable"},{"type":"function","name":"BPS_DENOMINATOR","inputs":[],"outputs":[{"name":"","type":"uint256","internalType":"uint256"}],"stateMutability":"view"},{"type":"function","name":"PROTOCOL_FEE_BPS","inputs":[],"outputs":[{"name":"","type":"uint256","internalType":"uint256"}],"stateMutability":"view"},{"type":"function","name":"allParachainIds","inputs":[{"name":"","type":"uint256","internalType":"uint256"}],"outputs":[{"name":"","type":"uint32","internalType":"uint32"}],"stateMutability":"view"},{"type":"function","name":"bridgedUSDC","inputs":[],"outputs":[{"name":"","type":"address","internalType":"address"}],"stateMutability":"view"},{"type":"function","name":"calculateFee","inputs":[{"name":"amount","type":"uint256","internalType":"uint256"}],"outputs":[{"name":"grossAmount","type":"uint256","internalType":"uint256"},{"name":"protocolFee","type":"uint256","internalType":"uint256"},{"name":"netAmount","type":"uint256","internalType":"uint256"}],"stateMutability":"pure"},{"type":"function","name":"evmAddressToParaId","inputs":[{"name":"","type":"address","internalType":"address"}],"outputs":[{"name":"","type":"uint32","internalType":"uint32"}],"stateMutability":"view"},{"type":"function","name":"forwardToParachain","inputs":[{"name":"paraId","type":"uint32","internalType":"uint32"}],"outputs":[{"name":"","type":"bool","internalType":"bool"}],"stateMutability":"nonpayable"},{"type":"function","name":"getAllParachainIds","inputs":[],"outputs":[{"name":"","type":"uint32[]","internalType":"uint32[]"}],"stateMutability":"view"},{"type":"function","name":"getParachainDetails","inputs":[{"name":"paraId","type":"uint32","internalType":"uint32"}],"outputs":[{"name":"name","type":"string","internalType":"string"},{"name":"description","type":"string","internalType":"string"},{"name":"evmAddress","type":"address","internalType":"address"},{"name":"substrateAddress","type":"bytes32","internalType":"bytes32"},{"name":"verified","type":"bool","internalType":"bool"},{"name":"totalReceived","type":"uint256","internalType":"uint256"},{"name":"tipCount","type":"uint256","internalType":"uint256"}],"stateMutability":"view"},{"type":"function","name":"getParachainTips","inputs":[{"name":"paraId","type":"uint32","internalType":"uint32"},{"name":"offset","type":"uint256","internalType":"uint256"},{"name":"limit","type":"uint256","internalType":"uint256"}],"outputs":[{"name":"","type":"tuple[]","internalType":"struct TipsyDotV4.Tip[]","components":[{"name":"tipper","type":"address","internalType":"address"},{"name":"paraId","type":"uint32","internalType":"uint32"},{"name":"amount","type":"uint256","internalType":"uint256"},{"name":"protocolFee","type":"uint256","internalType":"uint256"},{"name":"message","type":"string","internalType":"string"},{"name":"timestamp","type":"uint256","internalType":"uint256"},{"name":"xcmTxHash","type":"bytes32","internalType":"bytes32"}]}],"stateMutability":"view"},{"type":"function","name":"getTipperStats","inputs":[{"name":"tipper","type":"address","internalType":"address"}],"outputs":[{"name":"totalTipped","type":"uint256","internalType":"uint256"},{"name":"tipCount","type":"uint256","internalType":"uint256"},{"name":"supportedParachains","type":"uint32[]","internalType":"uint32[]"},{"name":"firstTipTime","type":"uint256","internalType":"uint256"},{"name":"lastTipTime","type":"uint256","internalType":"uint256"}],"stateMutability":"view"},{"type":"function","name":"owner","inputs":[],"outputs":[{"name":"","type":"address","internalType":"address"}],"stateMutability":"view"},{"type":"function","name":"parachainTips","inputs":[{"name":"","type":"uint32","internalType":"uint32"},{"name":"","type":"uint256","internalType":"uint256"}],"outputs":[{"name":"tipper","type":"address","internalType":"address"},{"name":"paraId","type":"uint32","internalType":"uint32"},{"name":"amount","type":"uint256","internalType":"uint256"},{"name":"protocolFee","type":"uint256","internalType":"uint256"},{"name":"message","type":"string","internalType":"string"},{"name":"timestamp","type":"uint256","internalType":"uint256"},{"name":"xcmTxHash","type":"bytes32","internalType":"bytes32"}],"stateMutability":"view"},{"type":"function","name":"parachains","inputs":[{"name":"","type":"uint32","internalType":"uint32"}],"outputs":[{"name":"paraId","type":"uint32","internalType":"uint32"},{"name":"name","type":"string","internalType":"string"},{"name":"description","type":"string","internalType":"string"},{"name":"evmAddress","type":"address","internalType":"address"},{"name":"substrateAddress","type":"bytes32","internalType":"bytes32"},{"name":"registrar","type":"address","internalType":"address"},{"name":"verified","type":"bool","internalType":"bool"},{"name":"totalReceived","type":"uint256","internalType":"uint256"},{"name":"tipCount","type":"uint256","internalType":"uint256"},{"name":"registeredAt","type":"uint256","internalType":"uint256"}],"stateMutability":"view"},{"type":"function","name":"pause","inputs":[],"outputs":[],"stateMutability":"nonpayable"},{"type":"function","name":"paused","inputs":[],"outputs":[{"name":"","type":"bool","internalType":"bool"}],"stateMutability":"view"},{"type":"function","name":"protocolFeesBalance","inputs":[],"outputs":[{"name":"","type":"uint256","internalType":"uint256"}],"stateMutability":"view"},{"type":"function","name":"registerParachain","inputs":[{"name":"paraId","type":"uint32","internalType":"uint32"},{"name":"name","type":"string","internalType":"string"},{"name":"description","type":"string","internalType":"string"},{"name":"evmAddress","type":"address","internalType":"address"},{"name":"substrateAddress","type":"bytes32","internalType":"bytes32"}],"outputs":[{"name":"","type":"bool","internalType":"bool"}],"stateMutability":"nonpayable"},{"type":"function","name":"registrarParachains","inputs":[{"name":"","type":"address","internalType":"address"},{"name":"","type":"uint256","internalType":"uint256"}],"outputs":[{"name":"","type":"uint32","internalType":"uint32"}],"stateMutability":"view"},{"type":"function","name":"renounceOwnership","inputs":[],"outputs":[],"stateMutability":"nonpayable"},{"type":"function","name":"setBridgedUSDC","inputs":[{"name":"_bridgedUSDC","type":"address","internalType":"address"}],"outputs":[],"stateMutability":"nonpayable"},{"type":"function","name":"setTreasury","inputs":[{"name":"_treasury","type":"address","internalType":"address"}],"outputs":[],"stateMutability":"nonpayable"},{"type":"function","name":"tipParachain","inputs":[{"name":"paraId","type":"uint32","internalType":"uint32"},{"name":"amount","type":"uint256","internalType":"uint256"},{"name":"message","type":"string","internalType":"string"}],"outputs":[{"name":"","type":"bool","internalType":"bool"}],"stateMutability":"nonpayable"},{"type":"function","name":"tipperHistory","inputs":[{"name":"","type":"address","internalType":"address"},{"name":"","type":"uint256","internalType":"uint256"}],"outputs":[{"name":"tipper","type":"address","internalType":"address"},{"name":"paraId","type":"uint32","internalType":"uint32"},{"name":"amount","type":"uint256","internalType":"uint256"},{"name":"protocolFee","type":"uint256","internalType":"uint256"},{"name":"message","type":"string","internalType":"string"},{"name":"timestamp","type":"uint256","internalType":"uint256"},{"name":"xcmTxHash","type":"bytes32","internalType":"bytes32"}],"stateMutability":"view"},{"type":"function","name":"tipperStats","inputs":[{"name":"","type":"address","internalType":"address"}],"outputs":[{"name":"totalTipped","type":"uint256","internalType":"uint256"},{"name":"tipCount","type":"uint256","internalType":"uint256"},{"name":"firstTipTime","type":"uint256","internalType":"uint256"},{"name":"lastTipTime","type":"uint256","internalType":"uint256"}],"stateMutability":"view"},{"type":"function","name":"totalProtocolFeesCollected","inputs":[],"outputs":[{"name":"","type":"uint256","internalType":"uint256"}],"stateMutability":"view"},{"type":"function","name":"transferOwnership","inputs":[{"name":"newOwner","type":"address","internalType":"address"}],"outputs":[],"stateMutability":"nonpayable"},{"type":"function","name":"treasury","inputs":[],"outputs":[{"name":"","type":"address","internalType":"address"}],"stateMutability":"view"},{"type":"function","name":"unpause","inputs":[],"outputs":[],"stateMutability":"nonpayable"},{"type":"function","name":"verifyParachain","inputs":[{"name":"paraId","type":"uint32","internalType":"uint32"}],"outputs":[],"stateMutability":"nonpayable"},{"type":"function","name":"withdrawProtocolFees","inputs":[{"name":"amount","type":"uint256","internalType":"uint256"}],"outputs":[],"stateMutability":"nonpayable"},{"type":"function","name":"xcmTransfersProcessed","inputs":[{"name":"","type":"bytes32","internalType":"bytes32"}],"outputs":[{"name":"","type":"bool","internalType":"bool"}],"stateMutability":"view"},{"type":"event","name":"FundsForwarded","inputs":[{"name":"paraId","type":"uint32","indexed":true,"internalType":"uint32"},{"name":"recipient","type":"address","indexed":false,"internalType":"address"},{"name":"amount","type":"uint256","indexed":false,"internalType":"uint256"},{"name":"xcmTxHash","type":"bytes32","indexed":false,"internalType":"bytes32"}],"anonymous":false},{"type":"event","name":"OwnershipTransferred","inputs":[{"name":"previousOwner","type":"address","indexed":true,"internalType":"address"},{"name":"newOwner","type":"address","indexed":true,"internalType":"address"}],"anonymous":false},{"type":"event","name":"ParachainRegistered","inputs":[{"name":"paraId","type":"uint32","indexed":true,"internalType":"uint32"},{"name":"name","type":"string","indexed":false,"internalType":"string"},{"name":"evmAddress","type":"address","indexed":true,"internalType":"address"},{"name":"registrar","type":"address","indexed":true,"internalType":"address"}],"anonymous":false},{"type":"event","name":"ParachainVerified","inputs":[{"name":"paraId","type":"uint32","indexed":true,"internalType":"uint32"}],"anonymous":false},{"type":"event","name":"Paused","inputs":[{"name":"account","type":"address","indexed":false,"internalType":"address"}],"anonymous":false},{"type":"event","name":"ProtocolFeesWithdrawn","inputs":[{"name":"to","type":"address","indexed":true,"internalType":"address"},{"name":"amount","type":"uint256","indexed":false,"internalType":"uint256"}],"anonymous":false},{"type":"event","name":"Tipped","inputs":[{"name":"paraId","type":"uint32","indexed":true,"internalType":"uint32"},{"name":"tipper","type":"address","indexed":true,"internalType":"address"},{"name":"amount","type":"uint256","indexed":false,"internalType":"uint256"},{"name":"protocolFee","type":"uint256","indexed":false,"internalType":"uint256"},{"name":"message","type":"string","indexed":false,"internalType":"string"}],"anonymous":false},{"type":"event","name":"Unpaused","inputs":[{"name":"account","type":"address","indexed":false,"internalType":"address"}],"anonymous":false},{"type":"event","name":"XCMBridgeCompleted","inputs":[{"name":"txHash","type":"bytes32","indexed":true,"internalType":"bytes32"},{"name":"recipient","type":"address","indexed":true,"internalType":"address"},{"name":"amount","type":"uint256","indexed":false,"internalType":"uint256"}],"anonymous":false},{"type":"error","name":"EnforcedPause","inputs":[]},{"type":"error","name":"ExpectedPause","inputs":[]},{"type":"error","name":"OwnableInvalidOwner","inputs":[{"name":"owner","type":"address","internalType":"address"}]},{"type":"error","name":"OwnableUnauthorizedAccount","inputs":[{"name":"account","type":"address","internalType":"address"}]},{"type":"error","name":"ReentrancyGuardReentrantCall","inputs":[]}],"bytecode":{"object":"0x608034620000ee57601f620024fa38819003918201601f19168301916001600160401b03831184841017620000f2578084926040948552833981010312620000ee576200005a6020620000528362000106565b920162000106565b3315620000d6575f8054336001600160a01b0319808316821784556040519590946001600160a01b03949093859391908416907f8be0079c531659141344cd1fd0a4f28419497f9722a3daafe3b4186f6b6457e09080a3600180551683600b541617600b551690600c541617600c556123de90816200011c8239f35b604051631e4fbdf760e01b81525f6004820152602490fd5b5f80fd5b634e487b7160e01b5f52604160045260245ffd5b51906001600160a01b0382168203620000ee5756fe6080806040526004361015610012575f80fd5b5f3560e01c90816303beb5cb14611bb0575080631410c1d014611ad85780631fe941ed14611a9a57806335f5cd771461198d5780633f4ba83a1461191e5780634f4491381461180d5780635c975abb146117e95780635fe0183e1461160957806361d027b3146115e15780636853fa9e146115c45780636e3213c2146114e8578063715018a6146114915780637394e62714611474578063794bee591461144c5780638456cb59146113ec5780638bec50d9146113645780638da5cb5b1461133d57806390d4636214610d065780639379d48914610c7f57806399a5d74714610c20578063aa39978e146109d7578063be378228146109bc578063ccf496f61461095b578063d2d266581461079d578063e1a4521814610781578063e71612cc14610421578063e72766d31461039e578063e847b6671461036f578063f0f44260146102f0578063f2fde38b1461026b578063f539fab0146101dd5763fd1d2e011461017c575f80fd5b346101d95760403660031901126101d957610195611c06565b6001600160a01b03165f9081526003602052604090208054602435908110156101d9576101c963ffffffff91602093611e8e565b90549060031b1c16604051908152f35b5f80fd5b346101d95760403660031901126101d9576101f6611c06565b6001600160a01b039081165f9081526007602052604090208054602435908110156101d95761022491611e2c565b5090610267825492600181015490600281015461024360038301611cbf565b90600560048401549301549360405197889763ffffffff8260a01c16911688611e45565b0390f35b346101d95760203660031901126101d957610284611c06565b61028c61233a565b6001600160a01b039081169081156102d8575f54826001600160601b0360a01b8216175f55167f8be0079c531659141344cd1fd0a4f28419497f9722a3daafe3b4186f6b6457e05f80a3005b604051631e4fbdf760e01b81525f6004820152602490fd5b346101d95760203660031901126101d957610309611c06565b61031161233a565b6001600160a01b03168015610337576001600160601b0360a01b600b541617600b555f80f35b60405162461bcd60e51b815260206004820152601060248201526f496e76616c696420747265617375727960801b6044820152606490fd5b346101d95760203660031901126101d9576004355f52600d602052602060ff60405f2054166040519015158152f35b346101d95760203660031901126101d9576103b7611c06565b6103bf61233a565b6001600160a01b031680156103e5576001600160601b0360a01b600c541617600c555f80f35b60405162461bcd60e51b8152602060048201526014602482015273496e76616c69642055534443206164647265737360601b6044820152606490fd5b346101d95760603660031901126101d95761043a611c1c565b60248035906044356001600160401b0381116101d95761045e903690600401611dd7565b610466612365565b63ffffffff9384811690815f526020956002875261048c600860405f2001541515611ee8565b610494612385565b851561074857600a8602868104600a03610735576127109004906104b88288611f34565b600c546040516323b872dd60e01b815233600482015230818a0152604481018a9052919491908a90829060649082905f906001600160a01b03165af1801561072a576106fd575b50845f5260028952600660405f2001610519858254611f59565b9055845f5260028952600760405f20019687546001988982018092116106ea575561054684600a54611f59565b600a5561055584600954611f59565b6009556105b160405161056781611c83565b338152878c8201528660408201528560608201528860808201524260a08201525f60c0820152875f5260068c526105a18160405f20611f66565b335f5260078c5260405f20611f66565b335f5260088a526105c760405f20998a54611f59565b89558789018054918983018093116106d75750556003918289018054156106ce575b504260048a01555f9060025f9a019384549a5b8b8110610674575b5050507fe75c6f66e83f51cab63a50e434c96ed49725fdb2d800e2d98227d4f2ef65a8da959697985015610664575b505060405191825286820152606060408201528061065633956060830190611d60565b0390a3808055604051908152f35b61066d91611eaf565b8780610633565b88836106808389611e8e565b905490851b1c161461069a576106959061211a565b6105fc565b509899508998508891507fe75c6f66e83f51cab63a50e434c96ed49725fdb2d800e2d98227d4f2ef65a8da90508b80610604565b4290558a6105e9565b634e487b7160e01b5f9081526011600452fd5b82634e487b7160e01b5f5260116004525ffd5b61071c908a3d8c11610723575b6107148183611c9e565b810190611f41565b50896104ff565b503d61070a565b6040513d5f823e3d90fd5b85634e487b7160e01b5f5260116004525ffd5b60405162461bcd60e51b815260048101889052601281870152710416d6f756e74206d757374206265203e20360741b6044820152606490fd5b346101d9575f3660031901126101d95760206040516127108152f35b346101d9576020806003193601126101d9576107b7611c1c565b6107bf612365565b63ffffffff811690815f52600283526107e0600860405f2001541515611ee8565b6107e8612385565b815f526002835260405f2060068101918254928315610920575f90819055600c54600393909301805460405163a9059cbb60e01b81526001600160a01b0391821660048201526024810187905290949192909188918391604491839189165af1801561072a57610903575b5054604051918683019063ffffffff60e01b9060e01b1681526001600160601b03198260601b1660248401528460388401524260588401526058835260808301928084106001600160401b038511176108ef577ffb453ef1d98bd14386e912c0830918d18edea158d37da8ae1c2baf04ef458b479560609560c09386604052835190209416855260a08201520152a26001805560405160018152f35b634e487b7160e01b5f52604160045260245ffd5b61091990873d8911610723576107148183611c9e565b5086610853565b60405162461bcd60e51b8152600481018790526013602482015272139bc8199d5b991cc81d1bc8199bdc9dd85c99606a1b6044820152606490fd5b346101d95760203660031901126101d9576004356005548110156101d95760209060055f5263ffffffff8160031c7f036b6384b5eca791c62761152d0c79bb0604c104a5fb6f4eb0703f3154bb3db0015460e06040519360051b161c168152f35b346101d9575f3660031901126101d9576020604051600a8152f35b346101d9576020806003193601126101d9576001600160a01b036109f9611c06565b165f5260089081815260405f206040519060a0918281018181106001600160401b038211176108ef576040528154815260019485830154938583019485526002840160405180938883549283815201925f52885f205f915b836007840110610bb857508594938b610ab894610af198948d94549285838310610ba2575b838310610b8a575b838310610b71575b838310610b58575b838310610b3f575b838310610b27575b838310610b0e575b505010610b00575b5090500383611c9e565b81604085015260046003860154958660608701520154938460808201525195516040519788978852870152806040870152850190611d9e565b91606084015260808301520390f35b60e01c81520189908b610aae565b90919463ffffffff8560c01c1681520193018e85610aa6565b81929563ffffffff868c1c1681520194019085610a9e565b81929563ffffffff8660801c1681520194019085610a96565b81929563ffffffff8660601c1681520194019085610a8e565b81929563ffffffff8660401c1681520194019085610a86565b81929563ffffffff86831c1681520194019085610a7e565b81929563ffffffff861681520194019085610a76565b8b61010083968d849695549063ffffffff9081831684528183821c1690840152808260401c16604084015260608183821c169084015260808183821c169084015280828c1c168b84015260c09082821c169083015260e01c60e0820152019501910191610a51565b346101d95760203660031901126101d957600435600a810290808204600a1481151715610c6b5761271060609204610c588183611f34565b9060405192835260208301526040820152f35b634e487b7160e01b5f52601160045260245ffd5b346101d95760403660031901126101d957610c98611c1c565b60243563ffffffff8092165f52600660205260405f209081548110156101d957610cc191611e2c565b50906102678254926001810154906002810154610ce060038301611cbf565b9060056004840154930154936040519788978160a01c169060018060a01b031688611e45565b346101d95760a03660031901126101d957610d1f611c1c565b6024356001600160401b0381116101d957610d3e903690600401611dd7565b9060449182356001600160401b0381116101d957610d60903690600401611dd7565b60648035946001600160a01b03861686036101d957610d7d612365565b63ffffffff851615611305578351156112d4576001600160a01b0386161561129d5763ffffffff85165f526002602052600860405f200154611267576001600160a01b0386165f9081526004602052604090205463ffffffff1661122f57505060405190610dea82611c67565b63ffffffff84168252826020830152604082015260018060a01b038416606082015260843560808201523360a08201525f60c08201525f60e08201525f6101008201524261012082015263ffffffff83165f52600260205260405f209063ffffffff81511663ffffffff1983541617825560208101518051906001600160401b0382116108ef578190610e806001860154611c2f565b601f81116111df575b50602090601f8311600114611171575f92611166575b50508160011b915f199060031b1c19161760018301555b60408101518051906001600160401b0382116108ef57610ed96002850154611c2f565b601f8111611122575b50602090601f83116001146110b057918060089492610120945f926110a5575b50508160011b915f199060031b1c19161760028501555b6003840160018060a01b036060830151166001600160601b0360a01b825416179055608081015160048501556005840160018060a01b0360a08301511681549060ff60a01b60c0850151151560a01b16916affffffffffffffffffffff60a81b161717905560e0810151600685015561010081015160078501550151910155335f526003602052610fad8260405f20611eaf565b6001600160a01b0383165f908152600460205260409020805463ffffffff191663ffffffff8416179055600554600160401b8110156108ef5760018101806005558110156110915760055f528060031c7f036b6384b5eca791c62761152d0c79bb0604c104a5fb6f4eb0703f3154bb3db0019060e082549160051b169063ffffffff808616831b921b19161790557f1f66de7808e78e97a2d28b7b52d7ed8cc1c520797b2bb75ecf65cd9d910b2293604051602081528061108363ffffffff339760018060a01b03169616946020830190611d60565b0390a4602060405160018152f35b634e487b7160e01b5f52603260045260245ffd5b015190508980610f02565b90600285015f5260205f20915f5b601f198516811061110a575092600894926001926101209583601f198116106110f2575b505050811b016002850155610f19565b01515f1960f88460031b161c191690558980806110e2565b919260206001819286850151815501940192016110be565b600285015f5260205f20601f840160051c81016020851061115f575b601f830160051c82018110611154575050610ee2565b5f815560010161113e565b508061113e565b015190508780610e9f565b9250600185015f5260205f20905f935b601f19841685106111c4576001945083601f198116106111ac575b505050811b016001830155610eb6565b01515f1960f88460031b161c1916905587808061119c565b81810151835560209485019460019093019290910190611181565b909150600185015f5260205f20601f840160051c810160208510611228575b90849392915b601f830160051c8201811061121a575050610e89565b5f8155859450600101611204565b50806111fe565b731059191c995cdcc8185b1c9958591e481d5cd95960621b6040519162461bcd60e51b83526020600484015260146024840152820152fd5b71105b1c9958591e481c9959da5cdd195c995960721b6040519162461bcd60e51b83526020600484015260126024840152820152fd5b72496e76616c69642045564d206164647265737360681b6040519162461bcd60e51b83526020600484015260136024840152820152fd5b6c13985b59481c995c5d5a5c9959609a1b6040519162461bcd60e51b835260206004840152600d6024840152820152fd5b73125b9d985b1a59081c185c9858da185a5b88125160621b6040519162461bcd60e51b83526020600484015260146024840152820152fd5b346101d9575f3660031901126101d9575f546040516001600160a01b039091168152602090f35b346101d95760203660031901126101d95763ffffffff611382611c1c565b61138a61233a565b16805f5260026020526113a5600860405f2001541515611ee8565b5f818152600260205260408120600501805460ff60a01b1916600160a01b1790557f454e3221c0fbb3cf2561700fee30755701ab5ef101dabd72e35dfe8b216682079080a2005b346101d9575f3660031901126101d95761140461233a565b61140c612365565b5f805460ff60a01b1916600160a01b1790556040513381527f62e78cea01bee320cd4e420270b5ea74000d11b0c9f74754ebdbfc544b05a25890602090a1005b346101d9575f3660031901126101d957600c546040516001600160a01b039091168152602090f35b346101d9575f3660031901126101d9576020600954604051908152f35b346101d9575f3660031901126101d9576114a961233a565b5f80546001600160a01b0319811682556001600160a01b03167f8be0079c531659141344cd1fd0a4f28419497f9722a3daafe3b4186f6b6457e08280a3005b346101d9576060806003193601126101d957611512611505611c1c565b6044359060243590612153565b604051906020808301818452825180915260408401918060408360051b8701019401925f965b8388106115455786860387f35b90919293948380600192603f198a8203018652885190848060a01b03825116815263ffffffff83830151168382015260408201516040820152858201518682015261159f608060e0818501519184015260e0830190611d60565b9160a0808201519083015260c080910151910152970193019701969093929193611538565b346101d9575f3660031901126101d9576020600a54604051908152f35b346101d9575f3660031901126101d957600b546040516001600160a01b039091168152602090f35b346101d9575f3660031901126101d957604051806005548082528260208080940160055f527f036b6384b5eca791c62761152d0c79bb0604c104a5fb6f4eb0703f3154bb3db0935f905b806007830110611779576116ac95549184828210611763575b82821061174b575b828210611732575b828210611719575b828210611700575b8282106116e7575b8282106116ce575b50106116c0575090500383611c9e565b610267604051928284938452830190611d9e565b60e01c815201839086610aae565b6001919463ffffffff8560c01c1681520193018461169c565b6001919463ffffffff8560a01c16815201930184611694565b6001919463ffffffff8560801c1681520193018461168c565b6001919463ffffffff8560601c16815201930184611684565b6001919463ffffffff8560401c1681520193018461167c565b6001919463ffffffff85831c16815201930184611674565b6001919463ffffffff851681520193018461166c565b925092506001610100600892865463ffffffff808216835280828b1c168a840152808260401c16604084015260608183821c169084015260808183821c169084015260a08183821c169084015260c09082821c169083015260e01c60e08201520194019201928592938592611653565b346101d9575f3660031901126101d957602060ff5f5460a01c166040519015158152f35b346101d9576020806003193601126101d9576004359061182b61233a565b600a548083116118e557906118438361188793611f34565b600a55600c54600b5460405163a9059cbb60e01b81526001600160a01b039182166004820152602481018690529390918391859184169082905f9082906044820190565b03925af192831561072a577fa087657e3d85162090ffd700fbfdf5070d816f63aa5da00063f6ffd369c8a6db936118c8575b50600b541692604051908152a2005b6118de90833d8511610723576107148183611c9e565b50846118b9565b60405162461bcd60e51b8152600481018390526011602482015270496e73756666696369656e74206665657360781b6044820152606490fd5b346101d9575f3660031901126101d95761193661233a565b5f5460ff8160a01c161561197b5760ff60a01b19165f556040513381527f5db9ee0a495bf2e6ff9c91a7834c1ba4fdd244a5e8aa4e537bd38aeae4b073aa90602090a1005b604051638dfc202b60e01b8152600490fd5b346101d95760203660031901126101d957611a6e63ffffffff806119af611c1c565b165f52600260205260405f20604051916119c883611c67565b81541682526119d960018201611cbf565b90602083019182526119ed60028201611cbf565b9283604082015260018060a01b03928360038401541693846060840152611a7c60ff600486015492836080870152600587015490811660a087015260a01c161515928360c08601526006860154948560e08201526101206008600789015498896101008501520154910152519660405198899860e08a5260e08a0190611d60565b9088820360208a0152611d60565b9460408701526060860152608085015260a084015260c08301520390f35b346101d95760203660031901126101d9576001600160a01b03611abb611c06565b165f526004602052602063ffffffff60405f205416604051908152f35b346101d95760203660031901126101d95763ffffffff80611af7611c1c565b165f52600260205260405f2090815416611b1360018301611cbf565b91611b2060028201611cbf565b60018060a01b0391826003820154169260ff600483015491600584015490600685015493611b7e6008600788015497015497611b706040519c8d9c8d5260208d61014091829101528d0190611d60565b908b820360408d0152611d60565b9760608a01526080890152811660a088015260a01c16151560c086015260e08501526101008401526101208301520390f35b346101d95760203660031901126101d9576080906001600160a01b03611bd4611c06565b165f52600860205260405f20805490600181015460046003830154920154928452602084015260408301526060820152f35b600435906001600160a01b03821682036101d957565b6004359063ffffffff821682036101d957565b90600182811c92168015611c5d575b6020831014611c4957565b634e487b7160e01b5f52602260045260245ffd5b91607f1691611c3e565b61014081019081106001600160401b038211176108ef57604052565b60e081019081106001600160401b038211176108ef57604052565b90601f801991011681019081106001600160401b038211176108ef57604052565b9060405191825f825492611cd284611c2f565b9081845260019485811690815f14611d3d5750600114611cfd575b5050611cfb92500383611c9e565b565b909391505f52602090815f20935f915b818310611d25575050611cfb93508201015f80611ced565b85548884018501529485019487945091830191611d0d565b915050611cfb94506020925060ff191682840152151560051b8201015f80611ced565b91908251928382525f5b848110611d8a575050825f602080949584010152601f8019910116010190565b602081830181015184830182015201611d6a565b9081518082526020808093019301915f5b828110611dbd575050505090565b835163ffffffff1685529381019392810192600101611daf565b81601f820112156101d9578035906001600160401b0382116108ef5760405192611e0b601f8401601f191660200185611c9e565b828452602083830101116101d957815f926020809301838601378301015290565b8054821015611091575f52600660205f20910201905f90565b93909263ffffffff60c09693611e84959a99989a60018060a01b031687521660208601526040850152606084015260e0608084015260e0830190611d60565b9460a08201520152565b9190918054831015611091575f52601c60205f208360031c019260021b1690565b8054600160401b8110156108ef57611ecc91600182018155611e8e565b819291549060031b9163ffffffff809116831b921b1916179055565b15611eef57565b60405162461bcd60e51b815260206004820152601860248201527f50617261636861696e206e6f74207265676973746572656400000000000000006044820152606490fd5b91908203918211610c6b57565b908160209103126101d9575180151581036101d95790565b91908201809211610c6b57565b8054600160401b8110156108ef57611f85906001928382018155611e2c565b92909261210757805183546020808401516001600160c01b03199092166001600160a01b03939093169290921760a09190911b63ffffffff60a01b161784556040820151838501556060820151600285015560808201518051909360038601926001600160401b0383116108ef57611ffd8454611c2f565b601f81116120bf575b5080601f841160011461205457509180809260c09695946005985f94612049575b50501b915f199060031b1c19161790555b60a081015160048501550151910155565b015192505f80612027565b91939495601f198416865f52835f20935f905b8282106120a8575050916005979593918560c098969410612090575b505050811b019055612038565b01515f1960f88460031b161c191690555f8080612083565b808886978294978701518155019601940190612067565b5f858152828120601f860160051c8101928487106120fd575b601f0160051c019184905b8381106120f257505050612006565b8281550184906120e3565b90925082906120d8565b634e487b7160e01b5f525f60045260245ffd5b5f198114610c6b5760010190565b6001600160401b0381116108ef5760051b60200190565b80518210156110915760209160051b010190565b9063ffffffff805f931683526006936020908582526040958686209081549161217b83612128565b956121888a519788611c9e565b83875290885284882088918688015b8b888786106122cd5750505050505050508251841015612296576121bb9084611f59565b93825180861161228e575b506121d18486611f34565b956121db87612128565b966121e882519889611c9e565b8088526121f7601f1991612128565b0191805b838110612250575050505050815b838110612217575050505090565b8061224561222861224b938561213f565b516122338684611f34565b9061223e828a61213f565b528761213f565b5061211a565b612209565b8490835161225d81611c83565b838152838382015283858201526060848183015260808201528360a08201528360c082015282828c010152016121fb565b94505f6121c6565b50939150508051928301908382106001600160401b038311176122b95752815290565b634e487b7160e01b83526041600452602483fd5b60019282889351906122de82611c83565b875490868060a01b03821683528760a092831c168584015286890154908301526002880154606083015261231460038901611cbf565b6080830152600488015490820152600587015460c0820152815201930193019291612197565b5f546001600160a01b0316330361234d57565b60405163118cdaa760e01b8152336004820152602490fd5b60ff5f5460a01c1661237357565b60405163d93c066560e01b8152600490fd5b600260015414612396576002600155565b604051633ee5aeb560e01b8152600490fdfea26469706673582212208ad6dbcf57a0265881c83c5b6f2252411f4508d40fdbafd5e31e9313132d315b64736f6c63430008140033","linkReferences":{}},"methodIdentifiers":{"BPS_DENOMINATOR()":"e1a45218","PROTOCOL_FEE_BPS()":"be378228","allParachainIds(uint256)":"ccf496f6","bridgedUSDC()":"794bee59","calculateFee(uint256)":"99a5d747","evmAddressToParaId(address)":"1fe941ed","forwardToParachain(uint32)":"d2d26658","getAllParachainIds()":"5fe0183e","getParachainDetails(uint32)":"35f5cd77","getParachainTips(uint32,uint256,uint256)":"6e3213c2","getTipperStats(address)":"aa39978e","owner()":"8da5cb5b","parachainTips(uint32,uint256)":"9379d489","parachains(uint32)":"1410c1d0","pause()":"8456cb59","paused()":"5c975abb","protocolFeesBalance()":"6853fa9e","registerParachain(uint32,string,string,address,bytes32)":"90d46362","registrarParachains(address,uint256)":"fd1d2e01","renounceOwnership()":"715018a6","setBridgedUSDC(address)":"e72766d3","setTreasury(address)":"f0f44260","tipParachain(uint32,uint256,string)":"e71612cc","tipperHistory(address,uint256)":"f539fab0","tipperStats(address)":"03beb5cb","totalProtocolFeesCollected()":"7394e627","transferOwnership(address)":"f2fde38b","treasury()":"61d027b3","unpause()":"3f4ba83a","verifyParachain(uint32)":"8bec50d9","withdrawProtocolFees(uint256)":"4f449138","xcmTransfersProcessed(bytes32)":"e847b667"},"id":2}