{"abi":[{"type":"constructor","inputs":[{"name":"_treasury","type":"address","internalType":"address"},{"name":"_bridgedUSDC","type":"address","internalType":"address"}],"stateMutability":"nonpayable"},{"type":"function","name":"BPS_DENOMINATOR","inputs":[],"outputs":[{"name":"","type":"uint256","internalType":"uint256"}],"stateMutability":"view"},{"type":"function","name":"PROTOCOL_FEE_BPS","inputs":[],"outputs":[{"name":"","type":"uint256","internalType":"uint256"}],"stateMutability":"view"},{"type":"function","name":"allParachainIds","inputs":[{"name":"","type":"uint256","internalType":"uint256"}],"outputs":[{"name":"","type":"uint32","internalType":"uint32"}],"stateMutability":"view"},{"type":"function","name":"bridgedUSDC","inputs":[],"outputs":[{"name":"","type":"address","internalType":"address"}],"stateMutability":"view"},{"type":"function","name":"calculateFee","inputs":[{"name":"amount","type":"uint256","internalType":"uint256"}],"outputs":[{"name":"grossAmount","type":"uint256","internalType":"uint256"},{"name":"protocolFee","type":"uint256","internalType":"uint256"},{"name":"netAmount","type":"uint256","internalType":"uint256"}],"stateMutability":"pure"},{"type":"function","name":"evmAddressToParaId","inputs":[{"name":"","type":"address","internalType":"address"}],"outputs":[{"name":"","type":"uint32","internalType":"uint32"}],"stateMutability":"view"},{"type":"function","name":"forwardToParachain","inputs":[{"name":"paraId","type":"uint32","internalType":"uint32"}],"outputs":[{"name":"","type":"bool","internalType":"bool"}],"stateMutability":"nonpayable"},{"type":"function","name":"getAllParachainIds","inputs":[],"outputs":[{"name":"","type":"uint32[]","internalType":"uint32[]"}],"stateMutability":"view"},{"type":"function","name":"getParachainDetails","inputs":[{"name":"paraId","type":"uint32","internalType":"uint32"}],"outputs":[{"name":"name","type":"string","internalType":"string"},{"name":"description","type":"string","internalType":"string"},{"name":"evmAddress","type":"address","internalType":"address"},{"name":"substrateAddress","type":"bytes32","internalType":"bytes32"},{"name":"verified","type":"bool","internalType":"bool"},{"name":"totalReceived","type":"uint256","internalType":"uint256"},{"name":"tipCount","type":"uint256","internalType":"uint256"}],"stateMutability":"view"},{"type":"function","name":"getParachainTips","inputs":[{"name":"paraId","type":"uint32","internalType":"uint32"},{"name":"offset","type":"uint256","internalType":"uint256"},{"name":"limit","type":"uint256","internalType":"uint256"}],"outputs":[{"name":"","type":"tuple[]","internalType":"struct TipsyDotV4.Tip[]","components":[{"name":"tipper","type":"address","internalType":"address"},{"name":"paraId","type":"uint32","internalType":"uint32"},{"name":"amount","type":"uint256","internalType":"uint256"},{"name":"protocolFee","type":"uint256","internalType":"uint256"},{"name":"message","type":"string","internalType":"string"},{"name":"timestamp","type":"uint256","internalType":"uint256"},{"name":"xcmTxHash","type":"bytes32","internalType":"bytes32"}]}],"stateMutability":"view"},{"type":"function","name":"getTipperStats","inputs":[{"name":"tipper","type":"address","internalType":"address"}],"outputs":[{"name":"totalTipped","type":"uint256","internalType":"uint256"},{"name":"tipCount","type":"uint256","internalType":"uint256"},{"name":"supportedParachains","type":"uint32[]","internalType":"uint32[]"},{"name":"firstTipTime","type":"uint256","internalType":"uint256"},{"name":"lastTipTime","type":"uint256","internalType":"uint256"}],"stateMutability":"view"},{"type":"function","name":"owner","inputs":[],"outputs":[{"name":"","type":"address","internalType":"address"}],"stateMutability":"view"},{"type":"function","name":"parachainTips","inputs":[{"name":"","type":"uint32","internalType":"uint32"},{"name":"","type":"uint256","internalType":"uint256"}],"outputs":[{"name":"tipper","type":"address","internalType":"address"},{"name":"paraId","type":"uint32","internalType":"uint32"},{"name":"amount","type":"uint256","internalType":"uint256"},{"name":"protocolFee","type":"uint256","internalType":"uint256"},{"name":"message","type":"string","internalType":"string"},{"name":"timestamp","type":"uint256","internalType":"uint256"},{"name":"xcmTxHash","type":"bytes32","internalType":"bytes32"}],"stateMutability":"view"},{"type":"function","name":"parachains","inputs":[{"name":"","type":"uint32","internalType":"uint32"}],"outputs":[{"name":"paraId","type":"uint32","internalType":"uint32"},{"name":"name","type":"string","internalType":"string"},{"name":"description","type":"string","internalType":"string"},{"name":"evmAddress","type":"address","internalType":"address"},{"name":"substrateAddress","type":"bytes32","internalType":"bytes32"},{"name":"registrar","type":"address","internalType":"address"},{"name":"verified","type":"bool","internalType":"bool"},{"name":"totalReceived","type":"uint256","internalType":"uint256"},{"name":"tipCount","type":"uint256","internalType":"uint256"},{"name":"registeredAt","type":"uint256","internalType":"uint256"}],"stateMutability":"view"},{"type":"function","name":"pause","inputs":[],"outputs":[],"stateMutability":"nonpayable"},{"type":"function","name":"paused","inputs":[],"outputs":[{"name":"","type":"bool","internalType":"bool"}],"stateMutability":"view"},{"type":"function","name":"protocolFeesBalance","inputs":[],"outputs":[{"name":"","type":"uint256","internalType":"uint256"}],"stateMutability":"view"},{"type":"function","name":"registerParachain","inputs":[{"name":"paraId","type":"uint32","internalType":"uint32"},{"name":"name","type":"string","internalType":"string"},{"name":"description","type":"string","internalType":"string"},{"name":"evmAddress","type":"address","internalType":"address"},{"name":"substrateAddress","type":"bytes32","internalType":"bytes32"}],"outputs":[{"name":"","type":"bool","internalType":"bool"}],"stateMutability":"nonpayable"},{"type":"function","name":"registrarParachains","inputs":[{"name":"","type":"address","internalType":"address"},{"name":"","type":"uint256","internalType":"uint256"}],"outputs":[{"name":"","type":"uint32","internalType":"uint32"}],"stateMutability":"view"},{"type":"function","name":"renounceOwnership","inputs":[],"outputs":[],"stateMutability":"nonpayable"},{"type":"function","name":"setBridgedUSDC","inputs":[{"name":"_bridgedUSDC","type":"address","internalType":"address"}],"outputs":[],"stateMutability":"nonpayable"},{"type":"function","name":"setTreasury","inputs":[{"name":"_treasury","type":"address","internalType":"address"}],"outputs":[],"stateMutability":"nonpayable"},{"type":"function","name":"tipParachain","inputs":[{"name":"paraId","type":"uint32","internalType":"uint32"},{"name":"amount","type":"uint256","internalType":"uint256"},{"name":"message","type":"string","internalType":"string"}],"outputs":[{"name":"","type":"bool","internalType":"bool"}],"stateMutability":"nonpayable"},{"type":"function","name":"tipperHistory","inputs":[{"name":"","type":"address","internalType":"address"},{"name":"","type":"uint256","internalType":"uint256"}],"outputs":[{"name":"tipper","type":"address","internalType":"address"},{"name":"paraId","type":"uint32","internalType":"uint32"},{"name":"amount","type":"uint256","internalType":"uint256"},{"name":"protocolFee","type":"uint256","internalType":"uint256"},{"name":"message","type":"string","internalType":"string"},{"name":"timestamp","type":"uint256","internalType":"uint256"},{"name":"xcmTxHash","type":"bytes32","internalType":"bytes32"}],"stateMutability":"view"},{"type":"function","name":"tipperStats","inputs":[{"name":"","type":"address","internalType":"address"}],"outputs":[{"name":"totalTipped","type":"uint256","internalType":"uint256"},{"name":"tipCount","type":"uint256","internalType":"uint256"},{"name":"firstTipTime","type":"uint256","internalType":"uint256"},{"name":"lastTipTime","type":"uint256","internalType":"uint256"}],"stateMutability":"view"},{"type":"function","name":"totalProtocolFeesCollected","inputs":[],"outputs":[{"name":"","type":"uint256","internalType":"uint256"}],"stateMutability":"view"},{"type":"function","name":"transferOwnership","inputs":[{"name":"newOwner","type":"address","internalType":"address"}],"outputs":[],"stateMutability":"nonpayable"},{"type":"function","name":"treasury","inputs":[],"outputs":[{"name":"","type":"address","internalType":"address"}],"stateMutability":"view"},{"type":"function","name":"unpause","inputs":[],"outputs":[],"stateMutability":"nonpayable"},{"type":"function","name":"verifyParachain","inputs":[{"name":"paraId","type":"uint32","internalType":"uint32"}],"outputs":[],"stateMutability":"nonpayable"},{"type":"function","name":"withdrawProtocolFees","inputs":[{"name":"amount","type":"uint256","internalType":"uint256"}],"outputs":[],"stateMutability":"nonpayable"},{"type":"function","name":"xcmTransfersProcessed","inputs":[{"name":"","type":"bytes32","internalType":"bytes32"}],"outputs":[{"name":"","type":"bool","internalType":"bool"}],"stateMutability":"view"},{"type":"event","name":"FundsForwarded","inputs":[{"name":"paraId","type":"uint32","indexed":true,"internalType":"uint32"},{"name":"recipient","type":"address","indexed":false,"internalType":"address"},{"name":"amount","type":"uint256","indexed":false,"internalType":"uint256"},{"name":"xcmTxHash","type":"bytes32","indexed":false,"internalType":"bytes32"}],"anonymous":false},{"type":"event","name":"OwnershipTransferred","inputs":[{"name":"previousOwner","type":"address","indexed":true,"internalType":"address"},{"name":"newOwner","type":"address","indexed":true,"internalType":"address"}],"anonymous":false},{"type":"event","name":"ParachainRegistered","inputs":[{"name":"paraId","type":"uint32","indexed":true,"internalType":"uint32"},{"name":"name","type":"string","indexed":false,"internalType":"string"},{"name":"evmAddress","type":"address","indexed":true,"internalType":"address"},{"name":"registrar","type":"address","indexed":true,"internalType":"address"}],"anonymous":false},{"type":"event","name":"ParachainVerified","inputs":[{"name":"paraId","type":"uint32","indexed":true,"internalType":"uint32"}],"anonymous":false},{"type":"event","name":"Paused","inputs":[{"name":"account","type":"address","indexed":false,"internalType":"address"}],"anonymous":false},{"type":"event","name":"ProtocolFeesWithdrawn","inputs":[{"name":"to","type":"address","indexed":true,"internalType":"address"},{"name":"amount","type":"uint256","indexed":false,"internalType":"uint256"}],"anonymous":false},{"type":"event","name":"Tipped","inputs":[{"name":"paraId","type":"uint32","indexed":true,"internalType":"uint32"},{"name":"tipper","type":"address","indexed":true,"internalType":"address"},{"name":"amount","type":"uint256","indexed":false,"internalType":"uint256"},{"name":"protocolFee","type":"uint256","indexed":false,"internalType":"uint256"},{"name":"message","type":"string","indexed":false,"internalType":"string"}],"anonymous":false},{"type":"event","name":"Unpaused","inputs":[{"name":"account","type":"address","indexed":false,"internalType":"address"}],"anonymous":false},{"type":"event","name":"XCMBridgeCompleted","inputs":[{"name":"txHash","type":"bytes32","indexed":true,"internalType":"bytes32"},{"name":"recipient","type":"address","indexed":true,"internalType":"address"},{"name":"amount","type":"uint256","indexed":false,"internalType":"uint256"}],"anonymous":false},{"type":"error","name":"EnforcedPause","inputs":[]},{"type":"error","name":"ExpectedPause","inputs":[]},{"type":"error","name":"OwnableInvalidOwner","inputs":[{"name":"owner","type":"address","internalType":"address"}]},{"type":"error","name":"OwnableUnauthorizedAccount","inputs":[{"name":"account","type":"address","internalType":"address"}]},{"type":"error","name":"ReentrancyGuardReentrantCall","inputs":[]}],"bytecode":{"object":"0x608060405234801562000010575f80fd5b50604051620026eb380380620026eb833981016040819052620000339162000106565b33806200005957604051631e4fbdf760e01b81525f600482015260240160405180910390fd5b62000064816200009b565b5060018055600b80546001600160a01b039384166001600160a01b031991821617909155600c80549290931691161790556200013c565b5f80546001600160a01b038381166001600160a01b0319831681178455604051919092169283917f8be0079c531659141344cd1fd0a4f28419497f9722a3daafe3b4186f6b6457e09190a35050565b80516001600160a01b038116811462000101575f80fd5b919050565b5f806040838503121562000118575f80fd5b6200012383620000ea565b91506200013360208401620000ea565b90509250929050565b6125a1806200014a5f395ff3fe608060405234801561000f575f80fd5b50600436106101e7575f3560e01c80638da5cb5b11610109578063e1a452181161009e578063f0f442601161006e578063f0f44260146104d7578063f2fde38b146104ea578063f539fab0146104fd578063fd1d2e0114610510575f80fd5b8063e1a4521814610486578063e71612cc1461048f578063e72766d3146104a2578063e847b667146104b5575f80fd5b8063aa39978e116100d9578063aa39978e14610434578063be37822814610458578063ccf496f614610460578063d2d2665814610473575f80fd5b80638da5cb5b146103bd57806390d46362146103cd5780639379d489146103e057806399a5d74714610406575f80fd5b806361d027b31161017f5780637394e6271161014f5780637394e62714610386578063794bee591461038f5780638456cb59146103a25780638bec50d9146103aa575f80fd5b806361d027b31461031c5780636853fa9e146103475780636e3213c21461035e578063715018a61461037e575f80fd5b80633f4ba83a116101ba5780633f4ba83a146102cd5780634f449138146102d75780635c975abb146102ea5780635fe0183e14610307575f80fd5b806303beb5cb146101eb5780631410c1d0146102445780631fe941ed1461026d57806335f5cd77146102a7575b5f80fd5b61021f6101f9366004611e1b565b60086020525f908152604090208054600182015460038301546004909301549192909184565b6040805194855260208501939093529183015260608201526080015b60405180910390f35b610257610252366004611e47565b610523565b60405161023b9a99989796959493929190611ea3565b61029261027b366004611e1b565b60046020525f908152604090205463ffffffff1681565b60405163ffffffff909116815260200161023b565b6102ba6102b5366004611e47565b610698565b60405161023b9796959493929190611f1b565b6102d561089f565b005b6102d56102e5366004611f73565b6108b1565b5f54600160a01b900460ff165b604051901515815260200161023b565b61030f6109d6565b60405161023b9190611fc9565b600b5461032f906001600160a01b031681565b6040516001600160a01b03909116815260200161023b565b610350600a5481565b60405190815260200161023b565b61037161036c366004611fdb565b610a57565b60405161023b919061200b565b6102d5610d1d565b61035060095481565b600c5461032f906001600160a01b031681565b6102d5610d2e565b6102d56103b8366004611e47565b610d3e565b5f546001600160a01b031661032f565b6102f76103db366004612162565b610dce565b6103f36103ee3660046121e9565b61120e565b60405161023b9796959493929190612211565b610419610414366004611f73565b611301565b6040805193845260208401929092529082015260600161023b565b610447610442366004611e1b565b611331565b60405161023b95949392919061225f565b610350600a81565b61029261046e366004611f73565b61143c565b6102f7610481366004611e47565b611473565b61035061271081565b6102f761049d366004612291565b611661565b6102d56104b0366004611e1b565b611aee565b6102f76104c3366004611f73565b600d6020525f908152604090205460ff1681565b6102d56104e5366004611e1b565b611b65565b6102d56104f8366004611e1b565b611bd8565b6103f361050b3660046122e4565b611c15565b61029261051e3660046122e4565b611c2e565b60026020525f90815260409020805460018201805463ffffffff909216929161054b906122fe565b80601f0160208091040260200160405190810160405280929190818152602001828054610577906122fe565b80156105c25780601f10610599576101008083540402835291602001916105c2565b820191905f5260205f20905b8154815290600101906020018083116105a557829003601f168201915b5050505050908060020180546105d7906122fe565b80601f0160208091040260200160405190810160405280929190818152602001828054610603906122fe565b801561064e5780601f106106255761010080835404028352916020019161064e565b820191905f5260205f20905b81548152906001019060200180831161063157829003601f168201915b505050506003830154600484015460058501546006860154600787015460089097015495966001600160a01b039485169693955093821693600160a01b90920460ff16929091908a565b63ffffffff8082165f9081526002602090815260408083208151610140810190925280549094168152600184018054606095869594859485948594859485949092908401916106e6906122fe565b80601f0160208091040260200160405190810160405280929190818152602001828054610712906122fe565b801561075d5780601f106107345761010080835404028352916020019161075d565b820191905f5260205f20905b81548152906001019060200180831161074057829003601f168201915b50505050508152602001600282018054610776906122fe565b80601f01602080910402602001604051908101604052809291908181526020018280546107a2906122fe565b80156107ed5780601f106107c4576101008083540402835291602001916107ed565b820191905f5260205f20905b8154815290600101906020018083116107d057829003601f168201915b505050918352505060038201546001600160a01b0390811660208084019190915260048401546040808501919091526005850154928316606080860191909152600160a01b90930460ff161515608080860191909152600686015460a0860152600786015460c08087019190915260089096015460e09586015291860151908601519286015191860151948601519386015161010090960151909f929e50909c50929a50909850919650945092505050565b6108a7611c72565b6108af611c9e565b565b6108b9611c72565b600a548111156109045760405162461bcd60e51b8152602060048201526011602482015270496e73756666696369656e74206665657360781b60448201526064015b60405180910390fd5b80600a5f8282546109159190612344565b9091555050600c54600b5460405163a9059cbb60e01b81526001600160a01b0391821660048201526024810184905291169063a9059cbb906044016020604051808303815f875af115801561096c573d5f803e3d5ffd5b505050506040513d601f19601f82011682018060405250810190610990919061235d565b50600b546040518281526001600160a01b03909116907fa087657e3d85162090ffd700fbfdf5070d816f63aa5da00063f6ffd369c8a6db9060200160405180910390a250565b60606005805480602002602001604051908101604052809291908181526020018280548015610a4d57602002820191905f5260205f20905f905b82829054906101000a900463ffffffff1663ffffffff1681526020019060040190602082600301049283019260010382029150808411610a105790505b5050505050905090565b63ffffffff83165f908152600660209081526040808320805482518185028101850190935280835260609493849084015b82821015610b9b575f8481526020908190206040805160e0810182526006860290920180546001600160a01b0381168452600160a01b900463ffffffff169383019390935260018301549082015260028201546060820152600382018054919291608084019190610af8906122fe565b80601f0160208091040260200160405190810160405280929190818152602001828054610b24906122fe565b8015610b6f5780601f10610b4657610100808354040283529160200191610b6f565b820191905f5260205f20905b815481529060010190602001808311610b5257829003601f168201915b505050505081526020016004820154815260200160058201548152505081526020019060010190610a88565b50505050905080518410610c0d57604080515f8082526020820190925290610c04565b6040805160e0810182525f80825260208083018290529282018190526060808301829052608083015260a0820181905260c082015282525f19909201910181610bbe5790505b50915050610d16565b5f610c18848661237c565b90508151811115610c27575080515b5f610c328683612344565b67ffffffffffffffff811115610c4a57610c4a6120c5565b604051908082528060200260200182016040528015610cae57816020015b6040805160e0810182525f80825260208083018290529282018190526060808301829052608083015260a0820181905260c082015282525f19909201910181610c685790505b509050855b82811015610d1057838181518110610ccd57610ccd61238f565b6020026020010151828883610ce29190612344565b81518110610cf257610cf261238f565b60200260200101819052508080610d08906123a3565b915050610cb3565b50925050505b9392505050565b610d25611c72565b6108af5f611cf2565b610d36611c72565b6108af611d41565b610d46611c72565b63ffffffff81165f908152600260205260409020600801548190610d7c5760405162461bcd60e51b81526004016108fb906123bb565b63ffffffff82165f81815260026020526040808220600501805460ff60a01b1916600160a01b179055517f454e3221c0fbb3cf2561700fee30755701ab5ef101dabd72e35dfe8b216682079190a25050565b5f610dd7611d83565b5f8663ffffffff1611610e235760405162461bcd60e51b8152602060048201526014602482015273125b9d985b1a59081c185c9858da185a5b88125160621b60448201526064016108fb565b5f855111610e635760405162461bcd60e51b815260206004820152600d60248201526c13985b59481c995c5d5a5c9959609a1b60448201526064016108fb565b6001600160a01b038316610eaf5760405162461bcd60e51b8152602060048201526013602482015272496e76616c69642045564d206164647265737360681b60448201526064016108fb565b63ffffffff86165f9081526002602052604090206008015415610f095760405162461bcd60e51b8152602060048201526012602482015271105b1c9958591e481c9959da5cdd195c995960721b60448201526064016108fb565b6001600160a01b0383165f9081526004602052604090205463ffffffff1615610f6b5760405162461bcd60e51b81526020600482015260146024820152731059191c995cdcc8185b1c9958591e481d5cd95960621b60448201526064016108fb565b604080516101408101825263ffffffff88811680835260208084018a81528486018a90526001600160a01b0389166060860152608085018890523360a08601525f60c0860181905260e0860181905261010086018190524261012087015292835260029091529390208251815463ffffffff1916921691909117815591519091906001820190610ffb9082612440565b50604082015160028201906110109082612440565b506060820151816003015f6101000a8154816001600160a01b0302191690836001600160a01b031602179055506080820151816004015560a0820151816005015f6101000a8154816001600160a01b0302191690836001600160a01b0316021790555060c08201518160050160146101000a81548160ff02191690831515021790555060e082015181600601556101008201518160070155610120820151816008015590505060035f336001600160a01b03166001600160a01b031681526020019081526020015f2086908060018154018082558091505060019003905f5260205f2090600891828204019190066004029091909190916101000a81548163ffffffff021916908363ffffffff1602179055508560045f856001600160a01b03166001600160a01b031681526020019081526020015f205f6101000a81548163ffffffff021916908363ffffffff160217905550600586908060018154018082558091505060019003905f5260205f2090600891828204019190066004029091909190916101000a81548163ffffffff021916908363ffffffff160217905550336001600160a01b0316836001600160a01b03168763ffffffff167f1f66de7808e78e97a2d28b7b52d7ed8cc1c520797b2bb75ecf65cd9d910b2293886040516111fa91906124fc565b60405180910390a450600195945050505050565b6006602052815f5260405f208181548110611227575f80fd5b5f91825260209091206006909102018054600182015460028301546003840180546001600160a01b0385169750600160a01b90940463ffffffff16955091939092909190611274906122fe565b80601f01602080910402602001604051908101604052809291908181526020018280546112a0906122fe565b80156112eb5780601f106112c2576101008083540402835291602001916112eb565b820191905f5260205f20905b8154815290600101906020018083116112ce57829003601f168201915b5050505050908060040154908060050154905087565b5f8080612710611312600a8661250e565b61131c9190612525565b91506113288285612344565b93949193925050565b5f8060605f805f60085f886001600160a01b03166001600160a01b031681526020019081526020015f206040518060a00160405290815f820154815260200160018201548152602001600282018054806020026020016040519081016040528092919081815260200182805480156113f157602002820191905f5260205f20905f905b82829054906101000a900463ffffffff1663ffffffff16815260200190600401906020826003010492830192600103820291508084116113b45790505b50505050508152602001600382015481526020016004820154815250509050805f01518160200151826040015183606001518460800151955095509550955095505091939590929450565b6005818154811061144b575f80fd5b905f5260205f209060089182820401919006600402915054906101000a900463ffffffff1681565b5f61147c611d83565b63ffffffff82165f9081526002602052604090206008015482906114b25760405162461bcd60e51b81526004016108fb906123bb565b6114ba611dad565b63ffffffff83165f90815260026020526040902060068101546115155760405162461bcd60e51b8152602060048201526013602482015272139bc8199d5b991cc81d1bc8199bdc9dd85c99606a1b60448201526064016108fb565b6006810180545f909155600c54600383015460405163a9059cbb60e01b81526001600160a01b0391821660048201526024810184905291169063a9059cbb906044016020604051808303815f875af1158015611573573d5f803e3d5ffd5b505050506040513d601f19601f82011682018060405250810190611597919061235d565b50600382015460405160e087901b6001600160e01b031916602082015260609190911b6bffffffffffffffffffffffff19166024820152603881018290524260588201525f9060780160408051808303601f19018152828252805160209182012060038701546001600160a01b03168452908301859052908201819052915063ffffffff8716907ffb453ef1d98bd14386e912c0830918d18edea158d37da8ae1c2baf04ef458b479060600160405180910390a26001945050505061165b60018055565b50919050565b5f61166a611d83565b63ffffffff84165f9081526002602052604090206008015484906116a05760405162461bcd60e51b81526004016108fb906123bb565b6116a8611dad565b5f84116116ec5760405162461bcd60e51b81526020600482015260126024820152710416d6f756e74206d757374206265203e20360741b60448201526064016108fb565b5f6127106116fb600a8761250e565b6117059190612525565b90505f6117128287612344565b600c546040516323b872dd60e01b8152336004820152306024820152604481018990529192506001600160a01b0316906323b872dd906064016020604051808303815f875af1158015611767573d5f803e3d5ffd5b505050506040513d601f19601f8201168201806040525081019061178b919061235d565b5063ffffffff87165f90815260026020526040812060060180548392906117b390849061237c565b909155505063ffffffff87165f9081526002602052604081206007018054600192906117e090849061237c565b9250508190555081600a5f8282546117f8919061237c565b925050819055508160095f828254611810919061237c565b90915550506040805160e08101825233815263ffffffff808a16602080840182815284860187815260608601898152608087018d81524260a08901525f60c0890181905295865260068086529886208054600181810183559188529590962088519590990290980180549351909616600160a01b026001600160c01b03199093166001600160a01b039490941693909317919091178455519183019190915551600282015591519091829160038201906118ca9082612440565b5060a0820151600482015560c090910151600590910155335f90815260076020908152604080832080546001818101835591855293839020855160069095020180549386015163ffffffff16600160a01b026001600160c01b03199094166001600160a01b0395909516949094179290921783558301519082015560608201516002820155608082015182919060038201906119669082612440565b5060a0820151600482015560c090910151600590910155335f90815260086020526040812080549091899183919061199f90849061237c565b9091555050600181810180545f906119b890849061237c565b909155505060038101545f036119cf574260038201555b4260048201555f805b6002830154811015611a43578a63ffffffff16836002018281548110611a0057611a0061238f565b5f918252602090912060088204015460079091166004026101000a900463ffffffff1603611a315760019150611a43565b80611a3b816123a3565b9150506119d8565b5080611a88576002820180546001810182555f91825260209091206008820401805460079092166004026101000a63ffffffff81810219909316928d16029190911790555b336001600160a01b03168a63ffffffff167fe75c6f66e83f51cab63a50e434c96ed49725fdb2d800e2d98227d4f2ef65a8da86888c604051611acc93929190612544565b60405180910390a3600196505050505050611ae660018055565b509392505050565b611af6611c72565b6001600160a01b038116611b435760405162461bcd60e51b8152602060048201526014602482015273496e76616c69642055534443206164647265737360601b60448201526064016108fb565b600c80546001600160a01b0319166001600160a01b0392909216919091179055565b611b6d611c72565b6001600160a01b038116611bb65760405162461bcd60e51b815260206004820152601060248201526f496e76616c696420747265617375727960801b60448201526064016108fb565b600b80546001600160a01b0319166001600160a01b0392909216919091179055565b611be0611c72565b6001600160a01b038116611c0957604051631e4fbdf760e01b81525f60048201526024016108fb565b611c1281611cf2565b50565b6007602052815f5260405f208181548110611227575f80fd5b6003602052815f5260405f208181548110611c47575f80fd5b905f5260205f209060089182820401919006600402915091509054906101000a900463ffffffff1681565b5f546001600160a01b031633146108af5760405163118cdaa760e01b81523360048201526024016108fb565b611ca6611dd7565b5f805460ff60a01b191690557f5db9ee0a495bf2e6ff9c91a7834c1ba4fdd244a5e8aa4e537bd38aeae4b073aa335b6040516001600160a01b03909116815260200160405180910390a1565b5f80546001600160a01b038381166001600160a01b0319831681178455604051919092169283917f8be0079c531659141344cd1fd0a4f28419497f9722a3daafe3b4186f6b6457e09190a35050565b611d49611d83565b5f805460ff60a01b1916600160a01b1790557f62e78cea01bee320cd4e420270b5ea74000d11b0c9f74754ebdbfc544b05a258611cd53390565b5f54600160a01b900460ff16156108af5760405163d93c066560e01b815260040160405180910390fd5b600260015403611dd057604051633ee5aeb560e01b815260040160405180910390fd5b6002600155565b5f54600160a01b900460ff166108af57604051638dfc202b60e01b815260040160405180910390fd5b80356001600160a01b0381168114611e16575f80fd5b919050565b5f60208284031215611e2b575f80fd5b610d1682611e00565b803563ffffffff81168114611e16575f80fd5b5f60208284031215611e57575f80fd5b610d1682611e34565b5f81518084525f5b81811015611e8457602081850181015186830182015201611e68565b505f602082860101526020601f19601f83011685010191505092915050565b5f61014063ffffffff8d168352806020840152611ec28184018d611e60565b90508281036040840152611ed6818c611e60565b6001600160a01b039a8b166060850152608084019990995250509490961660a085015291151560c084015260e083015261010082015261012001919091529392505050565b60e081525f611f2d60e083018a611e60565b8281036020840152611f3f818a611e60565b6001600160a01b0398909816604084015250506060810194909452911515608084015260a083015260c09091015292915050565b5f60208284031215611f83575f80fd5b5035919050565b5f8151808452602080850194508084015f5b83811015611fbe57815163ffffffff1687529582019590820190600101611f9c565b509495945050505050565b602081525f610d166020830184611f8a565b5f805f60608486031215611fed575f80fd5b611ff684611e34565b95602085013595506040909401359392505050565b5f6020808301818452808551808352604092508286019150828160051b8701018488015f5b838110156120b757888303603f19018552815180516001600160a01b031684528781015163ffffffff168885015286810151878501526060808201519085015260808082015160e0828701819052919061208c83880182611e60565b60a0858101519089015260c09485015194909701939093525050509386019390860190600101612030565b509098975050505050505050565b634e487b7160e01b5f52604160045260245ffd5b5f82601f8301126120e8575f80fd5b813567ffffffffffffffff80821115612103576121036120c5565b604051601f8301601f19908116603f0116810190828211818310171561212b5761212b6120c5565b81604052838152866020858801011115612143575f80fd5b836020870160208301375f602085830101528094505050505092915050565b5f805f805f60a08688031215612176575f80fd5b61217f86611e34565b9450602086013567ffffffffffffffff8082111561219b575f80fd5b6121a789838a016120d9565b955060408801359150808211156121bc575f80fd5b506121c9888289016120d9565b9350506121d860608701611e00565b949793965091946080013592915050565b5f80604083850312156121fa575f80fd5b61220383611e34565b946020939093013593505050565b60018060a01b038816815263ffffffff8716602082015285604082015284606082015260e060808201525f61224960e0830186611e60565b60a08301949094525060c0015295945050505050565b85815284602082015260a060408201525f61227d60a0830186611f8a565b606083019490945250608001529392505050565b5f805f606084860312156122a3575f80fd5b6122ac84611e34565b925060208401359150604084013567ffffffffffffffff8111156122ce575f80fd5b6122da868287016120d9565b9150509250925092565b5f80604083850312156122f5575f80fd5b61220383611e00565b600181811c9082168061231257607f821691505b60208210810361165b57634e487b7160e01b5f52602260045260245ffd5b634e487b7160e01b5f52601160045260245ffd5b8181038181111561235757612357612330565b92915050565b5f6020828403121561236d575f80fd5b81518015158114610d16575f80fd5b8082018082111561235757612357612330565b634e487b7160e01b5f52603260045260245ffd5b5f600182016123b4576123b4612330565b5060010190565b60208082526018908201527f50617261636861696e206e6f7420726567697374657265640000000000000000604082015260600190565b601f82111561243b575f81815260208120601f850160051c810160208610156124185750805b601f850160051c820191505b8181101561243757828155600101612424565b5050505b505050565b815167ffffffffffffffff81111561245a5761245a6120c5565b61246e8161246884546122fe565b846123f2565b602080601f8311600181146124a1575f841561248a5750858301515b5f19600386901b1c1916600185901b178555612437565b5f85815260208120601f198616915b828110156124cf578886015182559484019460019091019084016124b0565b50858210156124ec57878501515f19600388901b60f8161c191681555b5050505050600190811b01905550565b602081525f610d166020830184611e60565b808202811582820484141761235757612357612330565b5f8261253f57634e487b7160e01b5f52601260045260245ffd5b500490565b838152826020820152606060408201525f6125626060830184611e60565b9594505050505056fea264697066735822122088b9b3e6811036291b6418aa6e84afb6bc5b41c07f923932806e4e24901e329864736f6c63430008140033","linkReferences":{}},"methodIdentifiers":{"BPS_DENOMINATOR()":"e1a45218","PROTOCOL_FEE_BPS()":"be378228","allParachainIds(uint256)":"ccf496f6","bridgedUSDC()":"794bee59","calculateFee(uint256)":"99a5d747","evmAddressToParaId(address)":"1fe941ed","forwardToParachain(uint32)":"d2d26658","getAllParachainIds()":"5fe0183e","getParachainDetails(uint32)":"35f5cd77","getParachainTips(uint32,uint256,uint256)":"6e3213c2","getTipperStats(address)":"aa39978e","owner()":"8da5cb5b","parachainTips(uint32,uint256)":"9379d489","parachains(uint32)":"1410c1d0","pause()":"8456cb59","paused()":"5c975abb","protocolFeesBalance()":"6853fa9e","registerParachain(uint32,string,string,address,bytes32)":"90d46362","registrarParachains(address,uint256)":"fd1d2e01","renounceOwnership()":"715018a6","setBridgedUSDC(address)":"e72766d3","setTreasury(address)":"f0f44260","tipParachain(uint32,uint256,string)":"e71612cc","tipperHistory(address,uint256)":"f539fab0","tipperStats(address)":"03beb5cb","totalProtocolFeesCollected()":"7394e627","transferOwnership(address)":"f2fde38b","treasury()":"61d027b3","unpause()":"3f4ba83a","verifyParachain(uint32)":"8bec50d9","withdrawProtocolFees(uint256)":"4f449138","xcmTransfersProcessed(bytes32)":"e847b667"},"id":0}