{"abi":[{"type":"constructor","inputs":[{"name":"_treasury","type":"address","internalType":"address"}],"stateMutability":"nonpayable"},{"type":"function","name":"BPS_DENOMINATOR","inputs":[],"outputs":[{"name":"","type":"uint256","internalType":"uint256"}],"stateMutability":"view"},{"type":"function","name":"PROTOCOL_FEE_BPS","inputs":[],"outputs":[{"name":"","type":"uint256","internalType":"uint256"}],"stateMutability":"view"},{"type":"function","name":"allParachainIds","inputs":[{"name":"","type":"uint256","internalType":"uint256"}],"outputs":[{"name":"","type":"uint32","internalType":"uint32"}],"stateMutability":"view"},{"type":"function","name":"bridgedUSDC","inputs":[],"outputs":[{"name":"","type":"address","internalType":"contract IBridgedUSDC"}],"stateMutability":"view"},{"type":"function","name":"calculateFee","inputs":[{"name":"amount","type":"uint256","internalType":"uint256"}],"outputs":[{"name":"grossAmount","type":"uint256","internalType":"uint256"},{"name":"protocolFee","type":"uint256","internalType":"uint256"},{"name":"netAmount","type":"uint256","internalType":"uint256"}],"stateMutability":"pure"},{"type":"function","name":"evmAddressToParaId","inputs":[{"name":"","type":"address","internalType":"address"}],"outputs":[{"name":"","type":"uint32","internalType":"uint32"}],"stateMutability":"view"},{"type":"function","name":"forwardToParachain","inputs":[{"name":"paraId","type":"uint32","internalType":"uint32"}],"outputs":[{"name":"","type":"bool","internalType":"bool"}],"stateMutability":"nonpayable"},{"type":"function","name":"getAllParachainIds","inputs":[],"outputs":[{"name":"","type":"uint32[]","internalType":"uint32[]"}],"stateMutability":"view"},{"type":"function","name":"getParachainDetails","inputs":[{"name":"paraId","type":"uint32","internalType":"uint32"}],"outputs":[{"name":"name","type":"string","internalType":"string"},{"name":"description","type":"string","internalType":"string"},{"name":"evmAddress","type":"address","internalType":"address"},{"name":"substrateAddress","type":"bytes32","internalType":"bytes32"},{"name":"verified","type":"bool","internalType":"bool"},{"name":"totalReceived","type":"uint256","internalType":"uint256"},{"name":"tipCount","type":"uint256","internalType":"uint256"}],"stateMutability":"view"},{"type":"function","name":"getParachainTips","inputs":[{"name":"paraId","type":"uint32","internalType":"uint32"},{"name":"offset","type":"uint256","internalType":"uint256"},{"name":"limit","type":"uint256","internalType":"uint256"}],"outputs":[{"name":"","type":"tuple[]","internalType":"struct TipsyDotV5.Tip[]","components":[{"name":"tipper","type":"address","internalType":"address"},{"name":"paraId","type":"uint32","internalType":"uint32"},{"name":"amount","type":"uint256","internalType":"uint256"},{"name":"protocolFee","type":"uint256","internalType":"uint256"},{"name":"message","type":"string","internalType":"string"},{"name":"timestamp","type":"uint256","internalType":"uint256"},{"name":"xcmTxHash","type":"bytes32","internalType":"bytes32"}]}],"stateMutability":"view"},{"type":"function","name":"getTipperStats","inputs":[{"name":"tipper","type":"address","internalType":"address"}],"outputs":[{"name":"totalTipped","type":"uint256","internalType":"uint256"},{"name":"tipCount","type":"uint256","internalType":"uint256"},{"name":"supportedParachains","type":"uint32[]","internalType":"uint32[]"},{"name":"firstTipTime","type":"uint256","internalType":"uint256"},{"name":"lastTipTime","type":"uint256","internalType":"uint256"}],"stateMutability":"view"},{"type":"function","name":"getUSDCAddress","inputs":[],"outputs":[{"name":"","type":"address","internalType":"address"}],"stateMutability":"view"},{"type":"function","name":"owner","inputs":[],"outputs":[{"name":"","type":"address","internalType":"address"}],"stateMutability":"view"},{"type":"function","name":"parachainTips","inputs":[{"name":"","type":"uint32","internalType":"uint32"},{"name":"","type":"uint256","internalType":"uint256"}],"outputs":[{"name":"tipper","type":"address","internalType":"address"},{"name":"paraId","type":"uint32","internalType":"uint32"},{"name":"amount","type":"uint256","internalType":"uint256"},{"name":"protocolFee","type":"uint256","internalType":"uint256"},{"name":"message","type":"string","internalType":"string"},{"name":"timestamp","type":"uint256","internalType":"uint256"},{"name":"xcmTxHash","type":"bytes32","internalType":"bytes32"}],"stateMutability":"view"},{"type":"function","name":"parachains","inputs":[{"name":"","type":"uint32","internalType":"uint32"}],"outputs":[{"name":"paraId","type":"uint32","internalType":"uint32"},{"name":"name","type":"string","internalType":"string"},{"name":"description","type":"string","internalType":"string"},{"name":"evmAddress","type":"address","internalType":"address"},{"name":"substrateAddress","type":"bytes32","internalType":"bytes32"},{"name":"registrar","type":"address","internalType":"address"},{"name":"verified","type":"bool","internalType":"bool"},{"name":"totalReceived","type":"uint256","internalType":"uint256"},{"name":"tipCount","type":"uint256","internalType":"uint256"},{"name":"registeredAt","type":"uint256","internalType":"uint256"}],"stateMutability":"view"},{"type":"function","name":"pause","inputs":[],"outputs":[],"stateMutability":"nonpayable"},{"type":"function","name":"paused","inputs":[],"outputs":[{"name":"","type":"bool","internalType":"bool"}],"stateMutability":"view"},{"type":"function","name":"protocolFeesBalance","inputs":[],"outputs":[{"name":"","type":"uint256","internalType":"uint256"}],"stateMutability":"view"},{"type":"function","name":"registerParachain","inputs":[{"name":"paraId","type":"uint32","internalType":"uint32"},{"name":"name","type":"string","internalType":"string"},{"name":"description","type":"string","internalType":"string"},{"name":"evmAddress","type":"address","internalType":"address"},{"name":"substrateAddress","type":"bytes32","internalType":"bytes32"}],"outputs":[{"name":"","type":"bool","internalType":"bool"}],"stateMutability":"nonpayable"},{"type":"function","name":"registrarParachains","inputs":[{"name":"","type":"address","internalType":"address"},{"name":"","type":"uint256","internalType":"uint256"}],"outputs":[{"name":"","type":"uint32","internalType":"uint32"}],"stateMutability":"view"},{"type":"function","name":"renounceOwnership","inputs":[],"outputs":[],"stateMutability":"nonpayable"},{"type":"function","name":"setTreasury","inputs":[{"name":"_treasury","type":"address","internalType":"address"}],"outputs":[],"stateMutability":"nonpayable"},{"type":"function","name":"tipParachain","inputs":[{"name":"paraId","type":"uint32","internalType":"uint32"},{"name":"amount","type":"uint256","internalType":"uint256"},{"name":"message","type":"string","internalType":"string"}],"outputs":[{"name":"","type":"bool","internalType":"bool"}],"stateMutability":"nonpayable"},{"type":"function","name":"tipperHistory","inputs":[{"name":"","type":"address","internalType":"address"},{"name":"","type":"uint256","internalType":"uint256"}],"outputs":[{"name":"tipper","type":"address","internalType":"address"},{"name":"paraId","type":"uint32","internalType":"uint32"},{"name":"amount","type":"uint256","internalType":"uint256"},{"name":"protocolFee","type":"uint256","internalType":"uint256"},{"name":"message","type":"string","internalType":"string"},{"name":"timestamp","type":"uint256","internalType":"uint256"},{"name":"xcmTxHash","type":"bytes32","internalType":"bytes32"}],"stateMutability":"view"},{"type":"function","name":"tipperStats","inputs":[{"name":"","type":"address","internalType":"address"}],"outputs":[{"name":"totalTipped","type":"uint256","internalType":"uint256"},{"name":"tipCount","type":"uint256","internalType":"uint256"},{"name":"firstTipTime","type":"uint256","internalType":"uint256"},{"name":"lastTipTime","type":"uint256","internalType":"uint256"}],"stateMutability":"view"},{"type":"function","name":"totalProtocolFeesCollected","inputs":[],"outputs":[{"name":"","type":"uint256","internalType":"uint256"}],"stateMutability":"view"},{"type":"function","name":"transferOwnership","inputs":[{"name":"newOwner","type":"address","internalType":"address"}],"outputs":[],"stateMutability":"nonpayable"},{"type":"function","name":"treasury","inputs":[],"outputs":[{"name":"","type":"address","internalType":"address"}],"stateMutability":"view"},{"type":"function","name":"unpause","inputs":[],"outputs":[],"stateMutability":"nonpayable"},{"type":"function","name":"verifyParachain","inputs":[{"name":"paraId","type":"uint32","internalType":"uint32"}],"outputs":[],"stateMutability":"nonpayable"},{"type":"function","name":"withdrawProtocolFees","inputs":[{"name":"amount","type":"uint256","internalType":"uint256"}],"outputs":[],"stateMutability":"nonpayable"},{"type":"function","name":"xcmTransfersProcessed","inputs":[{"name":"","type":"bytes32","internalType":"bytes32"}],"outputs":[{"name":"","type":"bool","internalType":"bool"}],"stateMutability":"view"},{"type":"event","name":"FundsForwarded","inputs":[{"name":"paraId","type":"uint32","indexed":true,"internalType":"uint32"},{"name":"recipient","type":"address","indexed":false,"internalType":"address"},{"name":"amount","type":"uint256","indexed":false,"internalType":"uint256"},{"name":"xcmTxHash","type":"bytes32","indexed":false,"internalType":"bytes32"}],"anonymous":false},{"type":"event","name":"OwnershipTransferred","inputs":[{"name":"previousOwner","type":"address","indexed":true,"internalType":"address"},{"name":"newOwner","type":"address","indexed":true,"internalType":"address"}],"anonymous":false},{"type":"event","name":"ParachainRegistered","inputs":[{"name":"paraId","type":"uint32","indexed":true,"internalType":"uint32"},{"name":"name","type":"string","indexed":false,"internalType":"string"},{"name":"evmAddress","type":"address","indexed":true,"internalType":"address"},{"name":"registrar","type":"address","indexed":true,"internalType":"address"}],"anonymous":false},{"type":"event","name":"ParachainVerified","inputs":[{"name":"paraId","type":"uint32","indexed":true,"internalType":"uint32"}],"anonymous":false},{"type":"event","name":"Paused","inputs":[{"name":"account","type":"address","indexed":false,"internalType":"address"}],"anonymous":false},{"type":"event","name":"ProtocolFeesWithdrawn","inputs":[{"name":"to","type":"address","indexed":true,"internalType":"address"},{"name":"amount","type":"uint256","indexed":false,"internalType":"uint256"}],"anonymous":false},{"type":"event","name":"Tipped","inputs":[{"name":"paraId","type":"uint32","indexed":true,"internalType":"uint32"},{"name":"tipper","type":"address","indexed":true,"internalType":"address"},{"name":"amount","type":"uint256","indexed":false,"internalType":"uint256"},{"name":"protocolFee","type":"uint256","indexed":false,"internalType":"uint256"},{"name":"message","type":"string","indexed":false,"internalType":"string"}],"anonymous":false},{"type":"event","name":"Unpaused","inputs":[{"name":"account","type":"address","indexed":false,"internalType":"address"}],"anonymous":false},{"type":"event","name":"XCMBridgeCompleted","inputs":[{"name":"txHash","type":"bytes32","indexed":true,"internalType":"bytes32"},{"name":"recipient","type":"address","indexed":true,"internalType":"address"},{"name":"amount","type":"uint256","indexed":false,"internalType":"uint256"}],"anonymous":false},{"type":"error","name":"EnforcedPause","inputs":[]},{"type":"error","name":"ExpectedPause","inputs":[]},{"type":"error","name":"OwnableInvalidOwner","inputs":[{"name":"owner","type":"address","internalType":"address"}]},{"type":"error","name":"OwnableUnauthorizedAccount","inputs":[{"name":"account","type":"address","internalType":"address"}]},{"type":"error","name":"ReentrancyGuardReentrantCall","inputs":[]}],"bytecode":{"object":"0x60a060405234801562000010575f80fd5b506040516200292138038062002921833981016040819052620000339162000248565b33806200005a57604051631e4fbdf760e01b81525f60048201526024015b60405180910390fd5b6200006581620001f9565b50600180556001600160a01b038116620000b55760405162461bcd60e51b815260206004820152601060248201526f496e76616c696420747265617375727960801b604482015260640162000051565b600b80546001600160a01b0319166001600160a01b038316179055620000da61080090565b6001600160a01b03166080819052620001365760405162461bcd60e51b815260206004820152601960248201527f5553444320707265636f6d70696c65206e6f7420666f756e6400000000000000604482015260640162000051565b600660ff166080516001600160a01b031663313ce5676040518163ffffffff1660e01b8152600401602060405180830381865afa1580156200017a573d5f803e3d5ffd5b505050506040513d601f19601f82011682018060405250810190620001a0919062000277565b60ff1614620001f25760405162461bcd60e51b815260206004820152601860248201527f556e6578706563746564205553444320646563696d616c730000000000000000604482015260640162000051565b5062000299565b5f80546001600160a01b038381166001600160a01b0319831681178455604051919092169283917f8be0079c531659141344cd1fd0a4f28419497f9722a3daafe3b4186f6b6457e09190a35050565b5f6020828403121562000259575f80fd5b81516001600160a01b038116811462000270575f80fd5b9392505050565b5f6020828403121562000288575f80fd5b815160ff8116811462000270575f80fd5b608051612653620002ce5f395f81816103940152818161046e01528181610972015281816115bc01526117e301526126535ff3fe608060405234801561000f575f80fd5b50600436106101e7575f3560e01c80638da5cb5b11610109578063d2d266581161009e578063f0f442601161006e578063f0f44260146104fe578063f2fde38b14610511578063f539fab014610524578063fd1d2e0114610537575f80fd5b8063d2d26658146104ad578063e1a45218146104c0578063e71612cc146104c9578063e847b667146104dc575f80fd5b8063aa39978e116100d9578063aa39978e14610448578063bc06e81d1461046c578063be37822814610492578063ccf496f61461049a575f80fd5b80638da5cb5b146103d157806390d46362146103e15780639379d489146103f457806399a5d7471461041a575f80fd5b806361d027b31161017f5780637394e6271161014f5780637394e62714610386578063794bee591461038f5780638456cb59146103b65780638bec50d9146103be575f80fd5b806361d027b31461031c5780636853fa9e146103475780636e3213c21461035e578063715018a61461037e575f80fd5b80633f4ba83a116101ba5780633f4ba83a146102cd5780634f449138146102d75780635c975abb146102ea5780635fe0183e14610307575f80fd5b806303beb5cb146101eb5780631410c1d0146102445780631fe941ed1461026d57806335f5cd77146102a7575b5f80fd5b61021f6101f9366004611e9f565b60086020525f908152604090208054600182015460038301546004909301549192909184565b6040805194855260208501939093529183015260608201526080015b60405180910390f35b610257610252366004611ecb565b61054a565b60405161023b9a99989796959493929190611f27565b61029261027b366004611e9f565b60046020525f908152604090205463ffffffff1681565b60405163ffffffff909116815260200161023b565b6102ba6102b5366004611ecb565b6106bf565b60405161023b9796959493929190611f9f565b6102d56108c6565b005b6102d56102e5366004611ff7565b6108d8565b5f54600160a01b900460ff165b604051901515815260200161023b565b61030f610a48565b60405161023b919061204d565b600b5461032f906001600160a01b031681565b6040516001600160a01b03909116815260200161023b565b610350600a5481565b60405190815260200161023b565b61037161036c36600461205f565b610ac9565b60405161023b919061208f565b6102d5610d8f565b61035060095481565b61032f7f000000000000000000000000000000000000000000000000000000000000000081565b6102d5610da0565b6102d56103cc366004611ecb565b610db0565b5f546001600160a01b031661032f565b6102f76103ef3660046121e6565b610e40565b61040761040236600461226d565b611280565b60405161023b9796959493929190612295565b61042d610428366004611ff7565b611373565b6040805193845260208401929092529082015260600161023b565b61045b610456366004611e9f565b6113a3565b60405161023b9594939291906122e3565b7f000000000000000000000000000000000000000000000000000000000000000061032f565b610350600a81565b6102926104a8366004611ff7565b6114ae565b6102f76104bb366004611ecb565b6114e5565b61035061271081565b6102f76104d7366004612315565b61170d565b6102f76104ea366004611ff7565b600c6020525f908152604090205460ff1681565b6102d561050c366004611e9f565b611ad1565b6102d561051f366004611e9f565b611b44565b610407610532366004612368565b611b7e565b610292610545366004612368565b611b97565b60026020525f90815260409020805460018201805463ffffffff909216929161057290612382565b80601f016020809104026020016040519081016040528092919081815260200182805461059e90612382565b80156105e95780601f106105c0576101008083540402835291602001916105e9565b820191905f5260205f20905b8154815290600101906020018083116105cc57829003601f168201915b5050505050908060020180546105fe90612382565b80601f016020809104026020016040519081016040528092919081815260200182805461062a90612382565b80156106755780601f1061064c57610100808354040283529160200191610675565b820191905f5260205f20905b81548152906001019060200180831161065857829003601f168201915b505050506003830154600484015460058501546006860154600787015460089097015495966001600160a01b039485169693955093821693600160a01b90920460ff16929091908a565b63ffffffff8082165f90815260026020908152604080832081516101408101909252805490941681526001840180546060958695948594859485948594859490929084019161070d90612382565b80601f016020809104026020016040519081016040528092919081815260200182805461073990612382565b80156107845780601f1061075b57610100808354040283529160200191610784565b820191905f5260205f20905b81548152906001019060200180831161076757829003601f168201915b5050505050815260200160028201805461079d90612382565b80601f01602080910402602001604051908101604052809291908181526020018280546107c990612382565b80156108145780601f106107eb57610100808354040283529160200191610814565b820191905f5260205f20905b8154815290600101906020018083116107f757829003601f168201915b505050918352505060038201546001600160a01b0390811660208084019190915260048401546040808501919091526005850154928316606080860191909152600160a01b90930460ff161515608080860191909152600686015460a0860152600786015460c08087019190915260089096015460e09586015291860151908601519286015191860151948601519386015161010090960151909f929e50909c50929a50909850919650945092505050565b6108ce611bdb565b6108d6611c07565b565b6108e0611bdb565b6108e8611c5b565b600a548111156109335760405162461bcd60e51b8152602060048201526011602482015270496e73756666696369656e74206665657360781b60448201526064015b60405180910390fd5b80600a5f82825461094491906123c8565b9091555050600b5460405163a9059cbb60e01b81526001600160a01b039182166004820152602481018390527f00000000000000000000000000000000000000000000000000000000000000009091169063a9059cbb906044016020604051808303815f875af11580156109ba573d5f803e3d5ffd5b505050506040513d601f19601f820116820180604052508101906109de91906123e1565b6109fa5760405162461bcd60e51b815260040161092a90612400565b600b546040518281526001600160a01b03909116907fa087657e3d85162090ffd700fbfdf5070d816f63aa5da00063f6ffd369c8a6db9060200160405180910390a2610a4560018055565b50565b60606005805480602002602001604051908101604052809291908181526020018280548015610abf57602002820191905f5260205f20905f905b82829054906101000a900463ffffffff1663ffffffff1681526020019060040190602082600301049283019260010382029150808411610a825790505b5050505050905090565b63ffffffff83165f908152600660209081526040808320805482518185028101850190935280835260609493849084015b82821015610c0d575f8481526020908190206040805160e0810182526006860290920180546001600160a01b0381168452600160a01b900463ffffffff169383019390935260018301549082015260028201546060820152600382018054919291608084019190610b6a90612382565b80601f0160208091040260200160405190810160405280929190818152602001828054610b9690612382565b8015610be15780601f10610bb857610100808354040283529160200191610be1565b820191905f5260205f20905b815481529060010190602001808311610bc457829003601f168201915b505050505081526020016004820154815260200160058201548152505081526020019060010190610afa565b50505050905080518410610c7f57604080515f8082526020820190925290610c76565b6040805160e0810182525f80825260208083018290529282018190526060808301829052608083015260a0820181905260c082015282525f19909201910181610c305790505b50915050610d88565b5f610c8a848661242e565b90508151811115610c99575080515b5f610ca486836123c8565b67ffffffffffffffff811115610cbc57610cbc612149565b604051908082528060200260200182016040528015610d2057816020015b6040805160e0810182525f80825260208083018290529282018190526060808301829052608083015260a0820181905260c082015282525f19909201910181610cda5790505b509050855b82811015610d8257838181518110610d3f57610d3f612441565b6020026020010151828883610d5491906123c8565b81518110610d6457610d64612441565b60200260200101819052508080610d7a90612455565b915050610d25565b50925050505b9392505050565b610d97611bdb565b6108d65f611c85565b610da8611bdb565b6108d6611cd4565b610db8611bdb565b63ffffffff81165f908152600260205260409020600801548190610dee5760405162461bcd60e51b815260040161092a9061246d565b63ffffffff82165f81815260026020526040808220600501805460ff60a01b1916600160a01b179055517f454e3221c0fbb3cf2561700fee30755701ab5ef101dabd72e35dfe8b216682079190a25050565b5f610e49611d16565b5f8663ffffffff1611610e955760405162461bcd60e51b8152602060048201526014602482015273125b9d985b1a59081c185c9858da185a5b88125160621b604482015260640161092a565b5f855111610ed55760405162461bcd60e51b815260206004820152600d60248201526c13985b59481c995c5d5a5c9959609a1b604482015260640161092a565b6001600160a01b038316610f215760405162461bcd60e51b8152602060048201526013602482015272496e76616c69642045564d206164647265737360681b604482015260640161092a565b63ffffffff86165f9081526002602052604090206008015415610f7b5760405162461bcd60e51b8152602060048201526012602482015271105b1c9958591e481c9959da5cdd195c995960721b604482015260640161092a565b6001600160a01b0383165f9081526004602052604090205463ffffffff1615610fdd5760405162461bcd60e51b81526020600482015260146024820152731059191c995cdcc8185b1c9958591e481d5cd95960621b604482015260640161092a565b604080516101408101825263ffffffff88811680835260208084018a81528486018a90526001600160a01b0389166060860152608085018890523360a08601525f60c0860181905260e0860181905261010086018190524261012087015292835260029091529390208251815463ffffffff191692169190911781559151909190600182019061106d90826124f2565b506040820151600282019061108290826124f2565b506060820151816003015f6101000a8154816001600160a01b0302191690836001600160a01b031602179055506080820151816004015560a0820151816005015f6101000a8154816001600160a01b0302191690836001600160a01b0316021790555060c08201518160050160146101000a81548160ff02191690831515021790555060e082015181600601556101008201518160070155610120820151816008015590505060035f336001600160a01b03166001600160a01b031681526020019081526020015f2086908060018154018082558091505060019003905f5260205f2090600891828204019190066004029091909190916101000a81548163ffffffff021916908363ffffffff1602179055508560045f856001600160a01b03166001600160a01b031681526020019081526020015f205f6101000a81548163ffffffff021916908363ffffffff160217905550600586908060018154018082558091505060019003905f5260205f2090600891828204019190066004029091909190916101000a81548163ffffffff021916908363ffffffff160217905550336001600160a01b0316836001600160a01b03168763ffffffff167f1f66de7808e78e97a2d28b7b52d7ed8cc1c520797b2bb75ecf65cd9d910b22938860405161126c91906125ae565b60405180910390a450600195945050505050565b6006602052815f5260405f208181548110611299575f80fd5b5f91825260209091206006909102018054600182015460028301546003840180546001600160a01b0385169750600160a01b90940463ffffffff169550919390929091906112e690612382565b80601f016020809104026020016040519081016040528092919081815260200182805461131290612382565b801561135d5780601f106113345761010080835404028352916020019161135d565b820191905f5260205f20905b81548152906001019060200180831161134057829003601f168201915b5050505050908060040154908060050154905087565b5f8080612710611384600a866125c0565b61138e91906125d7565b915061139a82856123c8565b93949193925050565b5f8060605f805f60085f886001600160a01b03166001600160a01b031681526020019081526020015f206040518060a00160405290815f8201548152602001600182015481526020016002820180548060200260200160405190810160405280929190818152602001828054801561146357602002820191905f5260205f20905f905b82829054906101000a900463ffffffff1663ffffffff16815260200190600401906020826003010492830192600103820291508084116114265790505b50505050508152602001600382015481526020016004820154815250509050805f01518160200151826040015183606001518460800151955095509550955095505091939590929450565b600581815481106114bd575f80fd5b905f5260205f209060089182820401919006600402915054906101000a900463ffffffff1681565b5f6114ee611d16565b63ffffffff82165f9081526002602052604090206008015482906115245760405162461bcd60e51b815260040161092a9061246d565b61152c611c5b565b63ffffffff83165f90815260026020526040902060068101546115875760405162461bcd60e51b8152602060048201526013602482015272139bc8199d5b991cc81d1bc8199bdc9dd85c99606a1b604482015260640161092a565b6006810180545f909155600382015460405163a9059cbb60e01b81526001600160a01b039182166004820152602481018390527f00000000000000000000000000000000000000000000000000000000000000009091169063a9059cbb906044016020604051808303815f875af1158015611604573d5f803e3d5ffd5b505050506040513d601f19601f8201168201806040525081019061162891906123e1565b6116445760405162461bcd60e51b815260040161092a90612400565b600382015460405160e087901b6001600160e01b031916602082015260609190911b6bffffffffffffffffffffffff19166024820152603881018290524260588201525f9060780160408051808303601f19018152828252805160209182012060038701546001600160a01b03168452908301859052908201819052915063ffffffff8716907ffb453ef1d98bd14386e912c0830918d18edea158d37da8ae1c2baf04ef458b479060600160405180910390a26001945050505061170760018055565b50919050565b5f611716611d16565b63ffffffff84165f90815260026020526040902060080154849061174c5760405162461bcd60e51b815260040161092a9061246d565b611754611c5b565b5f84116117985760405162461bcd60e51b81526020600482015260126024820152710416d6f756e74206d757374206265203e20360741b604482015260640161092a565b5f6127106117a7600a876125c0565b6117b191906125d7565b90505f6117be82876123c8565b6040516323b872dd60e01b8152336004820152306024820152604481018890529091507f00000000000000000000000000000000000000000000000000000000000000006001600160a01b0316906323b872dd906064016020604051808303815f875af1158015611831573d5f803e3d5ffd5b505050506040513d601f19601f8201168201806040525081019061185591906123e1565b6118715760405162461bcd60e51b815260040161092a90612400565b63ffffffff87165f908152600260205260408120600601805483929061189890849061242e565b909155505063ffffffff87165f9081526002602052604081206007018054600192906118c590849061242e565b9250508190555081600a5f8282546118dd919061242e565b925050819055508160095f8282546118f5919061242e565b90915550506040805160e08101825233815263ffffffff808a16602080840182815284860187815260608601898152608087018d81524260a08901525f60c0890181905295865260068086529886208054600181810183559188529590962088519590990290980180549351909616600160a01b026001600160c01b03199093166001600160a01b039490941693909317919091178455519183019190915551600282015591519091829160038201906119af90826124f2565b5060a0820151600482015560c090910151600590910155335f90815260076020908152604080832080546001818101835591855293839020855160069095020180549386015163ffffffff16600160a01b026001600160c01b03199094166001600160a01b039590951694909417929092178355830151908201556060820151600282015560808201518291906003820190611a4b90826124f2565b5060a0820151816004015560c082015181600501555050611a6d338989611d40565b336001600160a01b03168863ffffffff167fe75c6f66e83f51cab63a50e434c96ed49725fdb2d800e2d98227d4f2ef65a8da84868a604051611ab1939291906125f6565b60405180910390a360019450505050611ac960018055565b509392505050565b611ad9611bdb565b6001600160a01b038116611b225760405162461bcd60e51b815260206004820152601060248201526f496e76616c696420747265617375727960801b604482015260640161092a565b600b80546001600160a01b0319166001600160a01b0392909216919091179055565b611b4c611bdb565b6001600160a01b038116611b7557604051631e4fbdf760e01b81525f600482015260240161092a565b610a4581611c85565b6007602052815f5260405f208181548110611299575f80fd5b6003602052815f5260405f208181548110611bb0575f80fd5b905f5260205f209060089182820401919006600402915091509054906101000a900463ffffffff1681565b5f546001600160a01b031633146108d65760405163118cdaa760e01b815233600482015260240161092a565b611c0f611e5b565b5f805460ff60a01b191690557f5db9ee0a495bf2e6ff9c91a7834c1ba4fdd244a5e8aa4e537bd38aeae4b073aa335b6040516001600160a01b03909116815260200160405180910390a1565b600260015403611c7e57604051633ee5aeb560e01b815260040160405180910390fd5b6002600155565b5f80546001600160a01b038381166001600160a01b0319831681178455604051919092169283917f8be0079c531659141344cd1fd0a4f28419497f9722a3daafe3b4186f6b6457e09190a35050565b611cdc611d16565b5f805460ff60a01b1916600160a01b1790557f62e78cea01bee320cd4e420270b5ea74000d11b0c9f74754ebdbfc544b05a258611c3e3390565b5f54600160a01b900460ff16156108d65760405163d93c066560e01b815260040160405180910390fd5b6001600160a01b0383165f908152600860205260408120805490918391839190611d6b90849061242e565b9091555050600181810180545f90611d8490849061242e565b909155505060038101545f03611d9b574260038201555b4260048201555f805b6002830154811015611e0f578463ffffffff16836002018281548110611dcc57611dcc612441565b5f918252602090912060088204015460079091166004026101000a900463ffffffff1603611dfd5760019150611e0f565b80611e0781612455565b915050611da4565b5080611e54576002820180546001810182555f91825260209091206008820401805460079092166004026101000a63ffffffff81810219909316928716029190911790555b5050505050565b5f54600160a01b900460ff166108d657604051638dfc202b60e01b815260040160405180910390fd5b80356001600160a01b0381168114611e9a575f80fd5b919050565b5f60208284031215611eaf575f80fd5b610d8882611e84565b803563ffffffff81168114611e9a575f80fd5b5f60208284031215611edb575f80fd5b610d8882611eb8565b5f81518084525f5b81811015611f0857602081850181015186830182015201611eec565b505f602082860101526020601f19601f83011685010191505092915050565b5f61014063ffffffff8d168352806020840152611f468184018d611ee4565b90508281036040840152611f5a818c611ee4565b6001600160a01b039a8b166060850152608084019990995250509490961660a085015291151560c084015260e083015261010082015261012001919091529392505050565b60e081525f611fb160e083018a611ee4565b8281036020840152611fc3818a611ee4565b6001600160a01b0398909816604084015250506060810194909452911515608084015260a083015260c09091015292915050565b5f60208284031215612007575f80fd5b5035919050565b5f8151808452602080850194508084015f5b8381101561204257815163ffffffff1687529582019590820190600101612020565b509495945050505050565b602081525f610d88602083018461200e565b5f805f60608486031215612071575f80fd5b61207a84611eb8565b95602085013595506040909401359392505050565b5f6020808301818452808551808352604092508286019150828160051b8701018488015f5b8381101561213b57888303603f19018552815180516001600160a01b031684528781015163ffffffff168885015286810151878501526060808201519085015260808082015160e0828701819052919061211083880182611ee4565b60a0858101519089015260c094850151949097019390935250505093860193908601906001016120b4565b509098975050505050505050565b634e487b7160e01b5f52604160045260245ffd5b5f82601f83011261216c575f80fd5b813567ffffffffffffffff8082111561218757612187612149565b604051601f8301601f19908116603f011681019082821181831017156121af576121af612149565b816040528381528660208588010111156121c7575f80fd5b836020870160208301375f602085830101528094505050505092915050565b5f805f805f60a086880312156121fa575f80fd5b61220386611eb8565b9450602086013567ffffffffffffffff8082111561221f575f80fd5b61222b89838a0161215d565b95506040880135915080821115612240575f80fd5b5061224d8882890161215d565b93505061225c60608701611e84565b949793965091946080013592915050565b5f806040838503121561227e575f80fd5b61228783611eb8565b946020939093013593505050565b60018060a01b038816815263ffffffff8716602082015285604082015284606082015260e060808201525f6122cd60e0830186611ee4565b60a08301949094525060c0015295945050505050565b85815284602082015260a060408201525f61230160a083018661200e565b606083019490945250608001529392505050565b5f805f60608486031215612327575f80fd5b61233084611eb8565b925060208401359150604084013567ffffffffffffffff811115612352575f80fd5b61235e8682870161215d565b9150509250925092565b5f8060408385031215612379575f80fd5b61228783611e84565b600181811c9082168061239657607f821691505b60208210810361170757634e487b7160e01b5f52602260045260245ffd5b634e487b7160e01b5f52601160045260245ffd5b818103818111156123db576123db6123b4565b92915050565b5f602082840312156123f1575f80fd5b81518015158114610d88575f80fd5b6020808252601490820152731554d110c81d1c985b9cd9995c8819985a5b195960621b604082015260600190565b808201808211156123db576123db6123b4565b634e487b7160e01b5f52603260045260245ffd5b5f60018201612466576124666123b4565b5060010190565b60208082526018908201527f50617261636861696e206e6f7420726567697374657265640000000000000000604082015260600190565b601f8211156124ed575f81815260208120601f850160051c810160208610156124ca5750805b601f850160051c820191505b818110156124e9578281556001016124d6565b5050505b505050565b815167ffffffffffffffff81111561250c5761250c612149565b6125208161251a8454612382565b846124a4565b602080601f831160018114612553575f841561253c5750858301515b5f19600386901b1c1916600185901b1785556124e9565b5f85815260208120601f198616915b8281101561258157888601518255948401946001909101908401612562565b508582101561259e57878501515f19600388901b60f8161c191681555b5050505050600190811b01905550565b602081525f610d886020830184611ee4565b80820281158282048414176123db576123db6123b4565b5f826125f157634e487b7160e01b5f52601260045260245ffd5b500490565b838152826020820152606060408201525f6126146060830184611ee4565b9594505050505056fea26469706673582212203bf9050cd9746cbbbdce4db0ee6e0cb5adc194495c0a30d30cc4ba38fe86ac5164736f6c63430008140033","linkReferences":{}},"methodIdentifiers":{"BPS_DENOMINATOR()":"e1a45218","PROTOCOL_FEE_BPS()":"be378228","allParachainIds(uint256)":"ccf496f6","bridgedUSDC()":"794bee59","calculateFee(uint256)":"99a5d747","evmAddressToParaId(address)":"1fe941ed","forwardToParachain(uint32)":"d2d26658","getAllParachainIds()":"5fe0183e","getParachainDetails(uint32)":"35f5cd77","getParachainTips(uint32,uint256,uint256)":"6e3213c2","getTipperStats(address)":"aa39978e","getUSDCAddress()":"bc06e81d","owner()":"8da5cb5b","parachainTips(uint32,uint256)":"9379d489","parachains(uint32)":"1410c1d0","pause()":"8456cb59","paused()":"5c975abb","protocolFeesBalance()":"6853fa9e","registerParachain(uint32,string,string,address,bytes32)":"90d46362","registrarParachains(address,uint256)":"fd1d2e01","renounceOwnership()":"715018a6","setTreasury(address)":"f0f44260","tipParachain(uint32,uint256,string)":"e71612cc","tipperHistory(address,uint256)":"f539fab0","tipperStats(address)":"03beb5cb","totalProtocolFeesCollected()":"7394e627","transferOwnership(address)":"f2fde38b","treasury()":"61d027b3","unpause()":"3f4ba83a","verifyParachain(uint32)":"8bec50d9","withdrawProtocolFees(uint256)":"4f449138","xcmTransfersProcessed(bytes32)":"e847b667"},"id":0}