{
  "_format": "hh3-artifact-1",
  "contractName": "TipsyDotV2",
  "sourceName": "contracts/TipsyDotV2.sol",
  "abi": [
    {
      "inputs": [],
      "stateMutability": "nonpayable",
      "type": "constructor"
    },
    {
      "anonymous": false,
      "inputs": [
        {
          "indexed": true,
          "internalType": "uint256",
          "name": "campaignId",
          "type": "uint256"
        },
        {
          "indexed": false,
          "internalType": "string",
          "name": "name",
          "type": "string"
        },
        {
          "indexed": false,
          "internalType": "uint32",
          "name": "destParaId",
          "type": "uint32"
        },
        {
          "indexed": false,
          "internalType": "bytes32",
          "name": "sovereignAccount",
          "type": "bytes32"
        }
      ],
      "name": "CampaignCreated",
      "type": "event"
    },
    {
      "anonymous": false,
      "inputs": [
        {
          "indexed": true,
          "internalType": "uint256",
          "name": "campaignId",
          "type": "uint256"
        },
        {
          "indexed": false,
          "internalType": "bytes32",
          "name": "sovereignAccount",
          "type": "bytes32"
        },
        {
          "indexed": false,
          "internalType": "uint256",
          "name": "amount",
          "type": "uint256"
        },
        {
          "indexed": false,
          "internalType": "uint32",
          "name": "destParaId",
          "type": "uint32"
        }
      ],
      "name": "ForwardedToSovereign",
      "type": "event"
    },
    {
      "anonymous": false,
      "inputs": [
        {
          "indexed": true,
          "internalType": "uint256",
          "name": "campaignId",
          "type": "uint256"
        },
        {
          "indexed": true,
          "internalType": "address",
          "name": "tipper",
          "type": "address"
        },
        {
          "indexed": false,
          "internalType": "uint256",
          "name": "amount",
          "type": "uint256"
        },
        {
          "indexed": false,
          "internalType": "string",
          "name": "memo",
          "type": "string"
        }
      ],
      "name": "Tipped",
      "type": "event"
    },
    {
      "inputs": [],
      "name": "ASSET_HUB_PARAID",
      "outputs": [
        {
          "internalType": "uint32",
          "name": "",
          "type": "uint32"
        }
      ],
      "stateMutability": "view",
      "type": "function"
    },
    {
      "inputs": [],
      "name": "USDC_PRECOMPILE",
      "outputs": [
        {
          "internalType": "address",
          "name": "",
          "type": "address"
        }
      ],
      "stateMutability": "view",
      "type": "function"
    },
    {
      "inputs": [
        {
          "internalType": "uint256",
          "name": "",
          "type": "uint256"
        },
        {
          "internalType": "uint256",
          "name": "",
          "type": "uint256"
        }
      ],
      "name": "campaignMemos",
      "outputs": [
        {
          "internalType": "string",
          "name": "",
          "type": "string"
        }
      ],
      "stateMutability": "view",
      "type": "function"
    },
    {
      "inputs": [
        {
          "internalType": "uint256",
          "name": "",
          "type": "uint256"
        }
      ],
      "name": "campaigns",
      "outputs": [
        {
          "internalType": "string",
          "name": "name",
          "type": "string"
        },
        {
          "internalType": "string",
          "name": "description",
          "type": "string"
        },
        {
          "internalType": "address",
          "name": "creator",
          "type": "address"
        },
        {
          "internalType": "uint32",
          "name": "destParaId",
          "type": "uint32"
        },
        {
          "internalType": "bytes32",
          "name": "sovereignAccount",
          "type": "bytes32"
        },
        {
          "internalType": "uint256",
          "name": "totalRaised",
          "type": "uint256"
        },
        {
          "internalType": "bool",
          "name": "forwarded",
          "type": "bool"
        },
        {
          "internalType": "uint256",
          "name": "createdAt",
          "type": "uint256"
        }
      ],
      "stateMutability": "view",
      "type": "function"
    },
    {
      "inputs": [
        {
          "internalType": "string",
          "name": "_name",
          "type": "string"
        },
        {
          "internalType": "string",
          "name": "_description",
          "type": "string"
        },
        {
          "internalType": "uint32",
          "name": "_destParaId",
          "type": "uint32"
        }
      ],
      "name": "createCampaign",
      "outputs": [
        {
          "internalType": "uint256",
          "name": "",
          "type": "uint256"
        }
      ],
      "stateMutability": "nonpayable",
      "type": "function"
    },
    {
      "inputs": [
        {
          "internalType": "uint256",
          "name": "_campaignId",
          "type": "uint256"
        }
      ],
      "name": "forwardToParachain",
      "outputs": [],
      "stateMutability": "nonpayable",
      "type": "function"
    },
    {
      "inputs": [
        {
          "internalType": "uint256",
          "name": "_campaignId",
          "type": "uint256"
        }
      ],
      "name": "getCampaignDetails",
      "outputs": [
        {
          "internalType": "string",
          "name": "name",
          "type": "string"
        },
        {
          "internalType": "string",
          "name": "description",
          "type": "string"
        },
        {
          "internalType": "address",
          "name": "creator",
          "type": "address"
        },
        {
          "internalType": "uint32",
          "name": "destParaId",
          "type": "uint32"
        },
        {
          "internalType": "bytes32",
          "name": "sovereignAccount",
          "type": "bytes32"
        },
        {
          "internalType": "uint256",
          "name": "totalRaised",
          "type": "uint256"
        },
        {
          "internalType": "bool",
          "name": "forwarded",
          "type": "bool"
        },
        {
          "internalType": "uint256",
          "name": "createdAt",
          "type": "uint256"
        }
      ],
      "stateMutability": "view",
      "type": "function"
    },
    {
      "inputs": [
        {
          "internalType": "uint256",
          "name": "_campaignId",
          "type": "uint256"
        }
      ],
      "name": "getCampaignMemos",
      "outputs": [
        {
          "internalType": "string[]",
          "name": "",
          "type": "string[]"
        }
      ],
      "stateMutability": "view",
      "type": "function"
    },
    {
      "inputs": [],
      "name": "nextCampaignId",
      "outputs": [
        {
          "internalType": "uint256",
          "name": "",
          "type": "uint256"
        }
      ],
      "stateMutability": "view",
      "type": "function"
    },
    {
      "inputs": [],
      "name": "owner",
      "outputs": [
        {
          "internalType": "address",
          "name": "",
          "type": "address"
        }
      ],
      "stateMutability": "view",
      "type": "function"
    },
    {
      "inputs": [
        {
          "internalType": "uint256",
          "name": "_campaignId",
          "type": "uint256"
        },
        {
          "internalType": "uint256",
          "name": "_amount",
          "type": "uint256"
        },
        {
          "internalType": "string",
          "name": "_memo",
          "type": "string"
        }
      ],
      "name": "tip",
      "outputs": [],
      "stateMutability": "nonpayable",
      "type": "function"
    },
    {
      "inputs": [
        {
          "internalType": "uint256",
          "name": "_campaignId",
          "type": "uint256"
        },
        {
          "internalType": "uint256",
          "name": "_amount",
          "type": "uint256"
        },
        {
          "internalType": "string",
          "name": "_memo",
          "type": "string"
        }
      ],
      "name": "tipAndForward",
      "outputs": [],
      "stateMutability": "nonpayable",
      "type": "function"
    }
  ],
  "bytecode": "0x608060405234801561000f575f80fd5b503360035f6101000a81548173ffffffffffffffffffffffffffffffffffffffff021916908373ffffffffffffffffffffffffffffffffffffffff160217905550611d9a8061005d5f395ff3fe608060405234801561000f575f80fd5b50600436106100b2575f3560e01c8063943fac3b1161006f578063943fac3b14610191578063998692ed146101c15780639aa0a565146101dd578063bc935cf8146101fb578063d993de6214610219578063dc74e95414610250576100b2565b806305ad18d4146100b6578063141961bc146100d2578063296a70171461010957806362f432db146101395780637903a756146101555780638da5cb5b14610173575b5f80fd5b6100d060048036038101906100cb9190611068565b610280565b005b6100ec60048036038101906100e791906110d4565b610299565b604051610100989796959493929190611217565b60405180910390f35b610123600480360381019061011e91906112cb565b610423565b6040516101309190611353565b60405180910390f35b610153600480360381019061014e91906110d4565b610679565b005b61015d610873565b60405161016a9190611353565b60405180910390f35b61017b610879565b604051610188919061136c565b60405180910390f35b6101ab60048036038101906101a69190611385565b61089e565b6040516101b891906113c3565b60405180910390f35b6101db60048036038101906101d69190611068565b61094f565b005b6101e5610bba565b6040516101f2919061136c565b60405180910390f35b610203610bc0565b60405161021091906113e3565b60405180910390f35b610233600480360381019061022e91906110d4565b610bc6565b604051610247989796959493929190611217565b60405180910390f35b61026a600480360381019061026591906110d4565b610e03565b60405161027791906114ff565b60405180910390f35b61028b83838361094f565b61029483610679565b505050565b5f602052805f5260405f205f91509050805f0180546102b79061154c565b80601f01602080910402602001604051908101604052809291908181526020018280546102e39061154c565b801561032e5780601f106103055761010080835404028352916020019161032e565b820191905f5260205f20905b81548152906001019060200180831161031157829003601f168201915b5050505050908060010180546103439061154c565b80601f016020809104026020016040519081016040528092919081815260200182805461036f9061154c565b80156103ba5780601f10610391576101008083540402835291602001916103ba565b820191905f5260205f20905b81548152906001019060200180831161039d57829003601f168201915b505050505090806002015f9054906101000a900473ffffffffffffffffffffffffffffffffffffffff16908060020160149054906101000a900463ffffffff1690806003015490806004015490806005015f9054906101000a900460ff16908060060154905088565b5f80845111610467576040517f08c379a000000000000000000000000000000000000000000000000000000000815260040161045e906115c6565b60405180910390fd5b5f8263ffffffff16116104af576040517f08c379a00000000000000000000000000000000000000000000000000000000081526004016104a69061162e565b60405180910390fd5b5f60025f8154809291906104c290611679565b9190505590505f836040516020016104da9190611748565b6040516020818303038152906040528051906020012090506040518061010001604052808781526020018681526020013373ffffffffffffffffffffffffffffffffffffffff1681526020018563ffffffff1681526020018281526020015f81526020015f15158152602001428152505f808481526020019081526020015f205f820151815f01908161056d919061190a565b506020820151816001019081610583919061190a565b506040820151816002015f6101000a81548173ffffffffffffffffffffffffffffffffffffffff021916908373ffffffffffffffffffffffffffffffffffffffff16021790555060608201518160020160146101000a81548163ffffffff021916908363ffffffff1602179055506080820151816003015560a0820151816004015560c0820151816005015f6101000a81548160ff02191690831515021790555060e08201518160060155905050817f015160b988e6276f60217d1285acce63ffe2880e7e5baa7cca96fd2aeb62032b878684604051610665939291906119d9565b60405180910390a281925050509392505050565b5f805f8381526020019081526020015f2090505f8160060154116106d2576040517f08c379a00000000000000000000000000000000000000000000000000000000081526004016106c990611a5f565b60405180910390fd5b806005015f9054906101000a900460ff1615610723576040517f08c379a000000000000000000000000000000000000000000000000000000000815260040161071a90611ac7565b60405180910390fd5b5f816004015411610769576040517f08c379a000000000000000000000000000000000000000000000000000000000815260040161076090611b2f565b60405180910390fd5b6001816005015f6101000a81548160ff0219169083151502179055505f61080390505f82600301545f1c90508173ffffffffffffffffffffffffffffffffffffffff1663a9059cbb8285600401546040518363ffffffff1660e01b81526004016107d4929190611b4d565b6020604051808303815f875af11580156107f0573d5f803e3d5ffd5b505050506040513d601f19601f820116820180604052508101906108149190611b9e565b50837f62a546bef8623424f17ea8250afdad9de96db6012047171c949929499692a5b4846003015485600401548660020160149054906101000a900463ffffffff1660405161086593929190611bc9565b60405180910390a250505050565b60025481565b60035f9054906101000a900473ffffffffffffffffffffffffffffffffffffffff1681565b6001602052815f5260405f2081815481106108b7575f80fd5b905f5260205f20015f915091505080546108d09061154c565b80601f01602080910402602001604051908101604052809291908181526020018280546108fc9061154c565b80156109475780601f1061091e57610100808354040283529160200191610947565b820191905f5260205f20905b81548152906001019060200180831161092a57829003601f168201915b505050505081565b5f805f8581526020019081526020015f2090505f8160060154116109a8576040517f08c379a000000000000000000000000000000000000000000000000000000000815260040161099f90611a5f565b60405180910390fd5b806005015f9054906101000a900460ff16156109f9576040517f08c379a00000000000000000000000000000000000000000000000000000000081526004016109f090611ac7565b60405180910390fd5b5f8311610a3b576040517f08c379a0000000000000000000000000000000000000000000000000000000008152600401610a3290611c48565b60405180910390fd5b5f61080390508073ffffffffffffffffffffffffffffffffffffffff166323b872dd3330876040518463ffffffff1660e01b8152600401610a7e93929190611c66565b6020604051808303815f875af1158015610a9a573d5f803e3d5ffd5b505050506040513d601f19601f82011682018060405250810190610abe9190611b9e565b610afd576040517f08c379a0000000000000000000000000000000000000000000000000000000008152600401610af490611ce5565b60405180910390fd5b83826004015f828254610b109190611d03565b925050819055505f83511115610b625760015f8681526020019081526020015f2083908060018154018082558091505060019003905f5260205f20015f909190919091509081610b60919061190a565b505b3373ffffffffffffffffffffffffffffffffffffffff16857f605f3d7187c6c38a822e7fc6e06c4359a134d7699c77cc1dec21e3c597d922188686604051610bab929190611d36565b60405180910390a35050505050565b61080381565b6103e881565b6060805f805f805f805f805f8b81526020019081526020015f20604051806101000160405290815f82018054610bfb9061154c565b80601f0160208091040260200160405190810160405280929190818152602001828054610c279061154c565b8015610c725780601f10610c4957610100808354040283529160200191610c72565b820191905f5260205f20905b815481529060010190602001808311610c5557829003601f168201915b50505050508152602001600182018054610c8b9061154c565b80601f0160208091040260200160405190810160405280929190818152602001828054610cb79061154c565b8015610d025780601f10610cd957610100808354040283529160200191610d02565b820191905f5260205f20905b815481529060010190602001808311610ce557829003601f168201915b50505050508152602001600282015f9054906101000a900473ffffffffffffffffffffffffffffffffffffffff1673ffffffffffffffffffffffffffffffffffffffff1673ffffffffffffffffffffffffffffffffffffffff1681526020016002820160149054906101000a900463ffffffff1663ffffffff1663ffffffff1681526020016003820154815260200160048201548152602001600582015f9054906101000a900460ff161515151581526020016006820154815250509050805f015181602001518260400151836060015184608001518560a001518660c001518760e001519850985098509850985098509850985050919395975091939597565b606060015f8381526020019081526020015f20805480602002602001604051908101604052809291908181526020015f905b82821015610edd578382905f5260205f20018054610e529061154c565b80601f0160208091040260200160405190810160405280929190818152602001828054610e7e9061154c565b8015610ec95780601f10610ea057610100808354040283529160200191610ec9565b820191905f5260205f20905b815481529060010190602001808311610eac57829003601f168201915b505050505081526020019060010190610e35565b505050509050919050565b5f604051905090565b5f80fd5b5f80fd5b5f819050919050565b610f0b81610ef9565b8114610f15575f80fd5b50565b5f81359050610f2681610f02565b92915050565b5f80fd5b5f80fd5b5f601f19601f8301169050919050565b7f4e487b71000000000000000000000000000000000000000000000000000000005f52604160045260245ffd5b610f7a82610f34565b810181811067ffffffffffffffff82111715610f9957610f98610f44565b5b80604052505050565b5f610fab610ee8565b9050610fb78282610f71565b919050565b5f67ffffffffffffffff821115610fd657610fd5610f44565b5b610fdf82610f34565b9050602081019050919050565b828183375f83830152505050565b5f61100c61100784610fbc565b610fa2565b90508281526020810184848401111561102857611027610f30565b5b611033848285610fec565b509392505050565b5f82601f83011261104f5761104e610f2c565b5b813561105f848260208601610ffa565b91505092915050565b5f805f6060848603121561107f5761107e610ef1565b5b5f61108c86828701610f18565b935050602061109d86828701610f18565b925050604084013567ffffffffffffffff8111156110be576110bd610ef5565b5b6110ca8682870161103b565b9150509250925092565b5f602082840312156110e9576110e8610ef1565b5b5f6110f684828501610f18565b91505092915050565b5f81519050919050565b5f82825260208201905092915050565b5f5b8381101561113657808201518184015260208101905061111b565b5f8484015250505050565b5f61114b826110ff565b6111558185611109565b9350611165818560208601611119565b61116e81610f34565b840191505092915050565b5f73ffffffffffffffffffffffffffffffffffffffff82169050919050565b5f6111a282611179565b9050919050565b6111b281611198565b82525050565b5f63ffffffff82169050919050565b6111d0816111b8565b82525050565b5f819050919050565b6111e8816111d6565b82525050565b6111f781610ef9565b82525050565b5f8115159050919050565b611211816111fd565b82525050565b5f610100820190508181035f830152611230818b611141565b90508181036020830152611244818a611141565b905061125360408301896111a9565b61126060608301886111c7565b61126d60808301876111df565b61127a60a08301866111ee565b61128760c0830185611208565b61129460e08301846111ee565b9998505050505050505050565b6112aa816111b8565b81146112b4575f80fd5b50565b5f813590506112c5816112a1565b92915050565b5f805f606084860312156112e2576112e1610ef1565b5b5f84013567ffffffffffffffff8111156112ff576112fe610ef5565b5b61130b8682870161103b565b935050602084013567ffffffffffffffff81111561132c5761132b610ef5565b5b6113388682870161103b565b9250506040611349868287016112b7565b9150509250925092565b5f6020820190506113665f8301846111ee565b92915050565b5f60208201905061137f5f8301846111a9565b92915050565b5f806040838503121561139b5761139a610ef1565b5b5f6113a885828601610f18565b92505060206113b985828601610f18565b9150509250929050565b5f6020820190508181035f8301526113db8184611141565b905092915050565b5f6020820190506113f65f8301846111c7565b92915050565b5f81519050919050565b5f82825260208201905092915050565b5f819050602082019050919050565b5f82825260208201905092915050565b5f61143f826110ff565b6114498185611425565b9350611459818560208601611119565b61146281610f34565b840191505092915050565b5f6114788383611435565b905092915050565b5f602082019050919050565b5f611496826113fc565b6114a08185611406565b9350836020820285016114b285611416565b805f5b858110156114ed57848403895281516114ce858261146d565b94506114d983611480565b925060208a019950506001810190506114b5565b50829750879550505050505092915050565b5f6020820190508181035f830152611517818461148c565b905092915050565b7f4e487b71000000000000000000000000000000000000000000000000000000005f52602260045260245ffd5b5f600282049050600182168061156357607f821691505b6020821081036115765761157561151f565b5b50919050565b7f4e616d65207265717569726564000000000000000000000000000000000000005f82015250565b5f6115b0600d83611109565b91506115bb8261157c565b602082019050919050565b5f6020820190508181035f8301526115dd816115a4565b9050919050565b7f496e76616c69642070617261636861696e2049440000000000000000000000005f82015250565b5f611618601483611109565b9150611623826115e4565b602082019050919050565b5f6020820190508181035f8301526116458161160c565b9050919050565b7f4e487b71000000000000000000000000000000000000000000000000000000005f52601160045260245ffd5b5f61168382610ef9565b91507fffffffffffffffffffffffffffffffffffffffffffffffffffffffffffffffff82036116b5576116b461164c565b5b600182019050919050565b5f81905092915050565b7f70617261000000000000000000000000000000000000000000000000000000005f82015250565b5f6116fe6004836116c0565b9150611709826116ca565b600482019050919050565b5f8160e01b9050919050565b5f61172a82611714565b9050919050565b61174261173d826111b8565b611720565b82525050565b5f611752826116f2565b915061175e8284611731565b60048201915081905092915050565b5f819050815f5260205f209050919050565b5f6020601f8301049050919050565b5f82821b905092915050565b5f600883026117c97fffffffffffffffffffffffffffffffffffffffffffffffffffffffffffffffff8261178e565b6117d3868361178e565b95508019841693508086168417925050509392505050565b5f819050919050565b5f61180e61180961180484610ef9565b6117eb565b610ef9565b9050919050565b5f819050919050565b611827836117f4565b61183b61183382611815565b84845461179a565b825550505050565b5f90565b61184f611843565b61185a81848461181e565b505050565b5b8181101561187d576118725f82611847565b600181019050611860565b5050565b601f8211156118c2576118938161176d565b61189c8461177f565b810160208510156118ab578190505b6118bf6118b78561177f565b83018261185f565b50505b505050565b5f82821c905092915050565b5f6118e25f19846008026118c7565b1980831691505092915050565b5f6118fa83836118d3565b9150826002028217905092915050565b611913826110ff565b67ffffffffffffffff81111561192c5761192b610f44565b5b611936825461154c565b611941828285611881565b5f60209050601f831160018114611972575f8415611960578287015190505b61196a85826118ef565b8655506119d1565b601f1984166119808661176d565b5f5b828110156119a757848901518255600182019150602085019450602081019050611982565b868310156119c457848901516119c0601f8916826118d3565b8355505b6001600288020188555050505b505050505050565b5f6060820190508181035f8301526119f18186611141565b9050611a0060208301856111c7565b611a0d60408301846111df565b949350505050565b7f43616d706169676e206e6f7420666f756e6400000000000000000000000000005f82015250565b5f611a49601283611109565b9150611a5482611a15565b602082019050919050565b5f6020820190508181035f830152611a7681611a3d565b9050919050565b7f416c726561647920666f727761726465640000000000000000000000000000005f82015250565b5f611ab1601183611109565b9150611abc82611a7d565b602082019050919050565b5f6020820190508181035f830152611ade81611aa5565b9050919050565b7f4e6f7468696e6720746f20666f727761726400000000000000000000000000005f82015250565b5f611b19601283611109565b9150611b2482611ae5565b602082019050919050565b5f6020820190508181035f830152611b4681611b0d565b9050919050565b5f604082019050611b605f8301856111a9565b611b6d60208301846111ee565b9392505050565b611b7d816111fd565b8114611b87575f80fd5b50565b5f81519050611b9881611b74565b92915050565b5f60208284031215611bb357611bb2610ef1565b5b5f611bc084828501611b8a565b91505092915050565b5f606082019050611bdc5f8301866111df565b611be960208301856111ee565b611bf660408301846111c7565b949350505050565b7f416d6f756e74206d757374206265203e203000000000000000000000000000005f82015250565b5f611c32601283611109565b9150611c3d82611bfe565b602082019050919050565b5f6020820190508181035f830152611c5f81611c26565b9050919050565b5f606082019050611c795f8301866111a9565b611c8660208301856111a9565b611c9360408301846111ee565b949350505050565b7f55534443207472616e73666572206661696c65640000000000000000000000005f82015250565b5f611ccf601483611109565b9150611cda82611c9b565b602082019050919050565b5f6020820190508181035f830152611cfc81611cc3565b9050919050565b5f611d0d82610ef9565b9150611d1883610ef9565b9250828201905080821115611d3057611d2f61164c565b5b92915050565b5f604082019050611d495f8301856111ee565b8181036020830152611d5b8184611141565b9050939250505056fea2646970667358221220b123d03ddd7812d1c076d68de0e1a345d1d214035a5dd2f02bc84b566a8dad3764736f6c63430008140033",
  "linkReferences": {},
  "deployedLinkReferences": {},
  "immutableReferences": {},
  "inputSourceName": "project/contracts/TipsyDotV2.sol",
  "buildInfoId": "solc-0_8_20-af6f48c5116e4bb849742373f7c2679b1d94371e"
}